{
  "address": "0x7C652eEC6C7C60AE48E539a4e693E868ED60e063",
  "abi": [
    {
      "anonymous": false,
      "inputs": [
        {
          "indexed": true,
          "internalType": "address",
          "name": "daoAddress",
          "type": "address"
        },
        {
          "indexed": true,
          "internalType": "address",
          "name": "accessControl",
          "type": "address"
        },
        {
          "indexed": true,
          "internalType": "address",
          "name": "sender",
          "type": "address"
        },
        {
          "indexed": false,
          "internalType": "address",
          "name": "creator",
          "type": "address"
        }
      ],
      "name": "DAOCreated",
      "type": "event"
    },
    {
      "inputs": [
        {
          "internalType": "address",
          "name": "creator",
          "type": "address"
        },
        {
          "components": [
            {
              "internalType": "address",
              "name": "daoImplementation",
              "type": "address"
            },
            {
              "internalType": "address",
              "name": "daoFactory",
              "type": "address"
            },
            {
              "internalType": "address",
              "name": "accessControlImplementation",
              "type": "address"
            },
            {
              "internalType": "string",
              "name": "daoName",
              "type": "string"
            },
            {
              "internalType": "string[]",
              "name": "roles",
              "type": "string[]"
            },
            {
              "internalType": "string[]",
              "name": "rolesAdmins",
              "type": "string[]"
            },
            {
              "internalType": "address[][]",
              "name": "members",
              "type": "address[][]"
            },
            {
              "internalType": "string[]",
              "name": "daoFunctionDescs",
              "type": "string[]"
            },
            {
              "internalType": "string[][]",
              "name": "daoActionRoles",
              "type": "string[][]"
            }
          ],
          "internalType": "struct IDAOFactory.CreateDAOParams",
          "name": "createDAOParams",
          "type": "tuple"
        }
      ],
      "name": "createDAO",
      "outputs": [
        {
          "internalType": "address",
          "name": "dao",
          "type": "address"
        },
        {
          "internalType": "address",
          "name": "accessControl",
          "type": "address"
        }
      ],
      "stateMutability": "nonpayable",
      "type": "function"
    },
    {
      "inputs": [
        {
          "internalType": "bytes4",
          "name": "interfaceId",
          "type": "bytes4"
        }
      ],
      "name": "supportsInterface",
      "outputs": [
        {
          "internalType": "bool",
          "name": "",
          "type": "bool"
        }
      ],
      "stateMutability": "view",
      "type": "function"
    }
  ],
  "transactionHash": "0xe5b2597450a46cab11fbed1291ae089a59554b137536619c627ea7f6271d7f92",
  "args": [],
  "numDeployments": 1,
  "solcInputHash": "cb29b1122a2a9f49121762efee41631d",
  "bytecode": "0x608060405234801561001057600080fd5b506113b6806100206000396000f3fe60806040523480156200001157600080fd5b50600436106200003a5760003560e01c806301ffc9a7146200003f5780631009caf2146200006b575b600080fd5b62000056620000503660046200037e565b620000a3565b60405190151581526020015b60405180910390f35b620000826200007c366004620003ce565b620000db565b604080516001600160a01b0393841681529290911660208301520162000062565b60006001600160e01b03198216630804e57960e11b1480620000d557506301ffc9a760e01b6001600160e01b03198316145b92915050565b600080620000ed602084018462000429565b604051620000fb9062000370565b6001600160a01b039091168152604060208201819052600090820152606001604051809103906000f08015801562000137573d6000803e3d6000fd5b50915062000150826200014a856200077a565b62000225565b90506001600160a01b038216634571e3a68262000174604087016020880162000429565b620001836060880188620008cf565b6040518563ffffffff1660e01b8152600401620001a4949392919062000920565b600060405180830381600087803b158015620001bf57600080fd5b505af1158015620001d4573d6000803e3d6000fd5b50506040516001600160a01b03878116825233935084811692508516907f4db6ee38117e611315b34948f609eed3356f7c79be1c2e94a2a636a7e9599cf79060200160405180910390a49250929050565b60e081015151600090818167ffffffffffffffff8111156200024b576200024b62000447565b60405190808252806020026020018201604052801562000275578160200160208202803683370190505b50905060005b82811015620002bb57858282815181106200029a576200029a6200096c565b6001600160a01b03909216602092830291909101909101526001016200027b565b50836040015163f9d68d8a60e01b8686608001518760a001518860c00151868a60e001518b6101000151604051602401620002fd979695949392919062000abd565b60408051601f198184030181529181526020820180516001600160e01b03166001600160e01b03199094169390931790925290516200033c9062000370565b6200034992919062000ba1565b604051809103906000f08015801562000366573d6000803e3d6000fd5b5095945050505050565b6107b18062000bd083390190565b6000602082840312156200039157600080fd5b81356001600160e01b031981168114620003aa57600080fd5b9392505050565b80356001600160a01b0381168114620003c957600080fd5b919050565b60008060408385031215620003e257600080fd5b620003ed83620003b1565b9150602083013567ffffffffffffffff8111156200040a57600080fd5b830161012081860312156200041e57600080fd5b809150509250929050565b6000602082840312156200043c57600080fd5b620003aa82620003b1565b634e487b7160e01b600052604160045260246000fd5b604051610120810167ffffffffffffffff8111828210171562000484576200048462000447565b60405290565b604051601f8201601f1916810167ffffffffffffffff81118282101715620004b657620004b662000447565b604052919050565b600082601f830112620004d057600080fd5b813567ffffffffffffffff811115620004ed57620004ed62000447565b62000502601f8201601f19166020016200048a565b8181528460208386010111156200051857600080fd5b816020850160208301376000918101602001919091529392505050565b600067ffffffffffffffff82111562000552576200055262000447565b5060051b60200190565b600082601f8301126200056e57600080fd5b8135602062000587620005818362000535565b6200048a565b82815260059290921b84018101918181019086841115620005a757600080fd5b8286015b84811015620005ec57803567ffffffffffffffff811115620005cd5760008081fd5b620005dd8986838b0101620004be565b845250918301918301620005ab565b509695505050505050565b600082601f8301126200060957600080fd5b813560206200061c620005818362000535565b828152600592831b85018201928282019190878511156200063c57600080fd5b8387015b85811015620006e357803567ffffffffffffffff811115620006625760008081fd5b8801603f81018a13620006755760008081fd5b8581013560406200068a620005818362000535565b82815291851b8301810191888101908d841115620006a85760008081fd5b938201935b83851015620006d157620006c185620003b1565b82529389019390890190620006ad565b88525050509385019350840162000640565b5090979650505050505050565b600082601f8301126200070257600080fd5b8135602062000715620005818362000535565b82815260059290921b840181019181810190868411156200073557600080fd5b8286015b84811015620005ec57803567ffffffffffffffff8111156200075b5760008081fd5b6200076b8986838b01016200055c565b84525091830191830162000739565b600061012082360312156200078e57600080fd5b620007986200045d565b620007a383620003b1565b8152620007b360208401620003b1565b6020820152620007c660408401620003b1565b6040820152606083013567ffffffffffffffff80821115620007e757600080fd5b620007f536838701620004be565b606084015260808501359150808211156200080f57600080fd5b6200081d368387016200055c565b608084015260a08501359150808211156200083757600080fd5b62000845368387016200055c565b60a084015260c08501359150808211156200085f57600080fd5b6200086d36838701620005f7565b60c084015260e08501359150808211156200088757600080fd5b62000895368387016200055c565b60e084015261010091508185013581811115620008b157600080fd5b620008bf36828801620006f0565b8385015250505080915050919050565b6000808335601e19843603018112620008e757600080fd5b83018035915067ffffffffffffffff8211156200090357600080fd5b6020019150368190038213156200091957600080fd5b9250929050565b6001600160a01b0385811682528416602082015260606040820181905281018290526000828460808401376000608084840101526080601f19601f850116830101905095945050505050565b634e487b7160e01b600052603260045260246000fd5b6000815180845260005b81811015620009aa576020818501810151868301820152016200098c565b81811115620009bd576000602083870101525b50601f01601f19169290920160200192915050565b600081518084526020808501808196508360051b8101915082860160005b8581101562000a1e57828403895262000a0b84835162000982565b98850198935090840190600101620009f0565b5091979650505050505050565b600081518084526020808501945080840160005b8381101562000a665781516001600160a01b03168752958201959082019060010162000a3f565b509495945050505050565b600081518084526020808501808196508360051b8101915082860160005b8581101562000a1e57828403895262000aaa848351620009d2565b9885019893509084019060010162000a8f565b6001600160a01b038816815260e0602080830182905260009162000ae49084018a620009d2565b838103604085015262000af8818a620009d2565b905083810360608501528088518083528383019150838160051b840101848b0160005b8381101562000b4d57601f1986840301855262000b3a83835162000a2b565b9487019492509086019060010162000b1b565b5050868103608088015262000b63818b62000a2b565b94505050505082810360a084015262000b7d8186620009d2565b905082810360c084015262000b93818562000a71565b9a9950505050505050505050565b6001600160a01b038316815260406020820181905260009062000bc79083018462000982565b94935050505056fe60806040526040516107b13803806107b183398101604081905261002291610349565b61004d60017f360894a13ba1a3210667c828492db98dca3e2076cc3735a920a3ca505d382bbd610417565b60008051602061076a833981519152146100695761006961043c565b6100758282600061007c565b50506104a1565b610085836100b2565b6000825111806100925750805b156100ad576100ab83836100f260201b6100291760201c565b505b505050565b6100bb8161011e565b6040516001600160a01b038216907fbc7cd75a20ee27fd9adebab32041f755214dbc6bffa90cc0225b39da2e5c2d3b90600090a250565b6060610117838360405180606001604052806027815260200161078a602791396101de565b9392505050565b610131816102bc60201b6100551760201c565b6101985760405162461bcd60e51b815260206004820152602d60248201527f455243313936373a206e657720696d706c656d656e746174696f6e206973206e60448201526c1bdd08184818dbdb9d1c9858dd609a1b60648201526084015b60405180910390fd5b806101bd60008051602061076a83398151915260001b6102cb60201b6100641760201c565b80546001600160a01b0319166001600160a01b039290921691909117905550565b60606001600160a01b0384163b6102465760405162461bcd60e51b815260206004820152602660248201527f416464726573733a2064656c65676174652063616c6c20746f206e6f6e2d636f6044820152651b9d1c9858dd60d21b606482015260840161018f565b600080856001600160a01b0316856040516102619190610452565b600060405180830381855af49150503d806000811461029c576040519150601f19603f3d011682016040523d82523d6000602084013e6102a1565b606091505b5090925090506102b28282866102ce565b9695505050505050565b6001600160a01b03163b151590565b90565b606083156102dd575081610117565b8251156102ed5782518084602001fd5b8160405162461bcd60e51b815260040161018f919061046e565b634e487b7160e01b600052604160045260246000fd5b60005b83811015610338578181015183820152602001610320565b838111156100ab5750506000910152565b6000806040838503121561035c57600080fd5b82516001600160a01b038116811461037357600080fd5b60208401519092506001600160401b038082111561039057600080fd5b818501915085601f8301126103a457600080fd5b8151818111156103b6576103b6610307565b604051601f8201601f19908116603f011681019083821181831017156103de576103de610307565b816040528281528860208487010111156103f757600080fd5b61040883602083016020880161031d565b80955050505050509250929050565b60008282101561043757634e487b7160e01b600052601160045260246000fd5b500390565b634e487b7160e01b600052600160045260246000fd5b6000825161046481846020870161031d565b9190910192915050565b602081526000825180602084015261048d81604085016020870161031d565b601f01601f19169190910160400192915050565b6102ba806104b06000396000f3fe60806040523661001357610011610017565b005b6100115b610027610022610067565b61009f565b565b606061004e838360405180606001604052806027815260200161025e602791396100c3565b9392505050565b6001600160a01b03163b151590565b90565b600061009a7f360894a13ba1a3210667c828492db98dca3e2076cc3735a920a3ca505d382bbc546001600160a01b031690565b905090565b3660008037600080366000845af43d6000803e8080156100be573d6000f35b3d6000fd5b60606001600160a01b0384163b6101305760405162461bcd60e51b815260206004820152602660248201527f416464726573733a2064656c65676174652063616c6c20746f206e6f6e2d636f6044820152651b9d1c9858dd60d21b60648201526084015b60405180910390fd5b600080856001600160a01b03168560405161014b919061020e565b600060405180830381855af49150503d8060008114610186576040519150601f19603f3d011682016040523d82523d6000602084013e61018b565b606091505b509150915061019b8282866101a5565b9695505050505050565b606083156101b457508161004e565b8251156101c45782518084602001fd5b8160405162461bcd60e51b8152600401610127919061022a565b60005b838110156101f95781810151838201526020016101e1565b83811115610208576000848401525b50505050565b600082516102208184602087016101de565b9190910192915050565b60208152600082518060208401526102498160408501602087016101de565b601f01601f1916919091016040019291505056fe416464726573733a206c6f772d6c6576656c2064656c65676174652063616c6c206661696c6564a2646970667358221220c1396a395593415293023c3bc166734d52c4ee9136c6ff8eaef33568949ec5f064736f6c634300080d0033360894a13ba1a3210667c828492db98dca3e2076cc3735a920a3ca505d382bbc416464726573733a206c6f772d6c6576656c2064656c65676174652063616c6c206661696c6564a26469706673582212201150d209474b5ae2af57d1ec417300e8b786bb73dc18694b56fb382a23d1252a64736f6c634300080d0033",
  "devdoc": {
    "kind": "dev",
    "methods": {
      "createDAO(address,(address,address,address,string,string[],string[],address[][],string[],string[][]))": {
        "params": {
          "createDAOParams": "Struct of all the parameters required to create a DAO",
          "creator": "Address of the Dao Creator"
        },
        "returns": {
          "accessControl": "The address of the deployed access control proxy contract",
          "dao": "The address of the deployed DAO proxy contract"
        }
      },
      "supportsInterface(bytes4)": {
        "params": {
          "interfaceId": "An interface ID bytes4 as defined by ERC-165"
        },
        "returns": {
          "_0": "bool Indicates whether the interface is supported"
        }
      }
    },
    "version": 1
  },
  "userdoc": {
    "kind": "user",
    "methods": {
      "createDAO(address,(address,address,address,string,string[],string[],address[][],string[],string[][]))": {
        "notice": "Creates a DAO with an access control contract"
      },
      "supportsInterface(bytes4)": {
        "notice": "Returns whether a given interface ID is supported"
      }
    },
    "notice": "A factory contract for deploying DAOs with an access control contract",
    "version": 1
  },
  "storageLayout": {
    "storage": [],
    "types": null
  }
}