{
  "address": "0x85588964a87af575629641Deaa54F4D78f6d0CBe",
  "abi": [
    {
      "inputs": [],
      "name": "FactoryCallFailed",
      "type": "error"
    },
    {
      "inputs": [],
      "name": "InvalidModuleAddressToPass",
      "type": "error"
    },
    {
      "inputs": [],
      "name": "UnequalArrayLengths",
      "type": "error"
    },
    {
      "anonymous": false,
      "inputs": [
        {
          "indexed": false,
          "internalType": "address",
          "name": "dao",
          "type": "address"
        },
        {
          "indexed": false,
          "internalType": "address",
          "name": "accessControl",
          "type": "address"
        },
        {
          "indexed": false,
          "internalType": "address[]",
          "name": "modules",
          "type": "address[]"
        }
      ],
      "name": "DAOAndModulesCreated",
      "type": "event"
    },
    {
      "inputs": [
        {
          "internalType": "address",
          "name": "daoFactory",
          "type": "address"
        },
        {
          "internalType": "uint256",
          "name": "metaFactoryTempRoleIndex",
          "type": "uint256"
        },
        {
          "components": [
            {
              "internalType": "address",
              "name": "daoImplementation",
              "type": "address"
            },
            {
              "internalType": "address",
              "name": "accessControlImplementation",
              "type": "address"
            },
            {
              "internalType": "string",
              "name": "daoName",
              "type": "string"
            },
            {
              "internalType": "string[]",
              "name": "roles",
              "type": "string[]"
            },
            {
              "internalType": "string[]",
              "name": "rolesAdmins",
              "type": "string[]"
            },
            {
              "internalType": "address[][]",
              "name": "members",
              "type": "address[][]"
            },
            {
              "internalType": "string[]",
              "name": "daoFunctionDescs",
              "type": "string[]"
            },
            {
              "internalType": "string[][]",
              "name": "daoActionRoles",
              "type": "string[][]"
            }
          ],
          "internalType": "struct IDAOFactory.CreateDAOParams",
          "name": "createDAOParams",
          "type": "tuple"
        },
        {
          "components": [
            {
              "internalType": "address",
              "name": "factory",
              "type": "address"
            },
            {
              "internalType": "bytes[]",
              "name": "data",
              "type": "bytes[]"
            },
            {
              "internalType": "uint256",
              "name": "value",
              "type": "uint256"
            },
            {
              "internalType": "uint256[]",
              "name": "newContractAddressesToPass",
              "type": "uint256[]"
            },
            {
              "internalType": "uint256",
              "name": "addressesReturned",
              "type": "uint256"
            }
          ],
          "internalType": "struct IMetaFactory.ModuleFactoryCallData[]",
          "name": "moduleFactoriesCallData",
          "type": "tuple[]"
        },
        {
          "components": [
            {
              "internalType": "uint256[]",
              "name": "contractIndexes",
              "type": "uint256[]"
            },
            {
              "internalType": "string[]",
              "name": "functionDescs",
              "type": "string[]"
            },
            {
              "internalType": "string[][]",
              "name": "roles",
              "type": "string[][]"
            }
          ],
          "internalType": "struct IMetaFactory.ModuleActionData",
          "name": "moduleActionData",
          "type": "tuple"
        },
        {
          "internalType": "uint256[][]",
          "name": "roleModuleMembers",
          "type": "uint256[][]"
        }
      ],
      "name": "createDAOAndModules",
      "outputs": [
        {
          "internalType": "address[]",
          "name": "",
          "type": "address[]"
        }
      ],
      "stateMutability": "nonpayable",
      "type": "function"
    },
    {
      "inputs": [
        {
          "internalType": "bytes4",
          "name": "interfaceId",
          "type": "bytes4"
        }
      ],
      "name": "supportsInterface",
      "outputs": [
        {
          "internalType": "bool",
          "name": "",
          "type": "bool"
        }
      ],
      "stateMutability": "view",
      "type": "function"
    }
  ],
  "transactionHash": "0x151d4fa82632b8bc89e1d575e84d2c80d3334646009462f354e5685e727f5eb7",
  "args": [],
  "numDeployments": 1,
  "solcInputHash": "3ddadc1d7c849ba50fdf1b869807a376",
  "bytecode": "0x608060405234801561001057600080fd5b50611dc5806100206000396000f3fe608060405234801561001057600080fd5b50600436106100365760003560e01c806301ffc9a71461003b5780633fd0822e14610063575b600080fd5b61004e610049366004610fa3565b610083565b60405190151581526020015b60405180910390f35b61007661007136600461176f565b6100ba565b60405161005a9190611878565b60006001600160e01b03198216631fe8411760e11b14806100b457506301ffc9a760e01b6001600160e01b03198316145b92915050565b6020820151518251516060911415806100da575060408301515183515114155b806100eb5750815185606001515114155b15610109576040516311e86f7360e01b815260040160405180910390fd5b8351600260005b8281101561014b5786818151811061012a5761012a61188b565b6020026020010151608001518261014191906118b7565b9150600101610110565b506000816001600160401b0381111561016657610166610ffc565b60405190808252806020026020018201604052801561018f578160200160208202803683370190505b50905060008860a001518a815181106101aa576101aa61188b565b602002602001015151905060008160016101c491906118b7565b6001600160401b038111156101db576101db610ffc565b604051908082528060200260200182016040528015610204578160200160208202803683370190505b50905060005b8281101561027b578a60a001518c815181106102285761022861188b565b602002602001015181815181106102415761024161188b565b602002602001015182828151811061025b5761025b61188b565b6001600160a01b039092166020928302919091019091015260010161020a565b503081838151811061028f5761028f61188b565b60200260200101906001600160a01b031690816001600160a01b031681525050808a60a001518c815181106102c6576102c661188b565b60200260200101819052506000808d6001600160a01b0316639f065e81338e6040518363ffffffff1660e01b8152600401610302929190611a4d565b60408051808303816000875af1158015610320573d6000803e3d6000fd5b505050506040513d601f19601f820116820180604052508101906103449190611b4f565b91509150818560008151811061035c5761035c61188b565b60200260200101906001600160a01b031690816001600160a01b03168152505080856001815181106103905761039061188b565b60200260200101906001600160a01b031690816001600160a01b0316815250506103ba858c6105a4565b94506103c68a866109d3565b6103d58c606001518a87610c64565b846001815181106103e8576103e861188b565b60200260200101516001600160a01b031663a1e6ab9f8d606001518f815181106104145761041461188b565b6020026020010151306040518363ffffffff1660e01b815260040161043a929190611b89565b600060405180830381600087803b15801561045457600080fd5b505af1158015610468573d6000803e3d6000fd5b5050505060006002865161047c9190611bb3565b6001600160401b0381111561049357610493610ffc565b6040519080825280602002602001820160405280156104bc578160200160208202803683370190505b50905060005b815181101561052157866104d78260026118b7565b815181106104e7576104e761188b565b60200260200101518282815181106105015761050161188b565b6001600160a01b03909216602092830291909101909101526001016104c2565b507f64f3ddfe41c125867960880cd7a6e05e253a18137a283f8598cda84184fc2521866000815181106105565761055661188b565b6020026020010151876001815181106105715761057161188b565b60200260200101518360405161058993929190611bca565b60405180910390a150939d9c50505050505050505050505050565b6060600260005b83518110156109ca5760008482815181106105c8576105c861188b565b6020026020010151606001515190506000818684815181106105ec576105ec61188b565b6020026020010151602001515161060391906118b7565b6001600160401b0381111561061a5761061a610ffc565b60405190808252806020026020018201604052801561064d57816020015b60608152602001906001900390816106385790505b50905060005b8281101561075e576106668460026118b7565b8785815181106106785761067861188b565b60200260200101516060015182815181106106955761069561188b565b6020026020010151106106bb5760405163025fe3cd60e21b815260040160405180910390fd5b878785815181106106ce576106ce61188b565b60200260200101516060015182815181106106eb576106eb61188b565b6020026020010151815181106107035761070361188b565b602002602001015160405160200161072a91906001600160a01b0391909116815260200190565b60405160208183030381529060405282828151811061074b5761074b61188b565b6020908102919091010152600101610653565b5060005b8684815181106107745761077461188b565b602002602001015160200151518110156107ef5786848151811061079a5761079a61188b565b60200260200101516020015181815181106107b7576107b761188b565b60200260200101518284836107cc91906118b7565b815181106107dc576107dc61188b565b6020908102919091010152600101610762565b506000808785815181106108055761080561188b565b6020026020010151600001516001600160a01b031688868151811061082c5761082c61188b565b602002602001015160400151846040516024016108499190611bff565b60408051601f198184030181529181526020820180516001600160e01b0316631959b87360e31b1790525161087e9190611c12565b60006040518083038185875af1925050503d80600081146108bb576040519150601f19603f3d011682016040523d82523d6000602084013e6108c0565b606091505b5091509150816108e357604051637141390560e11b815260040160405180910390fd5b60008886815181106108f7576108f761188b565b6020026020010151608001516001600160401b0381111561091a5761091a610ffc565b604051908082528060200260200182016040528015610943578160200160208202803683370190505b5090508180602001905181019061095a9190611c2e565b905060005b81518110156109b85781818151811061097a5761097a61188b565b60200260200101518b89815181106109945761099461188b565b6001600160a01b03909216602092830291909101909101526001978801970161095f565b5050600190940193506105ab92505050565b50929392505050565b8151516000816001600160401b038111156109f0576109f0610ffc565b604051908082528060200260200182016040528015610a19578160200160208202803683370190505b50905060005b82811015610a90578385600001518281518110610a3e57610a3e61188b565b602002602001015181518110610a5657610a5661188b565b6020026020010151828281518110610a7057610a7061188b565b6001600160a01b0390921660209283029190910190910152600101610a1f565b5060008185602001518660400151604051602401610ab093929190611cc7565b60408051601f19818403018152918152602080830180516001600160e01b03166334e7dc6560e11b1790528151600180825281840190935292935060009291908281019080368337505060408051600180825281830190925292935060009291506020808301908036833750506040805160018082528183019092529293506000929150602082015b6060815260200190600190039081610b3957905050905086600181518110610b6357610b6361188b565b602002602001015183600081518110610b7e57610b7e61188b565b60200260200101906001600160a01b031690816001600160a01b031681525050600082600081518110610bb357610bb361188b565b6020026020010181815250508381600081518110610bd357610bd361188b565b602002602001018190525086600081518110610bf157610bf161188b565b60200260200101516001600160a01b031663a516a5bf8484846040518463ffffffff1660e01b8152600401610c2893929190611d00565b600060405180830381600087803b158015610c4257600080fd5b505af1158015610c56573d6000803e3d6000fd5b505050505050505050505050565b81516000816001600160401b03811115610c8057610c80610ffc565b604051908082528060200260200182016040528015610cb357816020015b6060815260200190600190039081610c9e5790505b50905060005b82811015610dd8576000858281518110610cd557610cd561188b565b60200260200101515190506000816001600160401b03811115610cfa57610cfa610ffc565b604051908082528060200260200182016040528015610d23578160200160208202803683370190505b50905060005b82811015610daf5786888581518110610d4457610d4461188b565b60200260200101518281518110610d5d57610d5d61188b565b602002602001015181518110610d7557610d7561188b565b6020026020010151828281518110610d8f57610d8f61188b565b6001600160a01b0390921660209283029190910190910152600101610d29565b5080848481518110610dc357610dc361188b565b60209081029190910101525050600101610cb9565b5060008582604051602401610dee929190611d6a565b60408051601f19818403018152918152602080830180516001600160e01b0316632359caf960e01b1790528151600180825281840190935292935060009291908281019080368337505060408051600180825281830190925292935060009291506020808301908036833750506040805160018082528183019092529293506000929150602082015b6060815260200190600190039081610e7757905050905086600181518110610ea157610ea161188b565b602002602001015183600081518110610ebc57610ebc61188b565b60200260200101906001600160a01b031690816001600160a01b031681525050600082600081518110610ef157610ef161188b565b6020026020010181815250508381600081518110610f1157610f1161188b565b602002602001018190525086600081518110610f2f57610f2f61188b565b60200260200101516001600160a01b031663a516a5bf8484846040518463ffffffff1660e01b8152600401610f6693929190611d00565b600060405180830381600087803b158015610f8057600080fd5b505af1158015610f94573d6000803e3d6000fd5b50505050505050505050505050565b600060208284031215610fb557600080fd5b81356001600160e01b031981168114610fcd57600080fd5b9392505050565b6001600160a01b0381168114610fe957600080fd5b50565b8035610ff781610fd4565b919050565b634e487b7160e01b600052604160045260246000fd5b60405161010081016001600160401b038111828210171561103557611035610ffc565b60405290565b60405160a081016001600160401b038111828210171561103557611035610ffc565b604051601f8201601f191681016001600160401b038111828210171561108557611085610ffc565b604052919050565b60006001600160401b038311156110a6576110a6610ffc565b6110b9601f8401601f191660200161105d565b90508281528383830111156110cd57600080fd5b828260208301376000602084830101529392505050565b600082601f8301126110f557600080fd5b610fcd8383356020850161108d565b60006001600160401b0382111561111d5761111d610ffc565b5060051b60200190565b600082601f83011261113857600080fd5b8135602061114d61114883611104565b61105d565b82815260059290921b8401810191818101908684111561116c57600080fd5b8286015b848110156111ab5780356001600160401b0381111561118f5760008081fd5b61119d8986838b01016110e4565b845250918301918301611170565b509695505050505050565b600082601f8301126111c757600080fd5b813560206111d761114883611104565b828152600592831b85018201928282019190878511156111f657600080fd5b8387015b858110156112955780356001600160401b038111156112195760008081fd5b8801603f81018a1361122b5760008081fd5b85810135604061123d61114883611104565b82815291851b8301810191888101908d84111561125a5760008081fd5b938201935b83851015611284578435925061127483610fd4565b828252938901939089019061125f565b8852505050938501935084016111fa565b5090979650505050505050565b600082601f8301126112b357600080fd5b813560206112c361114883611104565b82815260059290921b840181019181810190868411156112e257600080fd5b8286015b848110156111ab5780356001600160401b038111156113055760008081fd5b6113138986838b0101611127565b8452509183019183016112e6565b6000610100828403121561133457600080fd5b61133c611012565b905061134782610fec565b815261135560208301610fec565b602082015260408201356001600160401b038082111561137457600080fd5b611380858386016110e4565b6040840152606084013591508082111561139957600080fd5b6113a585838601611127565b606084015260808401359150808211156113be57600080fd5b6113ca85838601611127565b608084015260a08401359150808211156113e357600080fd5b6113ef858386016111b6565b60a084015260c084013591508082111561140857600080fd5b61141485838601611127565b60c084015260e084013591508082111561142d57600080fd5b5061143a848285016112a2565b60e08301525092915050565b600082601f83011261145757600080fd5b8135602061146761114883611104565b82815260059290921b8401810191818101908684111561148657600080fd5b8286015b848110156111ab578035835291830191830161148a565b600082601f8301126114b257600080fd5b6114bf6111488335611104565b82358082526020808301929160051b850101858111156114de57600080fd5b602085015b81811015611637576001600160401b03808235111561150157600080fd5b8135870160a0818a03601f1901121561151957600080fd5b61152161103b565b61152e6020830135610fd4565b60208201358152826040830135111561154657600080fd5b604082013582018a603f82011261155c57600080fd5b61156c6111486020830135611104565b602082810135808352908201919060051b83016040018d81111561158f57600080fd5b604084015b818110156115e05787813511156115aa57600080fd5b8e605f8235870101126115bc57600080fd5b6115d28f8235870160408101359060600161108d565b845260209384019301611594565b50506020840152505060608201356040820152608082013583101561160457600080fd5b6116178a60206080850135850101611446565b606082015260a091909101356080820152855250602093840193016114e3565b509095945050505050565b60006060828403121561165457600080fd5b604051606081016001600160401b03828210818311171561167757611677610ffc565b81604052829350843591508082111561168f57600080fd5b61169b86838701611446565b835260208501359150808211156116b157600080fd5b6116bd86838701611127565b602084015260408501359150808211156116d657600080fd5b506116e3858286016112a2565b6040830152505092915050565b600082601f83011261170157600080fd5b8135602061171161114883611104565b82815260059290921b8401810191818101908684111561173057600080fd5b8286015b848110156111ab5780356001600160401b038111156117535760008081fd5b6117618986838b0101611446565b845250918301918301611734565b60008060008060008060c0878903121561178857600080fd5b61179187610fec565b95506020870135945060408701356001600160401b03808211156117b457600080fd5b6117c08a838b01611321565b955060608901359150808211156117d657600080fd5b6117e28a838b016114a1565b945060808901359150808211156117f857600080fd5b6118048a838b01611642565b935060a089013591508082111561181a57600080fd5b5061182789828a016116f0565b9150509295509295509295565b600081518084526020808501945080840160005b8381101561186d5781516001600160a01b031687529582019590820190600101611848565b509495945050505050565b602081526000610fcd6020830184611834565b634e487b7160e01b600052603260045260246000fd5b634e487b7160e01b600052601160045260246000fd5b600082198211156118ca576118ca6118a1565b500190565b60005b838110156118ea5781810151838201526020016118d2565b838111156118f9576000848401525b50505050565b600081518084526119178160208601602086016118cf565b601f01601f19169290920160200192915050565b600081518084526020808501808196508360051b8101915082860160005b858110156119735782840389526119618483516118ff565b98850198935090840190600101611949565b5091979650505050505050565b600081518084526020808501808196508360051b810191508286016000805b868110156119f7578385038a52825180518087529087019087870190845b818110156119e25783516001600160a01b0316835292890192918901916001016119bd565b50509a87019a9550509185019160010161199f565b509298975050505050505050565b600081518084526020808501808196508360051b8101915082860160005b85811015611973578284038952611a3b84835161192b565b98850198935090840190600101611a23565b6001600160a01b03831681526040602082018190528251611a78918301906001600160a01b03169052565b60006020830151611a9460608401826001600160a01b03169052565b506040830151610100806080850152611ab16101408501836118ff565b91506060850151603f19808685030160a0870152611acf848361192b565b935060808701519150808685030160c0870152611aec848361192b565b935060a08701519150808685030160e0870152611b098483611980565b935060c08701519150808685030183870152611b25848361192b565b935060e0870151925080868503016101208701525050611b458282611a05565b9695505050505050565b60008060408385031215611b6257600080fd5b8251611b6d81610fd4565b6020840151909250611b7e81610fd4565b809150509250929050565b604081526000611b9c60408301856118ff565b905060018060a01b03831660208301529392505050565b600082821015611bc557611bc56118a1565b500390565b6001600160a01b03848116825283166020820152606060408201819052600090611bf690830184611834565b95945050505050565b602081526000610fcd602083018461192b565b60008251611c248184602087016118cf565b9190910192915050565b60006020808385031215611c4157600080fd5b82516001600160401b03811115611c5757600080fd5b8301601f81018513611c6857600080fd5b8051611c7661114882611104565b81815260059190911b82018301908381019087831115611c9557600080fd5b928401925b82841015611cbc578351611cad81610fd4565b82529284019290840190611c9a565b979650505050505050565b606081526000611cda6060830186611834565b8281036020840152611cec818661192b565b90508281036040840152611b458185611a05565b606081526000611d136060830186611834565b82810360208481019190915285518083528682019282019060005b81811015611d4a57845183529383019391830191600101611d2e565b50508481036040860152611d5e818761192b565b98975050505050505050565b604081526000611d7d604083018561192b565b8281036020840152611bf6818561198056fea26469706673582212206da257bcd1e0f59cb96779957d9aae60f7b6fefcedd69e961281ee880cbeb26b64736f6c634300080d0033",
  "devdoc": {
    "kind": "dev",
    "methods": {
      "createDAOAndModules(address,uint256,(address,address,string,string[],string[],address[][],string[],string[][]),(address,bytes[],uint256,uint256[],uint256)[],(uint256[],string[],string[][]),uint256[][])": {
        "params": {
          "createDAOParams": "The struct of parameters used for creating the DAO and Access Control contracts",
          "daoFactory": "The address of the DAO factory",
          "metaFactoryTempRoleIndex": "The index of which role specified in createDAOParams should be temporarily given to the MetaFactory",
          "moduleActionData": "Struct of functionDescs and roles to setup for each newly created module",
          "moduleFactoriesCallData": "The calldata required for each module factory call",
          "roleModuleMembers": "Array of which newly created modules should be given each role"
        },
        "returns": {
          "_0": "Array of addresses of the newly created modules"
        }
      },
      "supportsInterface(bytes4)": {
        "params": {
          "interfaceId": "An interface ID bytes4 as defined by ERC-165"
        },
        "returns": {
          "_0": "bool Indicates whether the interface is supported"
        }
      }
    },
    "version": 1
  },
  "userdoc": {
    "kind": "user",
    "methods": {
      "createDAOAndModules(address,uint256,(address,address,string,string[],string[],address[][],string[],string[][]),(address,bytes[],uint256,uint256[],uint256)[],(uint256[],string[],string[][]),uint256[][])": {
        "notice": "Creates a DAO, Access Control, and any modules specified"
      },
      "supportsInterface(bytes4)": {
        "notice": "Returns whether a given interface ID is supported"
      }
    },
    "notice": "A factory contract for deploying DAOs along with any desired modules within one transaction",
    "version": 1
  },
  "storageLayout": {
    "storage": [],
    "types": null
  }
}