{
  "address": "0xA0d8F88cF833566373832D85f208943C949EAd8d",
  "abi": [
    {
      "inputs": [
        {
          "internalType": "address",
          "name": "account",
          "type": "address"
        },
        {
          "internalType": "string",
          "name": "role",
          "type": "string"
        }
      ],
      "name": "MissingRole",
      "type": "error"
    },
    {
      "inputs": [],
      "name": "OnlySelfRenounce",
      "type": "error"
    },
    {
      "inputs": [],
      "name": "UnequalArrayLengths",
      "type": "error"
    },
    {
      "anonymous": false,
      "inputs": [
        {
          "indexed": false,
          "internalType": "address",
          "name": "target",
          "type": "address"
        },
        {
          "indexed": false,
          "internalType": "string",
          "name": "functionDesc",
          "type": "string"
        },
        {
          "indexed": false,
          "internalType": "bytes4",
          "name": "encodedSig",
          "type": "bytes4"
        },
        {
          "indexed": false,
          "internalType": "string",
          "name": "role",
          "type": "string"
        }
      ],
      "name": "ActionRoleAdded",
      "type": "event"
    },
    {
      "anonymous": false,
      "inputs": [
        {
          "indexed": false,
          "internalType": "address",
          "name": "target",
          "type": "address"
        },
        {
          "indexed": false,
          "internalType": "string",
          "name": "functionDesc",
          "type": "string"
        },
        {
          "indexed": false,
          "internalType": "bytes4",
          "name": "encodedSig",
          "type": "bytes4"
        },
        {
          "indexed": false,
          "internalType": "string",
          "name": "role",
          "type": "string"
        }
      ],
      "name": "ActionRoleRemoved",
      "type": "event"
    },
    {
      "anonymous": false,
      "inputs": [
        {
          "indexed": false,
          "internalType": "address",
          "name": "previousAdmin",
          "type": "address"
        },
        {
          "indexed": false,
          "internalType": "address",
          "name": "newAdmin",
          "type": "address"
        }
      ],
      "name": "AdminChanged",
      "type": "event"
    },
    {
      "anonymous": false,
      "inputs": [
        {
          "indexed": true,
          "internalType": "address",
          "name": "beacon",
          "type": "address"
        }
      ],
      "name": "BeaconUpgraded",
      "type": "event"
    },
    {
      "anonymous": false,
      "inputs": [
        {
          "indexed": false,
          "internalType": "string",
          "name": "role",
          "type": "string"
        },
        {
          "indexed": false,
          "internalType": "string",
          "name": "previousAdminRole",
          "type": "string"
        },
        {
          "indexed": false,
          "internalType": "string",
          "name": "adminRole",
          "type": "string"
        }
      ],
      "name": "RoleAdminChanged",
      "type": "event"
    },
    {
      "anonymous": false,
      "inputs": [
        {
          "indexed": false,
          "internalType": "string",
          "name": "role",
          "type": "string"
        },
        {
          "indexed": false,
          "internalType": "address",
          "name": "account",
          "type": "address"
        },
        {
          "indexed": false,
          "internalType": "address",
          "name": "admin",
          "type": "address"
        }
      ],
      "name": "RoleGranted",
      "type": "event"
    },
    {
      "anonymous": false,
      "inputs": [
        {
          "indexed": false,
          "internalType": "string",
          "name": "role",
          "type": "string"
        },
        {
          "indexed": false,
          "internalType": "address",
          "name": "account",
          "type": "address"
        },
        {
          "indexed": false,
          "internalType": "address",
          "name": "admin",
          "type": "address"
        }
      ],
      "name": "RoleRevoked",
      "type": "event"
    },
    {
      "anonymous": false,
      "inputs": [
        {
          "indexed": true,
          "internalType": "address",
          "name": "implementation",
          "type": "address"
        }
      ],
      "name": "Upgraded",
      "type": "event"
    },
    {
      "inputs": [],
      "name": "DAO_ROLE",
      "outputs": [
        {
          "internalType": "string",
          "name": "",
          "type": "string"
        }
      ],
      "stateMutability": "view",
      "type": "function"
    },
    {
      "inputs": [],
      "name": "OPEN_ROLE",
      "outputs": [
        {
          "internalType": "string",
          "name": "",
          "type": "string"
        }
      ],
      "stateMutability": "view",
      "type": "function"
    },
    {
      "inputs": [
        {
          "internalType": "address",
          "name": "caller",
          "type": "address"
        },
        {
          "internalType": "address",
          "name": "target",
          "type": "address"
        },
        {
          "internalType": "bytes4",
          "name": "sig",
          "type": "bytes4"
        }
      ],
      "name": "actionIsAuthorized",
      "outputs": [
        {
          "internalType": "bool",
          "name": "isAuthorized",
          "type": "bool"
        }
      ],
      "stateMutability": "view",
      "type": "function"
    },
    {
      "inputs": [
        {
          "internalType": "address[]",
          "name": "targets",
          "type": "address[]"
        },
        {
          "internalType": "string[]",
          "name": "functionDescs",
          "type": "string[]"
        },
        {
          "internalType": "string[][]",
          "name": "roles",
          "type": "string[][]"
        }
      ],
      "name": "addActionsRoles",
      "outputs": [],
      "stateMutability": "nonpayable",
      "type": "function"
    },
    {
      "inputs": [
        {
          "internalType": "address",
          "name": "target",
          "type": "address"
        },
        {
          "internalType": "string",
          "name": "functionDesc",
          "type": "string"
        }
      ],
      "name": "getActionRoles",
      "outputs": [
        {
          "internalType": "string[]",
          "name": "roles",
          "type": "string[]"
        }
      ],
      "stateMutability": "view",
      "type": "function"
    },
    {
      "inputs": [
        {
          "internalType": "string",
          "name": "role",
          "type": "string"
        }
      ],
      "name": "getRoleAdmin",
      "outputs": [
        {
          "internalType": "string",
          "name": "",
          "type": "string"
        }
      ],
      "stateMutability": "view",
      "type": "function"
    },
    {
      "inputs": [
        {
          "internalType": "string",
          "name": "role",
          "type": "string"
        },
        {
          "internalType": "address",
          "name": "account",
          "type": "address"
        }
      ],
      "name": "grantRole",
      "outputs": [],
      "stateMutability": "nonpayable",
      "type": "function"
    },
    {
      "inputs": [
        {
          "internalType": "string[]",
          "name": "roles",
          "type": "string[]"
        },
        {
          "internalType": "address[][]",
          "name": "members",
          "type": "address[][]"
        }
      ],
      "name": "grantRoles",
      "outputs": [],
      "stateMutability": "nonpayable",
      "type": "function"
    },
    {
      "inputs": [
        {
          "internalType": "string[]",
          "name": "roles",
          "type": "string[]"
        },
        {
          "internalType": "string[]",
          "name": "roleAdmins",
          "type": "string[]"
        },
        {
          "internalType": "address[][]",
          "name": "members",
          "type": "address[][]"
        }
      ],
      "name": "grantRolesAndAdmins",
      "outputs": [],
      "stateMutability": "nonpayable",
      "type": "function"
    },
    {
      "inputs": [
        {
          "internalType": "string",
          "name": "role",
          "type": "string"
        },
        {
          "internalType": "address",
          "name": "account",
          "type": "address"
        }
      ],
      "name": "hasRole",
      "outputs": [
        {
          "internalType": "bool",
          "name": "",
          "type": "bool"
        }
      ],
      "stateMutability": "view",
      "type": "function"
    },
    {
      "inputs": [
        {
          "internalType": "address",
          "name": "dao",
          "type": "address"
        },
        {
          "internalType": "string[]",
          "name": "roles",
          "type": "string[]"
        },
        {
          "internalType": "string[]",
          "name": "roleAdmins",
          "type": "string[]"
        },
        {
          "internalType": "address[][]",
          "name": "members",
          "type": "address[][]"
        },
        {
          "internalType": "address[]",
          "name": "targets",
          "type": "address[]"
        },
        {
          "internalType": "string[]",
          "name": "functionDescs",
          "type": "string[]"
        },
        {
          "internalType": "string[][]",
          "name": "actionRoles",
          "type": "string[][]"
        }
      ],
      "name": "initialize",
      "outputs": [],
      "stateMutability": "nonpayable",
      "type": "function"
    },
    {
      "inputs": [
        {
          "internalType": "string",
          "name": "role",
          "type": "string"
        },
        {
          "internalType": "address",
          "name": "target",
          "type": "address"
        },
        {
          "internalType": "string",
          "name": "functionDesc",
          "type": "string"
        }
      ],
      "name": "isRoleAuthorized",
      "outputs": [
        {
          "internalType": "bool",
          "name": "isAuthorized",
          "type": "bool"
        }
      ],
      "stateMutability": "view",
      "type": "function"
    },
    {
      "inputs": [],
      "name": "proxiableUUID",
      "outputs": [
        {
          "internalType": "bytes32",
          "name": "",
          "type": "bytes32"
        }
      ],
      "stateMutability": "view",
      "type": "function"
    },
    {
      "inputs": [
        {
          "internalType": "address[]",
          "name": "targets",
          "type": "address[]"
        },
        {
          "internalType": "string[]",
          "name": "functionDescs",
          "type": "string[]"
        },
        {
          "internalType": "string[][]",
          "name": "roles",
          "type": "string[][]"
        }
      ],
      "name": "removeActionsRoles",
      "outputs": [],
      "stateMutability": "nonpayable",
      "type": "function"
    },
    {
      "inputs": [
        {
          "internalType": "string",
          "name": "role",
          "type": "string"
        },
        {
          "internalType": "address",
          "name": "account",
          "type": "address"
        }
      ],
      "name": "renounceRole",
      "outputs": [],
      "stateMutability": "nonpayable",
      "type": "function"
    },
    {
      "inputs": [
        {
          "internalType": "string",
          "name": "role",
          "type": "string"
        },
        {
          "internalType": "address",
          "name": "account",
          "type": "address"
        }
      ],
      "name": "revokeRole",
      "outputs": [],
      "stateMutability": "nonpayable",
      "type": "function"
    },
    {
      "inputs": [
        {
          "internalType": "bytes4",
          "name": "interfaceId",
          "type": "bytes4"
        }
      ],
      "name": "supportsInterface",
      "outputs": [
        {
          "internalType": "bool",
          "name": "",
          "type": "bool"
        }
      ],
      "stateMutability": "view",
      "type": "function"
    },
    {
      "inputs": [
        {
          "internalType": "address",
          "name": "newImplementation",
          "type": "address"
        }
      ],
      "name": "upgradeTo",
      "outputs": [],
      "stateMutability": "nonpayable",
      "type": "function"
    },
    {
      "inputs": [
        {
          "internalType": "address",
          "name": "newImplementation",
          "type": "address"
        },
        {
          "internalType": "bytes",
          "name": "data",
          "type": "bytes"
        }
      ],
      "name": "upgradeToAndCall",
      "outputs": [],
      "stateMutability": "payable",
      "type": "function"
    }
  ],
  "transactionHash": "0xc064d84bce680ffc601602238c0573e68955bb4e517b744e54dc2243b633e312",
  "args": [],
  "numDeployments": 1,
  "solcInputHash": "7c087510166af52384ff6d255a6bb4fe",
  "bytecode": "0x60a06040523060805234801561001457600080fd5b5060805161285c61004c60003960008181610480015281816104c901528181610568015281816105a8015261063b015261285c6000f3fe6080604052600436106101145760003560e01c80636c9cd097116100a0578063c19ae2ed11610064578063c19ae2ed14610308578063cfb0a65914610328578063e9c2651814610355578063f9d68d8a14610389578063ff12fbd4146103a957600080fd5b80636c9cd097146102685780637033f43214610288578063731f21a0146102a8578063a1e6ab9f146102c8578063b4899480146102e857600080fd5b80634f1ef286116100e75780634f1ef286146101b057806352d1902d146101c3578063672a41a1146101e657806369cfb8ca146102135780636a928e8f1461023357600080fd5b806301ffc9a714610119578063049b15421461014e5780632359caf9146101705780633659cfe614610190575b600080fd5b34801561012557600080fd5b50610139610134366004611c8e565b6103c9565b60405190151581526020015b60405180910390f35b34801561015a57600080fd5b5061016e610169366004611f10565b610400565b005b34801561017c57600080fd5b5061016e61018b366004611f97565b61043c565b34801561019c57600080fd5b5061016e6101ab366004611ffa565b610476565b61016e6101be366004612015565b61055e565b3480156101cf57600080fd5b506101d861062e565b604051908152602001610145565b3480156101f257600080fd5b5061020661020136600461206c565b6106e1565b6040516101459190612100565b34801561021f57600080fd5b5061016e61022e366004612192565b610794565b34801561023f57600080fd5b50610206604051806040016040528060098152602001684f50454e5f524f4c4560b81b81525081565b34801561027457600080fd5b5061013961028336600461220f565b6107ca565b34801561029457600080fd5b506101396102a336600461225c565b610862565b3480156102b457600080fd5b5061016e6102c336600461220f565b610a1d565b3480156102d457600080fd5b5061016e6102e336600461220f565b610a3a565b3480156102f457600080fd5b5061016e610303366004612192565b610a6d565b34801561031457600080fd5b5061016e61032336600461220f565b610b9c565b34801561033457600080fd5b50610348610343366004612303565b610bb9565b6040516101459190612346565b34801561036157600080fd5b506102066040518060400160405280600881526020016744414f5f524f4c4560c01b81525081565b34801561039557600080fd5b5061016e6103a43660046123a8565b610cdf565b3480156103b557600080fd5b506101396103c43660046124ae565b610e32565b60006001600160e01b0319821663165a896760e31b14806103fa57506301ffc9a760e01b6001600160e01b03198316145b92915050565b6040518060400160405280600881526020016744414f5f524f4c4560c01b81525061042b8133610f7b565b610436848484610fa6565b50505050565b6040518060400160405280600881526020016744414f5f524f4c4560c01b8152506104678133610f7b565b61047183836110cb565b505050565b6001600160a01b037f00000000000000000000000000000000000000000000000000000000000000001630036104c75760405162461bcd60e51b81526004016104be906124f1565b60405180910390fd5b7f00000000000000000000000000000000000000000000000000000000000000006001600160a01b03166105106000805160206127e0833981519152546001600160a01b031690565b6001600160a01b0316146105365760405162461bcd60e51b81526004016104be9061253d565b61053f8161114b565b6040805160008082526020820190925261055b91839190611176565b50565b6001600160a01b037f00000000000000000000000000000000000000000000000000000000000000001630036105a65760405162461bcd60e51b81526004016104be906124f1565b7f00000000000000000000000000000000000000000000000000000000000000006001600160a01b03166105ef6000805160206127e0833981519152546001600160a01b031690565b6001600160a01b0316146106155760405162461bcd60e51b81526004016104be9061253d565b61061e8261114b565b61062a82826001611176565b5050565b6000306001600160a01b037f000000000000000000000000000000000000000000000000000000000000000016146106ce5760405162461bcd60e51b815260206004820152603860248201527f555550535570677261646561626c653a206d757374206e6f742062652063616c60448201527f6c6564207468726f7567682064656c656761746563616c6c000000000000000060648201526084016104be565b506000805160206127e083398151915290565b60606065826040516106f39190612589565b9081526020016040518091039020600101805461070f906125a5565b80601f016020809104026020016040519081016040528092919081815260200182805461073b906125a5565b80156107885780601f1061075d57610100808354040283529160200191610788565b820191906000526020600020905b81548152906001019060200180831161076b57829003601f168201915b50505050509050919050565b6040518060400160405280600881526020016744414f5f524f4c4560c01b8152506107bf8133610f7b565b6104368484846112e1565b6040805180820190915260098152684f50454e5f524f4c4560b81b6020918201528251908301206000907f105f9fac1d35665bc3683b5b0c275c6b11ccdc5700dc819da045f601cf314f5c01610822575060016103fa565b6065836040516108329190612589565b90815260408051602092819003830190206001600160a01b0385166000908152925290205460ff16905092915050565b600080826040516020016108769190612589565b60408051601f1981840301815282825280516020918201206001600160a01b0388166000908152606683528381206001600160e01b031983168252835283812080548085028701850190955284865291955093929091849084015b8282101561097d5783829060005260206000200180546108f0906125a5565b80601f016020809104026020016040519081016040528092919081815260200182805461091c906125a5565b80156109695780601f1061093e57610100808354040283529160200191610969565b820191906000526020600020905b81548152906001019060200180831161094c57829003601f168201915b5050505050815260200190600101906108d1565b5050825192935060009150505b81811015610a11578281815181106109a4576109a46125df565b60200260200101516040516020016109bc9190612589565b6040516020818303038152906040528051906020012089896040516020016109e59291906125f5565b6040516020818303038152906040528051906020012003610a095760019450610a11565b60010161098a565b50505050949350505050565b610a26826106e1565b610a308133610f7b565b61047183836113dd565b6001600160a01b0381163314610a635760405163d8e5629560e01b815260040160405180910390fd5b61062a82826113dd565b6040518060400160405280600881526020016744414f5f524f4c4560c01b815250610a988133610f7b565b8251845114610aba576040516311e86f7360e01b815260040160405180910390fd5b8151845114610adc576040516311e86f7360e01b815260040160405180910390fd5b835160005b81811015610b94576000848281518110610afd57610afd6125df565b602002602001015151905060005b81811015610b8a57610b82888481518110610b2857610b286125df565b6020026020010151888581518110610b4257610b426125df565b6020026020010151888681518110610b5c57610b5c6125df565b60200260200101518481518110610b7557610b756125df565b602002602001015161146f565b600101610b0b565b5050600101610ae1565b505050505050565b610ba5826106e1565b610baf8133610f7b565b61047183836116bf565b6060600082604051602001610bce9190612589565b60408051601f1981840301815282825280516020918201206001600160a01b0388166000908152606683528381206001600160e01b031983168252835283812080548085028701850190955284865291955090929184015b82821015610cd2578382906000526020600020018054610c45906125a5565b80601f0160208091040260200160405190810160405280929190818152602001828054610c71906125a5565b8015610cbe5780601f10610c9357610100808354040283529160200191610cbe565b820191906000526020600020905b815481529060010190602001808311610ca157829003601f168201915b505050505081526020019060010190610c26565b5050505091505092915050565b600054610100900460ff16610cfa5760005460ff1615610cfe565b303b155b610d615760405162461bcd60e51b815260206004820152602e60248201527f496e697469616c697a61626c653a20636f6e747261637420697320616c72656160448201526d191e481a5b9a5d1a585b1a5e995960921b60648201526084016104be565b600054610100900460ff16158015610d83576000805461ffff19166101011790555b85518751141580610d9657508451875114155b80610da357508251845114155b80610db057508251845114155b15610dce576040516311e86f7360e01b815260040160405180910390fd5b610df86040518060400160405280600881526020016744414f5f524f4c4560c01b815250896116bf565b610e03878787610fa6565b610e0e8484846112e1565b610e16611744565b8015610e28576000805461ff00191690555b5050505050505050565b6001600160a01b03821660009081526066602090815260408083206001600160e01b031985168452825280832080548251818502810185019093528083528493849084015b82821015610f23578382906000526020600020018054610e96906125a5565b80601f0160208091040260200160405190810160405280929190818152602001828054610ec2906125a5565b8015610f0f5780601f10610ee457610100808354040283529160200191610f0f565b820191906000526020600020905b815481529060010190602001808311610ef257829003601f168201915b505050505081526020019060010190610e77565b5050825192935060009150505b81811015610f7157610f5b838281518110610f4d57610f4d6125df565b6020026020010151886107ca565b15610f695760019350610f71565b600101610f30565b5050509392505050565b610f8582826107ca565b61062a57808260405163e76ed20960e01b81526004016104be929190612605565b8151835114610fc8576040516311e86f7360e01b815260040160405180910390fd5b8051835114610fea576040516311e86f7360e01b815260040160405180910390fd5b825160005b818110156110c45761103385828151811061100c5761100c6125df565b6020026020010151858381518110611026576110266125df565b60200260200101516117b1565b6000838281518110611047576110476125df565b602002602001015151905060005b818110156110ba576110b2878481518110611072576110726125df565b602002602001015186858151811061108c5761108c6125df565b602002602001015183815181106110a5576110a56125df565b60200260200101516116bf565b600101611055565b5050600101610fef565b5050505050565b80518251146110ed576040516311e86f7360e01b815260040160405180910390fd5b815160005b8181101561043657600083828151811061110e5761110e6125df565b602002602001015151905060005b8181101561114157611139868481518110611072576110726125df565b60010161111c565b50506001016110f2565b6040518060400160405280600881526020016744414f5f524f4c4560c01b81525061062a8133610f7b565b7f4910fdfa16fed3260ed0e7147f7cc6da11a60208b5b9406d12a635614ffd91435460ff16156111a95761047183611834565b826001600160a01b03166352d1902d6040518163ffffffff1660e01b8152600401602060405180830381865afa925050508015611203575060408051601f3d908101601f1916820190925261120091810190612629565b60015b6112665760405162461bcd60e51b815260206004820152602e60248201527f45524331393637557067726164653a206e657720696d706c656d656e7461746960448201526d6f6e206973206e6f74205555505360901b60648201526084016104be565b6000805160206127e083398151915281146112d55760405162461bcd60e51b815260206004820152602960248201527f45524331393637557067726164653a20756e737570706f727465642070726f786044820152681a58589b195555525160ba1b60648201526084016104be565b506104718383836118d0565b8151835114611303576040516311e86f7360e01b815260040160405180910390fd5b8051835114611325576040516311e86f7360e01b815260040160405180910390fd5b825160005b818110156110c4576000838281518110611346576113466125df565b602002602001015151905060005b818110156113d3576113cb878481518110611371576113716125df565b602002602001015187858151811061138b5761138b6125df565b60200260200101518786815181106113a5576113a56125df565b602002602001015184815181106113be576113be6125df565b60200260200101516118f5565b600101611354565b505060010161132a565b6113e782826107ca565b1561062a5760006065836040516113fe9190612589565b90815260408051602092819003830181206001600160a01b038616600090815293529120805460ff1916921515929092179091557ff3a2b91552b535c273a48d8b7453c8b0b287e20e51d74121eb50d975dbaa506d9061146390849084903390612642565b60405180910390a15050565b6000826040516020016114829190612589565b60408051601f1981840301815291815281516020928301206001600160a01b0387166000908152606684528281206001600160e01b03198316825290935290822054909250905b81811015610b9457836040516020016114e29190612589565b60408051601f1981840301815291815281516020928301206001600160a01b0389166000908152606684528281206001600160e01b0319881682529093529120805483908110611534576115346125df565b9060005260206000200160405160200161154e9190612675565b60405160208183030381529060405280519060200120036116b7576001600160a01b03861660009081526066602090815260408083206001600160e01b03198716845290915290206115a1600184612710565b815481106115b1576115b16125df565b600091825260208083206001600160a01b038a1684526066825260408085206001600160e01b031989168652909252922080549290910191839081106115f9576115f96125df565b9060005260206000200190805461160f906125a5565b61161a929190611b23565b506001600160a01b03861660009081526066602090815260408083206001600160e01b031987168452909152902080548061165757611657612735565b6001900381819060005260206000200160006116739190611bae565b90557fa5e6b7a93ed253db6d2a06b5188982d74e373c1b7ef9ad991c6b619c2add4d22868685876040516116aa949392919061274b565b60405180910390a1610b94565b6001016114c9565b6116c982826107ca565b61062a5760016065836040516116df9190612589565b90815260408051602092819003830181206001600160a01b038616600090815293529120805460ff1916921515929092179091557fe0ca4f6d52d59033a91ab89e93c98f9acada14e0086d8b1038284f42e6d532579061146390849084903390612642565b600054610100900460ff166117af5760405162461bcd60e51b815260206004820152602b60248201527f496e697469616c697a61626c653a20636f6e7472616374206973206e6f74206960448201526a6e697469616c697a696e6760a81b60648201526084016104be565b565b60006117bc836106e1565b9050816065846040516117cf9190612589565b908152602001604051809103902060010190805190602001906117f3929190611be8565b507ffaadb760342a16b35af55a84cf4830682730345e7808265fdaa03ad9e47a335e8382846040516118279392919061279c565b60405180910390a1505050565b6001600160a01b0381163b6118a15760405162461bcd60e51b815260206004820152602d60248201527f455243313936373a206e657720696d706c656d656e746174696f6e206973206e60448201526c1bdd08184818dbdb9d1c9858dd609a1b60648201526084016104be565b6000805160206127e083398151915280546001600160a01b0319166001600160a01b0392909216919091179055565b6118d9836119af565b6000825111806118e65750805b156104715761043683836119ef565b6000826040516020016119089190612589565b60408051601f1981840301815291815281516020928301206001600160a01b0387166000908152606684528281206001600160e01b0319831682528452918220805460018101825590835291839020855191945061196b93920191850190611be8565b507fb8b75e5cd091bf22489bd28795bbe9e9fc969f14231a8172a0048223d4b7a4aa848483856040516119a1949392919061274b565b60405180910390a150505050565b6119b881611834565b6040516001600160a01b038216907fbc7cd75a20ee27fd9adebab32041f755214dbc6bffa90cc0225b39da2e5c2d3b90600090a250565b60606001600160a01b0383163b611a575760405162461bcd60e51b815260206004820152602660248201527f416464726573733a2064656c65676174652063616c6c20746f206e6f6e2d636f6044820152651b9d1c9858dd60d21b60648201526084016104be565b600080846001600160a01b031684604051611a729190612589565b600060405180830381855af49150503d8060008114611aad576040519150601f19603f3d011682016040523d82523d6000602084013e611ab2565b606091505b5091509150611ada828260405180606001604052806027815260200161280060279139611ae3565b95945050505050565b60608315611af2575081611b1c565b825115611b025782518084602001fd5b8160405162461bcd60e51b81526004016104be9190612100565b9392505050565b828054611b2f906125a5565b90600052602060002090601f016020900481019282611b515760008555611b9e565b82601f10611b625780548555611b9e565b82800160010185558215611b9e57600052602060002091601f016020900482015b82811115611b9e578254825591600101919060010190611b83565b50611baa929150611c5c565b5090565b508054611bba906125a5565b6000825580601f10611bca575050565b601f01602090049060005260206000209081019061055b9190611c5c565b828054611bf4906125a5565b90600052602060002090601f016020900481019282611c165760008555611b9e565b82601f10611c2f57805160ff1916838001178555611b9e565b82800160010185558215611b9e579182015b82811115611b9e578251825591602001919060010190611c41565b5b80821115611baa5760008155600101611c5d565b80356001600160e01b031981168114611c8957600080fd5b919050565b600060208284031215611ca057600080fd5b611b1c82611c71565b634e487b7160e01b600052604160045260246000fd5b604051601f8201601f191681016001600160401b0381118282101715611ce757611ce7611ca9565b604052919050565b60006001600160401b03821115611d0857611d08611ca9565b5060051b60200190565b60006001600160401b03831115611d2b57611d2b611ca9565b611d3e601f8401601f1916602001611cbf565b9050828152838383011115611d5257600080fd5b828260208301376000602084830101529392505050565b600082601f830112611d7a57600080fd5b611b1c83833560208501611d12565b600082601f830112611d9a57600080fd5b81356020611daf611daa83611cef565b611cbf565b82815260059290921b84018101918181019086841115611dce57600080fd5b8286015b84811015611e0d5780356001600160401b03811115611df15760008081fd5b611dff8986838b0101611d69565b845250918301918301611dd2565b509695505050505050565b80356001600160a01b0381168114611c8957600080fd5b600082601f830112611e4057600080fd5b81356020611e50611daa83611cef565b82815260059290921b84018101918181019086841115611e6f57600080fd5b8286015b84811015611e0d57611e8481611e18565b8352918301918301611e73565b600082601f830112611ea257600080fd5b81356020611eb2611daa83611cef565b82815260059290921b84018101918181019086841115611ed157600080fd5b8286015b84811015611e0d5780356001600160401b03811115611ef45760008081fd5b611f028986838b0101611e2f565b845250918301918301611ed5565b600080600060608486031215611f2557600080fd5b83356001600160401b0380821115611f3c57600080fd5b611f4887838801611d89565b94506020860135915080821115611f5e57600080fd5b611f6a87838801611d89565b93506040860135915080821115611f8057600080fd5b50611f8d86828701611e91565b9150509250925092565b60008060408385031215611faa57600080fd5b82356001600160401b0380821115611fc157600080fd5b611fcd86838701611d89565b93506020850135915080821115611fe357600080fd5b50611ff085828601611e91565b9150509250929050565b60006020828403121561200c57600080fd5b611b1c82611e18565b6000806040838503121561202857600080fd5b61203183611e18565b915060208301356001600160401b0381111561204c57600080fd5b8301601f8101851361205d57600080fd5b611ff085823560208401611d12565b60006020828403121561207e57600080fd5b81356001600160401b0381111561209457600080fd5b6120a084828501611d69565b949350505050565b60005b838110156120c35781810151838201526020016120ab565b838111156104365750506000910152565b600081518084526120ec8160208601602086016120a8565b601f01601f19169290920160200192915050565b602081526000611b1c60208301846120d4565b600082601f83011261212457600080fd5b81356020612134611daa83611cef565b82815260059290921b8401810191818101908684111561215357600080fd5b8286015b84811015611e0d5780356001600160401b038111156121765760008081fd5b6121848986838b0101611d89565b845250918301918301612157565b6000806000606084860312156121a757600080fd5b83356001600160401b03808211156121be57600080fd5b6121ca87838801611e2f565b945060208601359150808211156121e057600080fd5b6121ec87838801611d89565b9350604086013591508082111561220257600080fd5b50611f8d86828701612113565b6000806040838503121561222257600080fd5b82356001600160401b0381111561223857600080fd5b61224485828601611d69565b92505061225360208401611e18565b90509250929050565b6000806000806060858703121561227257600080fd5b84356001600160401b038082111561228957600080fd5b818701915087601f83011261229d57600080fd5b8135818111156122ac57600080fd5b8860208285010111156122be57600080fd5b602083019650809550506122d460208801611e18565b935060408701359150808211156122ea57600080fd5b506122f787828801611d69565b91505092959194509250565b6000806040838503121561231657600080fd5b61231f83611e18565b915060208301356001600160401b0381111561233a57600080fd5b611ff085828601611d69565b6000602080830181845280855180835260408601915060408160051b870101925083870160005b8281101561239b57603f198886030184526123898583516120d4565b9450928501929085019060010161236d565b5092979650505050505050565b600080600080600080600060e0888a0312156123c357600080fd5b6123cc88611e18565b965060208801356001600160401b03808211156123e857600080fd5b6123f48b838c01611d89565b975060408a013591508082111561240a57600080fd5b6124168b838c01611d89565b965060608a013591508082111561242c57600080fd5b6124388b838c01611e91565b955060808a013591508082111561244e57600080fd5b61245a8b838c01611e2f565b945060a08a013591508082111561247057600080fd5b61247c8b838c01611d89565b935060c08a013591508082111561249257600080fd5b5061249f8a828b01612113565b91505092959891949750929550565b6000806000606084860312156124c357600080fd5b6124cc84611e18565b92506124da60208501611e18565b91506124e860408501611c71565b90509250925092565b6020808252602c908201527f46756e6374696f6e206d7573742062652063616c6c6564207468726f7567682060408201526b19195b1959d85d1958d85b1b60a21b606082015260800190565b6020808252602c908201527f46756e6374696f6e206d7573742062652063616c6c6564207468726f7567682060408201526b6163746976652070726f787960a01b606082015260800190565b6000825161259b8184602087016120a8565b9190910192915050565b600181811c908216806125b957607f821691505b6020821081036125d957634e487b7160e01b600052602260045260246000fd5b50919050565b634e487b7160e01b600052603260045260246000fd5b8183823760009101908152919050565b6001600160a01b03831681526040602082018190526000906120a0908301846120d4565b60006020828403121561263b57600080fd5b5051919050565b60608152600061265560608301866120d4565b6001600160a01b0394851660208401529290931660409091015292915050565b600080835481600182811c91508083168061269157607f831692505b602080841082036126b057634e487b7160e01b86526022600452602486fd5b8180156126c457600181146126d557612702565b60ff19861689528489019650612702565b60008a81526020902060005b868110156126fa5781548b8201529085019083016126e1565b505084890196505b509498975050505050505050565b60008282101561273057634e487b7160e01b600052601160045260246000fd5b500390565b634e487b7160e01b600052603160045260246000fd5b6001600160a01b038516815260806020820181905260009061276f908301866120d4565b6001600160e01b031985166040840152828103606084015261279181856120d4565b979650505050505050565b6060815260006127af60608301866120d4565b82810360208401526127c181866120d4565b905082810360408401526127d581856120d4565b969550505050505056fe360894a13ba1a3210667c828492db98dca3e2076cc3735a920a3ca505d382bbc416464726573733a206c6f772d6c6576656c2064656c65676174652063616c6c206661696c6564a264697066735822122061fc4490f0da8e6f1ff283d36fc3feb281909186f46e7be3c299836915e9d70664736f6c634300080d0033",
  "devdoc": {
    "kind": "dev",
    "methods": {
      "actionIsAuthorized(address,address,bytes4)": {
        "params": {
          "caller": "Address attempting to execute the action",
          "sig": "The function signature used to define the action",
          "target": "Contract address corresponding to the action"
        }
      },
      "addActionsRoles(address[],string[],string[][])": {
        "params": {
          "functionDescs": "The function descriptions used to define the actions",
          "roles": "Roles being granted permission for an action",
          "targets": "The contract addresses that the action functions are implemented on"
        }
      },
      "getActionRoles(address,string)": {
        "params": {
          "functionDesc": "The function description used to define the action",
          "target": "Contract address corresponding to the action"
        }
      },
      "getRoleAdmin(string)": {
        "params": {
          "role": "Role that the admin role is being returned for"
        },
        "returns": {
          "_0": "string The admin role of the specified role"
        }
      },
      "grantRole(string,address)": {
        "params": {
          "account": "The address being granted the specified role",
          "role": "The role being granted"
        }
      },
      "grantRoles(string[],address[][])": {
        "params": {
          "members": "Addresses being granted each specified role",
          "roles": "The roles being granted"
        }
      },
      "grantRolesAndAdmins(string[],string[],address[][])": {
        "params": {
          "members": "Addresses being granted each specified role",
          "roleAdmins": "The roles being granted as admins of the specified of roles",
          "roles": "The roles being granted"
        }
      },
      "hasRole(string,address)": {
        "params": {
          "account": "Address that the role authorization is being check on",
          "role": "Role that authorization is being checked on"
        },
        "returns": {
          "_0": "boolean Indicates whether the address has been granted the role"
        }
      },
      "initialize(address,string[],string[],address[][],address[],string[],string[][])": {
        "params": {
          "actionRoles": "Roles being granted permission for an action",
          "dao": "Address to receive DAO role",
          "functionDescs": "Function descriptions used to define actions",
          "members": "Addresses to be granted the specified roles",
          "roleAdmins": "Roles which have the ability to remove or add members",
          "roles": "What permissions are assigned to",
          "targets": "Contract addresses for actions to be defined on"
        }
      },
      "isRoleAuthorized(string,address,string)": {
        "params": {
          "functionDesc": "Function description used to define the action",
          "role": "Role that authorization is being checked on",
          "target": "Contract address corresponding to the action"
        },
        "returns": {
          "isAuthorized": "Indicates whether the role is authorized to execute the action"
        }
      },
      "proxiableUUID()": {
        "details": "Implementation of the ERC1822 {proxiableUUID} function. This returns the storage slot used by the implementation. It is used to validate that the this implementation remains valid after an upgrade. IMPORTANT: A proxy pointing at a proxiable contract should not be considered proxiable itself, because this risks bricking a proxy that upgrades to it, by delegating to itself until out of gas. Thus it is critical that this function revert if invoked through a proxy. This is guaranteed by the `notDelegated` modifier."
      },
      "removeActionsRoles(address[],string[],string[][])": {
        "params": {
          "functionDescs": "The function description used to define the actions",
          "roles": "Roles that action permissions are being removed on",
          "targets": "The contract addresses that the action functions are implemented on"
        }
      },
      "renounceRole(string,address)": {
        "params": {
          "account": "The address renouncing the role",
          "role": "The role being renounced"
        }
      },
      "revokeRole(string,address)": {
        "params": {
          "account": "The address the role is being revoked from",
          "role": "The role being revoked"
        }
      },
      "supportsInterface(bytes4)": {
        "params": {
          "interfaceId": "An interface ID bytes4 as defined by ERC-165"
        },
        "returns": {
          "_0": "bool Indicates whether the interface is supported"
        }
      },
      "upgradeTo(address)": {
        "details": "Upgrade the implementation of the proxy to `newImplementation`. Calls {_authorizeUpgrade}. Emits an {Upgraded} event."
      },
      "upgradeToAndCall(address,bytes)": {
        "details": "Upgrade the implementation of the proxy to `newImplementation`, and subsequently execute the function call encoded in `data`. Calls {_authorizeUpgrade}. Emits an {Upgraded} event."
      }
    },
    "stateVariables": {
      "DAO_ROLE": {
        "return": "string The string \"DAO_ROLE\"",
        "returns": {
          "_0": "string The string \"DAO_ROLE\""
        }
      }
    },
    "title": "Access Control",
    "version": 1
  },
  "userdoc": {
    "kind": "user",
    "methods": {
      "actionIsAuthorized(address,address,bytes4)": {
        "notice": "Checks if a caller has the permissions to execute the specific action"
      },
      "addActionsRoles(address[],string[],string[][])": {
        "notice": "Authorizes roles to execute the specified actions"
      },
      "getActionRoles(address,string)": {
        "notice": "Returns the roles autorized to execute the specified action"
      },
      "getRoleAdmin(string)": {
        "notice": "Returns the role that is the admin of the specified role"
      },
      "grantRole(string,address)": {
        "notice": "Grants a role to the specified address"
      },
      "grantRoles(string[],address[][])": {
        "notice": "Grants roles to the specified addresses"
      },
      "grantRolesAndAdmins(string[],string[],address[][])": {
        "notice": "Grants roles to the specified addresses and defines admin roles"
      },
      "hasRole(string,address)": {
        "notice": "Returns whether the account has been granted the role"
      },
      "initialize(address,string[],string[],address[][],address[],string[],string[][])": {
        "notice": "Initialize DAO action and role permissions"
      },
      "isRoleAuthorized(string,address,string)": {
        "notice": "Checks if a specific role is authorized for an action"
      },
      "removeActionsRoles(address[],string[],string[][])": {
        "notice": "Removes autorization for roles to execute the specified actions"
      },
      "renounceRole(string,address)": {
        "notice": "Enables an address to remove one of its own roles"
      },
      "revokeRole(string,address)": {
        "notice": "Revokes a role from the specified address"
      },
      "supportsInterface(bytes4)": {
        "notice": "Returns whether a given interface ID is supported"
      }
    },
    "notice": "Use this contract for managing DAO role based permissions",
    "version": 1
  },
  "storageLayout": {
    "storage": [
      {
        "astId": 395,
        "contract": "contracts/AccessControlDAO.sol:AccessControlDAO",
        "label": "_initialized",
        "offset": 0,
        "slot": "0",
        "type": "t_bool"
      },
      {
        "astId": 398,
        "contract": "contracts/AccessControlDAO.sol:AccessControlDAO",
        "label": "_initializing",
        "offset": 1,
        "slot": "0",
        "type": "t_bool"
      },
      {
        "astId": 377,
        "contract": "contracts/AccessControlDAO.sol:AccessControlDAO",
        "label": "__gap",
        "offset": 0,
        "slot": "1",
        "type": "t_array(t_uint256)50_storage"
      },
      {
        "astId": 597,
        "contract": "contracts/AccessControlDAO.sol:AccessControlDAO",
        "label": "__gap",
        "offset": 0,
        "slot": "51",
        "type": "t_array(t_uint256)50_storage"
      },
      {
        "astId": 2366,
        "contract": "contracts/AccessControlDAO.sol:AccessControlDAO",
        "label": "_roles",
        "offset": 0,
        "slot": "101",
        "type": "t_mapping(t_string_memory_ptr,t_struct(RoleData)3970_storage)"
      },
      {
        "astId": 2373,
        "contract": "contracts/AccessControlDAO.sol:AccessControlDAO",
        "label": "_actionsToRoles",
        "offset": 0,
        "slot": "102",
        "type": "t_mapping(t_address,t_mapping(t_bytes4,t_array(t_string_storage)dyn_storage))"
      }
    ],
    "types": {
      "t_address": {
        "encoding": "inplace",
        "label": "address",
        "numberOfBytes": "20"
      },
      "t_array(t_string_storage)dyn_storage": {
        "base": "t_string_storage",
        "encoding": "dynamic_array",
        "label": "string[]",
        "numberOfBytes": "32"
      },
      "t_array(t_uint256)50_storage": {
        "base": "t_uint256",
        "encoding": "inplace",
        "label": "uint256[50]",
        "numberOfBytes": "1600"
      },
      "t_bool": {
        "encoding": "inplace",
        "label": "bool",
        "numberOfBytes": "1"
      },
      "t_bytes4": {
        "encoding": "inplace",
        "label": "bytes4",
        "numberOfBytes": "4"
      },
      "t_mapping(t_address,t_bool)": {
        "encoding": "mapping",
        "key": "t_address",
        "label": "mapping(address => bool)",
        "numberOfBytes": "32",
        "value": "t_bool"
      },
      "t_mapping(t_address,t_mapping(t_bytes4,t_array(t_string_storage)dyn_storage))": {
        "encoding": "mapping",
        "key": "t_address",
        "label": "mapping(address => mapping(bytes4 => string[]))",
        "numberOfBytes": "32",
        "value": "t_mapping(t_bytes4,t_array(t_string_storage)dyn_storage)"
      },
      "t_mapping(t_bytes4,t_array(t_string_storage)dyn_storage)": {
        "encoding": "mapping",
        "key": "t_bytes4",
        "label": "mapping(bytes4 => string[])",
        "numberOfBytes": "32",
        "value": "t_array(t_string_storage)dyn_storage"
      },
      "t_mapping(t_string_memory_ptr,t_struct(RoleData)3970_storage)": {
        "encoding": "mapping",
        "key": "t_string_memory_ptr",
        "label": "mapping(string => struct IAccessControlDAO.RoleData)",
        "numberOfBytes": "32",
        "value": "t_struct(RoleData)3970_storage"
      },
      "t_string_memory_ptr": {
        "encoding": "bytes",
        "label": "string",
        "numberOfBytes": "32"
      },
      "t_string_storage": {
        "encoding": "bytes",
        "label": "string",
        "numberOfBytes": "32"
      },
      "t_struct(RoleData)3970_storage": {
        "encoding": "inplace",
        "label": "struct IAccessControlDAO.RoleData",
        "members": [
          {
            "astId": 3967,
            "contract": "contracts/AccessControlDAO.sol:AccessControlDAO",
            "label": "members",
            "offset": 0,
            "slot": "0",
            "type": "t_mapping(t_address,t_bool)"
          },
          {
            "astId": 3969,
            "contract": "contracts/AccessControlDAO.sol:AccessControlDAO",
            "label": "adminRole",
            "offset": 0,
            "slot": "1",
            "type": "t_string_storage"
          }
        ],
        "numberOfBytes": "64"
      },
      "t_uint256": {
        "encoding": "inplace",
        "label": "uint256",
        "numberOfBytes": "32"
      }
    }
  }
}