{
  "address": "0x8f33FD3f166BF7F89FBd657E2ff42EA4D48B8684",
  "abi": [
    {
      "inputs": [
        {
          "internalType": "address",
          "name": "account",
          "type": "address"
        },
        {
          "internalType": "string",
          "name": "role",
          "type": "string"
        }
      ],
      "name": "MissingRole",
      "type": "error"
    },
    {
      "inputs": [],
      "name": "OnlySelfRenounce",
      "type": "error"
    },
    {
      "inputs": [],
      "name": "UnequalArrayLengths",
      "type": "error"
    },
    {
      "anonymous": false,
      "inputs": [
        {
          "indexed": false,
          "internalType": "address",
          "name": "target",
          "type": "address"
        },
        {
          "indexed": false,
          "internalType": "string",
          "name": "functionDesc",
          "type": "string"
        },
        {
          "indexed": false,
          "internalType": "bytes4",
          "name": "encodedSig",
          "type": "bytes4"
        },
        {
          "indexed": false,
          "internalType": "string",
          "name": "role",
          "type": "string"
        }
      ],
      "name": "ActionRoleAdded",
      "type": "event"
    },
    {
      "anonymous": false,
      "inputs": [
        {
          "indexed": false,
          "internalType": "address",
          "name": "target",
          "type": "address"
        },
        {
          "indexed": false,
          "internalType": "string",
          "name": "functionDesc",
          "type": "string"
        },
        {
          "indexed": false,
          "internalType": "bytes4",
          "name": "encodedSig",
          "type": "bytes4"
        },
        {
          "indexed": false,
          "internalType": "string",
          "name": "role",
          "type": "string"
        }
      ],
      "name": "ActionRoleRemoved",
      "type": "event"
    },
    {
      "anonymous": false,
      "inputs": [
        {
          "indexed": false,
          "internalType": "address",
          "name": "previousAdmin",
          "type": "address"
        },
        {
          "indexed": false,
          "internalType": "address",
          "name": "newAdmin",
          "type": "address"
        }
      ],
      "name": "AdminChanged",
      "type": "event"
    },
    {
      "anonymous": false,
      "inputs": [
        {
          "indexed": true,
          "internalType": "address",
          "name": "beacon",
          "type": "address"
        }
      ],
      "name": "BeaconUpgraded",
      "type": "event"
    },
    {
      "anonymous": false,
      "inputs": [
        {
          "indexed": false,
          "internalType": "string",
          "name": "role",
          "type": "string"
        },
        {
          "indexed": false,
          "internalType": "string",
          "name": "previousAdminRole",
          "type": "string"
        },
        {
          "indexed": false,
          "internalType": "string",
          "name": "adminRole",
          "type": "string"
        }
      ],
      "name": "RoleAdminChanged",
      "type": "event"
    },
    {
      "anonymous": false,
      "inputs": [
        {
          "indexed": false,
          "internalType": "string",
          "name": "role",
          "type": "string"
        },
        {
          "indexed": false,
          "internalType": "address",
          "name": "account",
          "type": "address"
        },
        {
          "indexed": false,
          "internalType": "address",
          "name": "admin",
          "type": "address"
        }
      ],
      "name": "RoleGranted",
      "type": "event"
    },
    {
      "anonymous": false,
      "inputs": [
        {
          "indexed": false,
          "internalType": "string",
          "name": "role",
          "type": "string"
        },
        {
          "indexed": false,
          "internalType": "address",
          "name": "account",
          "type": "address"
        },
        {
          "indexed": false,
          "internalType": "address",
          "name": "admin",
          "type": "address"
        }
      ],
      "name": "RoleRevoked",
      "type": "event"
    },
    {
      "anonymous": false,
      "inputs": [
        {
          "indexed": true,
          "internalType": "address",
          "name": "implementation",
          "type": "address"
        }
      ],
      "name": "Upgraded",
      "type": "event"
    },
    {
      "inputs": [],
      "name": "DAO_ROLE",
      "outputs": [
        {
          "internalType": "string",
          "name": "",
          "type": "string"
        }
      ],
      "stateMutability": "view",
      "type": "function"
    },
    {
      "inputs": [],
      "name": "OPEN_ROLE",
      "outputs": [
        {
          "internalType": "string",
          "name": "",
          "type": "string"
        }
      ],
      "stateMutability": "view",
      "type": "function"
    },
    {
      "inputs": [
        {
          "internalType": "address",
          "name": "caller",
          "type": "address"
        },
        {
          "internalType": "address",
          "name": "target",
          "type": "address"
        },
        {
          "internalType": "bytes4",
          "name": "sig",
          "type": "bytes4"
        }
      ],
      "name": "actionIsAuthorized",
      "outputs": [
        {
          "internalType": "bool",
          "name": "isAuthorized",
          "type": "bool"
        }
      ],
      "stateMutability": "view",
      "type": "function"
    },
    {
      "inputs": [
        {
          "internalType": "string",
          "name": "role",
          "type": "string"
        },
        {
          "internalType": "address",
          "name": "account",
          "type": "address"
        }
      ],
      "name": "adminGrantRole",
      "outputs": [],
      "stateMutability": "nonpayable",
      "type": "function"
    },
    {
      "inputs": [
        {
          "internalType": "string",
          "name": "role",
          "type": "string"
        },
        {
          "internalType": "address",
          "name": "account",
          "type": "address"
        }
      ],
      "name": "adminRevokeRole",
      "outputs": [],
      "stateMutability": "nonpayable",
      "type": "function"
    },
    {
      "inputs": [
        {
          "internalType": "address[]",
          "name": "targets",
          "type": "address[]"
        },
        {
          "internalType": "string[]",
          "name": "functionDescs",
          "type": "string[]"
        },
        {
          "internalType": "string[][]",
          "name": "roles",
          "type": "string[][]"
        }
      ],
      "name": "daoAddActionsRoles",
      "outputs": [],
      "stateMutability": "nonpayable",
      "type": "function"
    },
    {
      "inputs": [
        {
          "internalType": "string[]",
          "name": "roles",
          "type": "string[]"
        },
        {
          "internalType": "address[][]",
          "name": "members",
          "type": "address[][]"
        }
      ],
      "name": "daoGrantRoles",
      "outputs": [],
      "stateMutability": "nonpayable",
      "type": "function"
    },
    {
      "inputs": [
        {
          "internalType": "string[]",
          "name": "roles",
          "type": "string[]"
        },
        {
          "internalType": "string[]",
          "name": "roleAdmins",
          "type": "string[]"
        },
        {
          "internalType": "address[][]",
          "name": "members",
          "type": "address[][]"
        }
      ],
      "name": "daoGrantRolesAndAdmins",
      "outputs": [],
      "stateMutability": "nonpayable",
      "type": "function"
    },
    {
      "inputs": [
        {
          "internalType": "address[]",
          "name": "targets",
          "type": "address[]"
        },
        {
          "internalType": "string[]",
          "name": "functionDescs",
          "type": "string[]"
        },
        {
          "internalType": "string[][]",
          "name": "roles",
          "type": "string[][]"
        }
      ],
      "name": "daoRemoveActionsRoles",
      "outputs": [],
      "stateMutability": "nonpayable",
      "type": "function"
    },
    {
      "inputs": [
        {
          "internalType": "address",
          "name": "target",
          "type": "address"
        },
        {
          "internalType": "string",
          "name": "functionDesc",
          "type": "string"
        }
      ],
      "name": "getActionRoles",
      "outputs": [
        {
          "internalType": "string[]",
          "name": "roles",
          "type": "string[]"
        }
      ],
      "stateMutability": "view",
      "type": "function"
    },
    {
      "inputs": [
        {
          "internalType": "string",
          "name": "role",
          "type": "string"
        }
      ],
      "name": "getRoleAdmin",
      "outputs": [
        {
          "internalType": "string",
          "name": "",
          "type": "string"
        }
      ],
      "stateMutability": "view",
      "type": "function"
    },
    {
      "inputs": [
        {
          "internalType": "string",
          "name": "role",
          "type": "string"
        },
        {
          "internalType": "address",
          "name": "account",
          "type": "address"
        }
      ],
      "name": "hasRole",
      "outputs": [
        {
          "internalType": "bool",
          "name": "",
          "type": "bool"
        }
      ],
      "stateMutability": "view",
      "type": "function"
    },
    {
      "inputs": [
        {
          "internalType": "address",
          "name": "dao",
          "type": "address"
        },
        {
          "internalType": "string[]",
          "name": "roles",
          "type": "string[]"
        },
        {
          "internalType": "string[]",
          "name": "roleAdmins",
          "type": "string[]"
        },
        {
          "internalType": "address[][]",
          "name": "members",
          "type": "address[][]"
        },
        {
          "internalType": "address[]",
          "name": "targets",
          "type": "address[]"
        },
        {
          "internalType": "string[]",
          "name": "functionDescs",
          "type": "string[]"
        },
        {
          "internalType": "string[][]",
          "name": "actionRoles",
          "type": "string[][]"
        }
      ],
      "name": "initialize",
      "outputs": [],
      "stateMutability": "nonpayable",
      "type": "function"
    },
    {
      "inputs": [
        {
          "internalType": "string",
          "name": "role",
          "type": "string"
        },
        {
          "internalType": "address",
          "name": "target",
          "type": "address"
        },
        {
          "internalType": "string",
          "name": "functionDesc",
          "type": "string"
        }
      ],
      "name": "isRoleAuthorized",
      "outputs": [
        {
          "internalType": "bool",
          "name": "isAuthorized",
          "type": "bool"
        }
      ],
      "stateMutability": "view",
      "type": "function"
    },
    {
      "inputs": [],
      "name": "proxiableUUID",
      "outputs": [
        {
          "internalType": "bytes32",
          "name": "",
          "type": "bytes32"
        }
      ],
      "stateMutability": "view",
      "type": "function"
    },
    {
      "inputs": [
        {
          "internalType": "bytes4",
          "name": "interfaceId",
          "type": "bytes4"
        }
      ],
      "name": "supportsInterface",
      "outputs": [
        {
          "internalType": "bool",
          "name": "",
          "type": "bool"
        }
      ],
      "stateMutability": "view",
      "type": "function"
    },
    {
      "inputs": [
        {
          "internalType": "address",
          "name": "newImplementation",
          "type": "address"
        }
      ],
      "name": "upgradeTo",
      "outputs": [],
      "stateMutability": "nonpayable",
      "type": "function"
    },
    {
      "inputs": [
        {
          "internalType": "address",
          "name": "newImplementation",
          "type": "address"
        },
        {
          "internalType": "bytes",
          "name": "data",
          "type": "bytes"
        }
      ],
      "name": "upgradeToAndCall",
      "outputs": [],
      "stateMutability": "payable",
      "type": "function"
    },
    {
      "inputs": [
        {
          "internalType": "string",
          "name": "role",
          "type": "string"
        },
        {
          "internalType": "address",
          "name": "account",
          "type": "address"
        }
      ],
      "name": "userRenounceRole",
      "outputs": [],
      "stateMutability": "nonpayable",
      "type": "function"
    }
  ],
  "transactionHash": "0xe8a06ef5689beb2b32f2447a8f62a9158fb059f95dd65517eb8e95ac80e40182",
  "args": [],
  "numDeployments": 1,
  "solcInputHash": "1a8db0e49a7967edea6da3a48d3cd68e",
  "bytecode": "0x60a06040523060805234801561001457600080fd5b5060805161285c61004c6000396000818161040a01528181610453015281816104f20152818161053201526105c5015261285c6000f3fe6080604052600436106101145760003560e01c80637b16e01f116100a0578063ddacc1a011610064578063ddacc1a014610315578063e34372ba14610335578063e9c2651814610355578063f9d68d8a14610389578063ff12fbd4146103a957600080fd5b80637b16e01f146102685780639f9aba6b14610288578063a74c3199146102a8578063b658f462146102c8578063cfb0a659146102e857600080fd5b806362777310116100e757806362777310146101a6578063672a41a1146101c65780636a928e8f146101f35780636c9cd097146102285780637033f4321461024857600080fd5b806301ffc9a7146101195780633659cfe61461014e5780634f1ef2861461017057806352d1902d14610183575b600080fd5b34801561012557600080fd5b50610139610134366004611c8e565b6103c9565b60405190151581526020015b60405180910390f35b34801561015a57600080fd5b5061016e610169366004611cc0565b610400565b005b61016e61017e366004611d78565b6104e8565b34801561018f57600080fd5b506101986105b8565b604051908152602001610145565b3480156101b257600080fd5b5061016e6101c1366004611df9565b61066b565b3480156101d257600080fd5b506101e66101e1366004611e46565b61068d565b6040516101459190611eda565b3480156101ff57600080fd5b506101e6604051806040016040528060098152602001684f50454e5f524f4c4560b81b81525081565b34801561023457600080fd5b50610139610243366004611df9565b610740565b34801561025457600080fd5b50610139610263366004611eed565b6107d8565b34801561027457600080fd5b5061016e610283366004612127565b610993565b34801561029457600080fd5b5061016e6102a3366004611df9565b6109c8565b3480156102b457600080fd5b5061016e6102c33660046121ff565b6109e5565b3480156102d457600080fd5b5061016e6102e3366004611df9565b610a21565b3480156102f457600080fd5b50610308610303366004612286565b610a54565b60405161014591906122c9565b34801561032157600080fd5b5061016e61033036600461232b565b610b7a565b34801561034157600080fd5b5061016e6103503660046121ff565b610bb0565b34801561036157600080fd5b506101e66040518060400160405280600881526020016744414f5f524f4c4560c01b81525081565b34801561039557600080fd5b5061016e6103a43660046123a8565b610cdf565b3480156103b557600080fd5b506101396103c43660046124ae565b610e32565b60006001600160e01b03198216637919c7cf60e11b14806103fa57506301ffc9a760e01b6001600160e01b03198316145b92915050565b6001600160a01b037f00000000000000000000000000000000000000000000000000000000000000001630036104515760405162461bcd60e51b8152600401610448906124f1565b60405180910390fd5b7f00000000000000000000000000000000000000000000000000000000000000006001600160a01b031661049a6000805160206127e0833981519152546001600160a01b031690565b6001600160a01b0316146104c05760405162461bcd60e51b81526004016104489061253d565b6104c981610f7b565b604080516000808252602082019092526104e591839190610fa6565b50565b6001600160a01b037f00000000000000000000000000000000000000000000000000000000000000001630036105305760405162461bcd60e51b8152600401610448906124f1565b7f00000000000000000000000000000000000000000000000000000000000000006001600160a01b03166105796000805160206127e0833981519152546001600160a01b031690565b6001600160a01b03161461059f5760405162461bcd60e51b81526004016104489061253d565b6105a882610f7b565b6105b482826001610fa6565b5050565b6000306001600160a01b037f000000000000000000000000000000000000000000000000000000000000000016146106585760405162461bcd60e51b815260206004820152603860248201527f555550535570677261646561626c653a206d757374206e6f742062652063616c60448201527f6c6564207468726f7567682064656c656761746563616c6c00000000000000006064820152608401610448565b506000805160206127e083398151915290565b6106748261068d565b61067e8133611111565b610688838361113c565b505050565b606060658260405161069f9190612589565b908152602001604051809103902060010180546106bb906125a5565b80601f01602080910402602001604051908101604052809291908181526020018280546106e7906125a5565b80156107345780601f1061070957610100808354040283529160200191610734565b820191906000526020600020905b81548152906001019060200180831161071757829003601f168201915b50505050509050919050565b6040805180820190915260098152684f50454e5f524f4c4560b81b6020918201528251908301206000907f105f9fac1d35665bc3683b5b0c275c6b11ccdc5700dc819da045f601cf314f5c01610798575060016103fa565b6065836040516107a89190612589565b90815260408051602092819003830190206001600160a01b0385166000908152925290205460ff16905092915050565b600080826040516020016107ec9190612589565b60408051601f1981840301815282825280516020918201206001600160a01b0388166000908152606683528381206001600160e01b031983168252835283812080548085028701850190955284865291955093929091849084015b828210156108f3578382906000526020600020018054610866906125a5565b80601f0160208091040260200160405190810160405280929190818152602001828054610892906125a5565b80156108df5780601f106108b4576101008083540402835291602001916108df565b820191906000526020600020905b8154815290600101906020018083116108c257829003601f168201915b505050505081526020019060010190610847565b5050825192935060009150505b818110156109875782818151811061091a5761091a6125df565b60200260200101516040516020016109329190612589565b60405160208183030381529060405280519060200120898960405160200161095b9291906125f5565b604051602081830303815290604052805190602001200361097f5760019450610987565b600101610900565b50505050949350505050565b6040518060400160405280600881526020016744414f5f524f4c4560c01b8152506109be8133611111565b61068883836111cd565b6109d18261068d565b6109db8133611111565b610688838361128d565b6040518060400160405280600881526020016744414f5f524f4c4560c01b815250610a108133611111565b610a1b848484611313565b50505050565b6001600160a01b0381163314610a4a5760405163d8e5629560e01b815260040160405180910390fd5b6105b4828261128d565b6060600082604051602001610a699190612589565b60408051601f1981840301815282825280516020918201206001600160a01b0388166000908152606683528381206001600160e01b031983168252835283812080548085028701850190955284865291955090929184015b82821015610b6d578382906000526020600020018054610ae0906125a5565b80601f0160208091040260200160405190810160405280929190818152602001828054610b0c906125a5565b8015610b595780601f10610b2e57610100808354040283529160200191610b59565b820191906000526020600020905b815481529060010190602001808311610b3c57829003601f168201915b505050505081526020019060010190610ac1565b5050505091505092915050565b6040518060400160405280600881526020016744414f5f524f4c4560c01b815250610ba58133611111565b610a1b848484611416565b6040518060400160405280600881526020016744414f5f524f4c4560c01b815250610bdb8133611111565b8251845114610bfd576040516311e86f7360e01b815260040160405180910390fd5b8151845114610c1f576040516311e86f7360e01b815260040160405180910390fd5b835160005b81811015610cd7576000848281518110610c4057610c406125df565b602002602001015151905060005b81811015610ccd57610cc5888481518110610c6b57610c6b6125df565b6020026020010151888581518110610c8557610c856125df565b6020026020010151888681518110610c9f57610c9f6125df565b60200260200101518481518110610cb857610cb86125df565b60200260200101516114f4565b600101610c4e565b5050600101610c24565b505050505050565b600054610100900460ff16610cfa5760005460ff1615610cfe565b303b155b610d615760405162461bcd60e51b815260206004820152602e60248201527f496e697469616c697a61626c653a20636f6e747261637420697320616c72656160448201526d191e481a5b9a5d1a585b1a5e995960921b6064820152608401610448565b600054610100900460ff16158015610d83576000805461ffff19166101011790555b85518751141580610d9657508451875114155b80610da357508251845114155b80610db057508251845114155b15610dce576040516311e86f7360e01b815260040160405180910390fd5b610df86040518060400160405280600881526020016744414f5f524f4c4560c01b8152508961113c565b610e03878787611416565b610e0e848484611313565b610e16611744565b8015610e28576000805461ff00191690555b5050505050505050565b6001600160a01b03821660009081526066602090815260408083206001600160e01b031985168452825280832080548251818502810185019093528083528493849084015b82821015610f23578382906000526020600020018054610e96906125a5565b80601f0160208091040260200160405190810160405280929190818152602001828054610ec2906125a5565b8015610f0f5780601f10610ee457610100808354040283529160200191610f0f565b820191906000526020600020905b815481529060010190602001808311610ef257829003601f168201915b505050505081526020019060010190610e77565b5050825192935060009150505b81811015610f7157610f5b838281518110610f4d57610f4d6125df565b602002602001015188610740565b15610f695760019350610f71565b600101610f30565b5050509392505050565b6040518060400160405280600881526020016744414f5f524f4c4560c01b8152506105b48133611111565b7f4910fdfa16fed3260ed0e7147f7cc6da11a60208b5b9406d12a635614ffd91435460ff1615610fd957610688836117b1565b826001600160a01b03166352d1902d6040518163ffffffff1660e01b8152600401602060405180830381865afa925050508015611033575060408051601f3d908101601f1916820190925261103091810190612605565b60015b6110965760405162461bcd60e51b815260206004820152602e60248201527f45524331393637557067726164653a206e657720696d706c656d656e7461746960448201526d6f6e206973206e6f74205555505360901b6064820152608401610448565b6000805160206127e083398151915281146111055760405162461bcd60e51b815260206004820152602960248201527f45524331393637557067726164653a20756e737570706f727465642070726f786044820152681a58589b195555525160ba1b6064820152608401610448565b5061068883838361184d565b61111b8282610740565b6105b457808260405163e76ed20960e01b815260040161044892919061261e565b6111468282610740565b6105b457600160658360405161115c9190612589565b90815260408051602092819003830181206001600160a01b038616600090815293529120805460ff1916921515929092179091557fe0ca4f6d52d59033a91ab89e93c98f9acada14e0086d8b1038284f42e6d53257906111c190849084903390612642565b60405180910390a15050565b80518251146111ef576040516311e86f7360e01b815260040160405180910390fd5b815160005b81811015610a1b576000838281518110611210576112106125df565b602002602001015151905060005b818110156112835761127b86848151811061123b5761123b6125df565b6020026020010151868581518110611255576112556125df565b6020026020010151838151811061126e5761126e6125df565b602002602001015161113c565b60010161121e565b50506001016111f4565b6112978282610740565b156105b45760006065836040516112ae9190612589565b90815260408051602092819003830181206001600160a01b038616600090815293529120805460ff1916921515929092179091557ff3a2b91552b535c273a48d8b7453c8b0b287e20e51d74121eb50d975dbaa506d906111c190849084903390612642565b8151835114611335576040516311e86f7360e01b815260040160405180910390fd5b8051835114611357576040516311e86f7360e01b815260040160405180910390fd5b825160005b8181101561140f576000838281518110611378576113786125df565b602002602001015151905060005b81811015611405576113fd8784815181106113a3576113a36125df565b60200260200101518785815181106113bd576113bd6125df565b60200260200101518786815181106113d7576113d76125df565b602002602001015184815181106113f0576113f06125df565b6020026020010151611872565b600101611386565b505060010161135c565b5050505050565b8151835114611438576040516311e86f7360e01b815260040160405180910390fd5b805183511461145a576040516311e86f7360e01b815260040160405180910390fd5b825160005b8181101561140f576114a385828151811061147c5761147c6125df565b6020026020010151858381518110611496576114966125df565b602002602001015161192c565b60008382815181106114b7576114b76125df565b602002602001015151905060005b818110156114ea576114e287848151811061123b5761123b6125df565b6001016114c5565b505060010161145f565b6000826040516020016115079190612589565b60408051601f1981840301815291815281516020928301206001600160a01b0387166000908152606684528281206001600160e01b03198316825290935290822054909250905b81811015610cd757836040516020016115679190612589565b60408051601f1981840301815291815281516020928301206001600160a01b0389166000908152606684528281206001600160e01b03198816825290935291208054839081106115b9576115b96125df565b906000526020600020016040516020016115d39190612675565b604051602081830303815290604052805190602001200361173c576001600160a01b03861660009081526066602090815260408083206001600160e01b0319871684529091529020611626600184612710565b81548110611636576116366125df565b600091825260208083206001600160a01b038a1684526066825260408085206001600160e01b0319891686529092529220805492909101918390811061167e5761167e6125df565b90600052602060002001908054611694906125a5565b61169f929190611b23565b506001600160a01b03861660009081526066602090815260408083206001600160e01b03198716845290915290208054806116dc576116dc612735565b6001900381819060005260206000200160006116f89190611bae565b90557fa5e6b7a93ed253db6d2a06b5188982d74e373c1b7ef9ad991c6b619c2add4d228686858760405161172f949392919061274b565b60405180910390a1610cd7565b60010161154e565b600054610100900460ff166117af5760405162461bcd60e51b815260206004820152602b60248201527f496e697469616c697a61626c653a20636f6e7472616374206973206e6f74206960448201526a6e697469616c697a696e6760a81b6064820152608401610448565b565b6001600160a01b0381163b61181e5760405162461bcd60e51b815260206004820152602d60248201527f455243313936373a206e657720696d706c656d656e746174696f6e206973206e60448201526c1bdd08184818dbdb9d1c9858dd609a1b6064820152608401610448565b6000805160206127e083398151915280546001600160a01b0319166001600160a01b0392909216919091179055565b611856836119af565b6000825111806118635750805b1561068857610a1b83836119ef565b6000826040516020016118859190612589565b60408051601f1981840301815291815281516020928301206001600160a01b0387166000908152606684528281206001600160e01b031983168252845291822080546001810182559083529183902085519194506118e893920191850190611be8565b507fb8b75e5cd091bf22489bd28795bbe9e9fc969f14231a8172a0048223d4b7a4aa8484838560405161191e949392919061274b565b60405180910390a150505050565b60006119378361068d565b90508160658460405161194a9190612589565b9081526020016040518091039020600101908051906020019061196e929190611be8565b507ffaadb760342a16b35af55a84cf4830682730345e7808265fdaa03ad9e47a335e8382846040516119a29392919061279c565b60405180910390a1505050565b6119b8816117b1565b6040516001600160a01b038216907fbc7cd75a20ee27fd9adebab32041f755214dbc6bffa90cc0225b39da2e5c2d3b90600090a250565b60606001600160a01b0383163b611a575760405162461bcd60e51b815260206004820152602660248201527f416464726573733a2064656c65676174652063616c6c20746f206e6f6e2d636f6044820152651b9d1c9858dd60d21b6064820152608401610448565b600080846001600160a01b031684604051611a729190612589565b600060405180830381855af49150503d8060008114611aad576040519150601f19603f3d011682016040523d82523d6000602084013e611ab2565b606091505b5091509150611ada828260405180606001604052806027815260200161280060279139611ae3565b95945050505050565b60608315611af2575081611b1c565b825115611b025782518084602001fd5b8160405162461bcd60e51b81526004016104489190611eda565b9392505050565b828054611b2f906125a5565b90600052602060002090601f016020900481019282611b515760008555611b9e565b82601f10611b625780548555611b9e565b82800160010185558215611b9e57600052602060002091601f016020900482015b82811115611b9e578254825591600101919060010190611b83565b50611baa929150611c5c565b5090565b508054611bba906125a5565b6000825580601f10611bca575050565b601f0160209004906000526020600020908101906104e59190611c5c565b828054611bf4906125a5565b90600052602060002090601f016020900481019282611c165760008555611b9e565b82601f10611c2f57805160ff1916838001178555611b9e565b82800160010185558215611b9e579182015b82811115611b9e578251825591602001919060010190611c41565b5b80821115611baa5760008155600101611c5d565b80356001600160e01b031981168114611c8957600080fd5b919050565b600060208284031215611ca057600080fd5b611b1c82611c71565b80356001600160a01b0381168114611c8957600080fd5b600060208284031215611cd257600080fd5b611b1c82611ca9565b634e487b7160e01b600052604160045260246000fd5b604051601f8201601f191681016001600160401b0381118282101715611d1957611d19611cdb565b604052919050565b60006001600160401b03831115611d3a57611d3a611cdb565b611d4d601f8401601f1916602001611cf1565b9050828152838383011115611d6157600080fd5b828260208301376000602084830101529392505050565b60008060408385031215611d8b57600080fd5b611d9483611ca9565b915060208301356001600160401b03811115611daf57600080fd5b8301601f81018513611dc057600080fd5b611dcf85823560208401611d21565b9150509250929050565b600082601f830112611dea57600080fd5b611b1c83833560208501611d21565b60008060408385031215611e0c57600080fd5b82356001600160401b03811115611e2257600080fd5b611e2e85828601611dd9565b925050611e3d60208401611ca9565b90509250929050565b600060208284031215611e5857600080fd5b81356001600160401b03811115611e6e57600080fd5b611e7a84828501611dd9565b949350505050565b60005b83811015611e9d578181015183820152602001611e85565b83811115610a1b5750506000910152565b60008151808452611ec6816020860160208601611e82565b601f01601f19169290920160200192915050565b602081526000611b1c6020830184611eae565b60008060008060608587031215611f0357600080fd5b84356001600160401b0380821115611f1a57600080fd5b818701915087601f830112611f2e57600080fd5b813581811115611f3d57600080fd5b886020828501011115611f4f57600080fd5b60208301965080955050611f6560208801611ca9565b93506040870135915080821115611f7b57600080fd5b50611f8887828801611dd9565b91505092959194509250565b60006001600160401b03821115611fad57611fad611cdb565b5060051b60200190565b600082601f830112611fc857600080fd5b81356020611fdd611fd883611f94565b611cf1565b82815260059290921b84018101918181019086841115611ffc57600080fd5b8286015b8481101561203b5780356001600160401b0381111561201f5760008081fd5b61202d8986838b0101611dd9565b845250918301918301612000565b509695505050505050565b600082601f83011261205757600080fd5b81356020612067611fd883611f94565b82815260059290921b8401810191818101908684111561208657600080fd5b8286015b8481101561203b5761209b81611ca9565b835291830191830161208a565b600082601f8301126120b957600080fd5b813560206120c9611fd883611f94565b82815260059290921b840181019181810190868411156120e857600080fd5b8286015b8481101561203b5780356001600160401b0381111561210b5760008081fd5b6121198986838b0101612046565b8452509183019183016120ec565b6000806040838503121561213a57600080fd5b82356001600160401b038082111561215157600080fd5b61215d86838701611fb7565b9350602085013591508082111561217357600080fd5b50611dcf858286016120a8565b600082601f83011261219157600080fd5b813560206121a1611fd883611f94565b82815260059290921b840181019181810190868411156121c057600080fd5b8286015b8481101561203b5780356001600160401b038111156121e35760008081fd5b6121f18986838b0101611fb7565b8452509183019183016121c4565b60008060006060848603121561221457600080fd5b83356001600160401b038082111561222b57600080fd5b61223787838801612046565b9450602086013591508082111561224d57600080fd5b61225987838801611fb7565b9350604086013591508082111561226f57600080fd5b5061227c86828701612180565b9150509250925092565b6000806040838503121561229957600080fd5b6122a283611ca9565b915060208301356001600160401b038111156122bd57600080fd5b611dcf85828601611dd9565b6000602080830181845280855180835260408601915060408160051b870101925083870160005b8281101561231e57603f1988860301845261230c858351611eae565b945092850192908501906001016122f0565b5092979650505050505050565b60008060006060848603121561234057600080fd5b83356001600160401b038082111561235757600080fd5b61236387838801611fb7565b9450602086013591508082111561237957600080fd5b61238587838801611fb7565b9350604086013591508082111561239b57600080fd5b5061227c868287016120a8565b600080600080600080600060e0888a0312156123c357600080fd5b6123cc88611ca9565b965060208801356001600160401b03808211156123e857600080fd5b6123f48b838c01611fb7565b975060408a013591508082111561240a57600080fd5b6124168b838c01611fb7565b965060608a013591508082111561242c57600080fd5b6124388b838c016120a8565b955060808a013591508082111561244e57600080fd5b61245a8b838c01612046565b945060a08a013591508082111561247057600080fd5b61247c8b838c01611fb7565b935060c08a013591508082111561249257600080fd5b5061249f8a828b01612180565b91505092959891949750929550565b6000806000606084860312156124c357600080fd5b6124cc84611ca9565b92506124da60208501611ca9565b91506124e860408501611c71565b90509250925092565b6020808252602c908201527f46756e6374696f6e206d7573742062652063616c6c6564207468726f7567682060408201526b19195b1959d85d1958d85b1b60a21b606082015260800190565b6020808252602c908201527f46756e6374696f6e206d7573742062652063616c6c6564207468726f7567682060408201526b6163746976652070726f787960a01b606082015260800190565b6000825161259b818460208701611e82565b9190910192915050565b600181811c908216806125b957607f821691505b6020821081036125d957634e487b7160e01b600052602260045260246000fd5b50919050565b634e487b7160e01b600052603260045260246000fd5b8183823760009101908152919050565b60006020828403121561261757600080fd5b5051919050565b6001600160a01b0383168152604060208201819052600090611e7a90830184611eae565b6060815260006126556060830186611eae565b6001600160a01b0394851660208401529290931660409091015292915050565b600080835481600182811c91508083168061269157607f831692505b602080841082036126b057634e487b7160e01b86526022600452602486fd5b8180156126c457600181146126d557612702565b60ff19861689528489019650612702565b60008a81526020902060005b868110156126fa5781548b8201529085019083016126e1565b505084890196505b509498975050505050505050565b60008282101561273057634e487b7160e01b600052601160045260246000fd5b500390565b634e487b7160e01b600052603160045260246000fd5b6001600160a01b038516815260806020820181905260009061276f90830186611eae565b6001600160e01b03198516604084015282810360608401526127918185611eae565b979650505050505050565b6060815260006127af6060830186611eae565b82810360208401526127c18186611eae565b905082810360408401526127d58185611eae565b969550505050505056fe360894a13ba1a3210667c828492db98dca3e2076cc3735a920a3ca505d382bbc416464726573733a206c6f772d6c6576656c2064656c65676174652063616c6c206661696c6564a26469706673582212205d5780103327375229e0e5dc20462ff49833bc41aaa35f00bf316fb1845fc88264736f6c634300080d0033",
  "devdoc": {
    "kind": "dev",
    "methods": {
      "actionIsAuthorized(address,address,bytes4)": {
        "params": {
          "caller": "Address attempting to execute the action",
          "sig": "The function signature used to define the action",
          "target": "Contract address corresponding to the action"
        }
      },
      "adminGrantRole(string,address)": {
        "params": {
          "account": "The address being granted the specified role",
          "role": "The role being granted"
        }
      },
      "adminRevokeRole(string,address)": {
        "params": {
          "account": "The address the role is being revoked from",
          "role": "The role being revoked"
        }
      },
      "daoAddActionsRoles(address[],string[],string[][])": {
        "params": {
          "functionDescs": "The function descriptions used to define the actions",
          "roles": "Roles being granted permission for an action",
          "targets": "The contract addresses that the action functions are implemented on"
        }
      },
      "daoGrantRoles(string[],address[][])": {
        "params": {
          "members": "Addresses being granted each specified role",
          "roles": "The roles being granted"
        }
      },
      "daoGrantRolesAndAdmins(string[],string[],address[][])": {
        "params": {
          "members": "Addresses being granted each specified role",
          "roleAdmins": "The roles being granted as admins of the specified of roles",
          "roles": "The roles being granted"
        }
      },
      "daoRemoveActionsRoles(address[],string[],string[][])": {
        "params": {
          "functionDescs": "The function description used to define the actions",
          "roles": "Roles that action permissions are being removed on",
          "targets": "The contract addresses that the action functions are implemented on"
        }
      },
      "getActionRoles(address,string)": {
        "params": {
          "functionDesc": "The function description used to define the action",
          "target": "Contract address corresponding to the action"
        }
      },
      "getRoleAdmin(string)": {
        "params": {
          "role": "Role that the admin role is being returned for"
        },
        "returns": {
          "_0": "string The admin role of the specified role"
        }
      },
      "hasRole(string,address)": {
        "params": {
          "account": "Address that the role authorization is being check on",
          "role": "Role that authorization is being checked on"
        },
        "returns": {
          "_0": "boolean Indicates whether the address has been granted the role"
        }
      },
      "initialize(address,string[],string[],address[][],address[],string[],string[][])": {
        "params": {
          "actionRoles": "Roles being granted permission for an action",
          "dao": "Address to receive DAO role",
          "functionDescs": "Function descriptions used to define actions",
          "members": "Addresses to be granted the specified roles",
          "roleAdmins": "Roles which have the ability to remove or add members",
          "roles": "What permissions are assigned to",
          "targets": "Contract addresses for actions to be defined on"
        }
      },
      "isRoleAuthorized(string,address,string)": {
        "params": {
          "functionDesc": "Function description used to define the action",
          "role": "Role that authorization is being checked on",
          "target": "Contract address corresponding to the action"
        },
        "returns": {
          "isAuthorized": "Indicates whether the role is authorized to execute the action"
        }
      },
      "proxiableUUID()": {
        "details": "Implementation of the ERC1822 {proxiableUUID} function. This returns the storage slot used by the implementation. It is used to validate that the this implementation remains valid after an upgrade. IMPORTANT: A proxy pointing at a proxiable contract should not be considered proxiable itself, because this risks bricking a proxy that upgrades to it, by delegating to itself until out of gas. Thus it is critical that this function revert if invoked through a proxy. This is guaranteed by the `notDelegated` modifier."
      },
      "supportsInterface(bytes4)": {
        "params": {
          "interfaceId": "An interface ID bytes4 as defined by ERC-165"
        },
        "returns": {
          "_0": "bool Indicates whether the interface is supported"
        }
      },
      "upgradeTo(address)": {
        "details": "Upgrade the implementation of the proxy to `newImplementation`. Calls {_authorizeUpgrade}. Emits an {Upgraded} event."
      },
      "upgradeToAndCall(address,bytes)": {
        "details": "Upgrade the implementation of the proxy to `newImplementation`, and subsequently execute the function call encoded in `data`. Calls {_authorizeUpgrade}. Emits an {Upgraded} event."
      },
      "userRenounceRole(string,address)": {
        "params": {
          "account": "The address renouncing the role",
          "role": "The role being renounced"
        }
      }
    },
    "stateVariables": {
      "DAO_ROLE": {
        "return": "string The string \"DAO_ROLE\"",
        "returns": {
          "_0": "string The string \"DAO_ROLE\""
        }
      }
    },
    "title": "DAO Access Control",
    "version": 1
  },
  "userdoc": {
    "kind": "user",
    "methods": {
      "actionIsAuthorized(address,address,bytes4)": {
        "notice": "Checks if a caller has the permissions to execute the specific action"
      },
      "adminGrantRole(string,address)": {
        "notice": "Grants a role to the specified addressThis function can only be called by an admin of the specified role"
      },
      "adminRevokeRole(string,address)": {
        "notice": "Revokes a role from the specified addressThis function can only be called by an admin of the specified role"
      },
      "daoAddActionsRoles(address[],string[],string[][])": {
        "notice": "Authorizes roles to execute the specified actionsThis function can only be called by the DAO"
      },
      "daoGrantRoles(string[],address[][])": {
        "notice": "Grants roles to the specified addressesThis function can only be called by the DAO"
      },
      "daoGrantRolesAndAdmins(string[],string[],address[][])": {
        "notice": "Grants roles to the specified addresses and defines admin rolesThis function can only be called by the DAO"
      },
      "daoRemoveActionsRoles(address[],string[],string[][])": {
        "notice": "Removes autorization for roles to execute the specified actionsThis function can only be called by the DAO"
      },
      "getActionRoles(address,string)": {
        "notice": "Returns the roles autorized to execute the specified action"
      },
      "getRoleAdmin(string)": {
        "notice": "Returns the role that is the admin of the specified role"
      },
      "hasRole(string,address)": {
        "notice": "Returns whether the account has been granted the role"
      },
      "initialize(address,string[],string[],address[][],address[],string[],string[][])": {
        "notice": "Initialize DAO action and role permissions"
      },
      "isRoleAuthorized(string,address,string)": {
        "notice": "Checks if a specific role is authorized for an action"
      },
      "supportsInterface(bytes4)": {
        "notice": "Returns whether a given interface ID is supported"
      },
      "userRenounceRole(string,address)": {
        "notice": "Enables an address to remove one of its own rolesThis function can only be called by the account specified"
      }
    },
    "notice": "Use this contract for managing DAO role based permissions",
    "version": 1
  },
  "storageLayout": {
    "storage": [
      {
        "astId": 395,
        "contract": "contracts/DAOAccessControl.sol:DAOAccessControl",
        "label": "_initialized",
        "offset": 0,
        "slot": "0",
        "type": "t_bool"
      },
      {
        "astId": 398,
        "contract": "contracts/DAOAccessControl.sol:DAOAccessControl",
        "label": "_initializing",
        "offset": 1,
        "slot": "0",
        "type": "t_bool"
      },
      {
        "astId": 377,
        "contract": "contracts/DAOAccessControl.sol:DAOAccessControl",
        "label": "__gap",
        "offset": 0,
        "slot": "1",
        "type": "t_array(t_uint256)50_storage"
      },
      {
        "astId": 597,
        "contract": "contracts/DAOAccessControl.sol:DAOAccessControl",
        "label": "__gap",
        "offset": 0,
        "slot": "51",
        "type": "t_array(t_uint256)50_storage"
      },
      {
        "astId": 2612,
        "contract": "contracts/DAOAccessControl.sol:DAOAccessControl",
        "label": "_roles",
        "offset": 0,
        "slot": "101",
        "type": "t_mapping(t_string_memory_ptr,t_struct(RoleData)4168_storage)"
      },
      {
        "astId": 2619,
        "contract": "contracts/DAOAccessControl.sol:DAOAccessControl",
        "label": "_actionsToRoles",
        "offset": 0,
        "slot": "102",
        "type": "t_mapping(t_address,t_mapping(t_bytes4,t_array(t_string_storage)dyn_storage))"
      }
    ],
    "types": {
      "t_address": {
        "encoding": "inplace",
        "label": "address",
        "numberOfBytes": "20"
      },
      "t_array(t_string_storage)dyn_storage": {
        "base": "t_string_storage",
        "encoding": "dynamic_array",
        "label": "string[]",
        "numberOfBytes": "32"
      },
      "t_array(t_uint256)50_storage": {
        "base": "t_uint256",
        "encoding": "inplace",
        "label": "uint256[50]",
        "numberOfBytes": "1600"
      },
      "t_bool": {
        "encoding": "inplace",
        "label": "bool",
        "numberOfBytes": "1"
      },
      "t_bytes4": {
        "encoding": "inplace",
        "label": "bytes4",
        "numberOfBytes": "4"
      },
      "t_mapping(t_address,t_bool)": {
        "encoding": "mapping",
        "key": "t_address",
        "label": "mapping(address => bool)",
        "numberOfBytes": "32",
        "value": "t_bool"
      },
      "t_mapping(t_address,t_mapping(t_bytes4,t_array(t_string_storage)dyn_storage))": {
        "encoding": "mapping",
        "key": "t_address",
        "label": "mapping(address => mapping(bytes4 => string[]))",
        "numberOfBytes": "32",
        "value": "t_mapping(t_bytes4,t_array(t_string_storage)dyn_storage)"
      },
      "t_mapping(t_bytes4,t_array(t_string_storage)dyn_storage)": {
        "encoding": "mapping",
        "key": "t_bytes4",
        "label": "mapping(bytes4 => string[])",
        "numberOfBytes": "32",
        "value": "t_array(t_string_storage)dyn_storage"
      },
      "t_mapping(t_string_memory_ptr,t_struct(RoleData)4168_storage)": {
        "encoding": "mapping",
        "key": "t_string_memory_ptr",
        "label": "mapping(string => struct IDAOAccessControl.RoleData)",
        "numberOfBytes": "32",
        "value": "t_struct(RoleData)4168_storage"
      },
      "t_string_memory_ptr": {
        "encoding": "bytes",
        "label": "string",
        "numberOfBytes": "32"
      },
      "t_string_storage": {
        "encoding": "bytes",
        "label": "string",
        "numberOfBytes": "32"
      },
      "t_struct(RoleData)4168_storage": {
        "encoding": "inplace",
        "label": "struct IDAOAccessControl.RoleData",
        "members": [
          {
            "astId": 4165,
            "contract": "contracts/DAOAccessControl.sol:DAOAccessControl",
            "label": "members",
            "offset": 0,
            "slot": "0",
            "type": "t_mapping(t_address,t_bool)"
          },
          {
            "astId": 4167,
            "contract": "contracts/DAOAccessControl.sol:DAOAccessControl",
            "label": "adminRole",
            "offset": 0,
            "slot": "1",
            "type": "t_string_storage"
          }
        ],
        "numberOfBytes": "64"
      },
      "t_uint256": {
        "encoding": "inplace",
        "label": "uint256",
        "numberOfBytes": "32"
      }
    }
  }
}