{
  "address": "0x2F8f570b04bEdD708434a84B923692d5168d59D4",
  "abi": [
    {
      "anonymous": false,
      "inputs": [
        {
          "indexed": false,
          "internalType": "address",
          "name": "timelock",
          "type": "address"
        },
        {
          "indexed": false,
          "internalType": "address",
          "name": "governorModule",
          "type": "address"
        }
      ],
      "name": "GovernorCreated",
      "type": "event"
    },
    {
      "inputs": [
        {
          "internalType": "bytes[]",
          "name": "data",
          "type": "bytes[]"
        }
      ],
      "name": "create",
      "outputs": [
        {
          "internalType": "address[]",
          "name": "",
          "type": "address[]"
        }
      ],
      "stateMutability": "nonpayable",
      "type": "function"
    },
    {
      "inputs": [
        {
          "internalType": "bytes4",
          "name": "interfaceId",
          "type": "bytes4"
        }
      ],
      "name": "supportsInterface",
      "outputs": [
        {
          "internalType": "bool",
          "name": "",
          "type": "bool"
        }
      ],
      "stateMutability": "view",
      "type": "function"
    }
  ],
  "transactionHash": "0x69a902d351407c1775868bb6561cd53d042add086184198c2d4c48db0c29dd77",
  "args": [],
  "numDeployments": 1,
  "solcInputHash": "3ddadc1d7c849ba50fdf1b869807a376",
  "bytecode": "0x608060405234801561001057600080fd5b50611240806100206000396000f3fe60806040523480156200001157600080fd5b50600436106200003a5760003560e01c806301ffc9a7146200003f578063cacdc398146200006b575b600080fd5b620000566200005036600462000610565b62000091565b60405190151581526020015b60405180910390f35b620000826200007c36600462000643565b620000c9565b604051620000629190620006bd565b60006001600160e01b03198216631959b87360e31b1480620000c357506301ffc9a760e01b6001600160e01b03198316145b92915050565b6040805160028082526060808301845292600092919060208301908036833701905050905062000104620000fe848662000781565b62000237565b816001815181106200011a576200011a62000855565b60200260200101906001600160a01b031690816001600160a01b031681525050620001718160018151811062000154576200015462000855565b60200260200101518585906200016b919062000781565b620003a1565b8160008151811062000187576200018762000855565b60200260200101906001600160a01b031690816001600160a01b0316815250507fb6b3fe2c7fc656c523405911942be2fac1c0d67804bf2547f3fd7351574915ab81600081518110620001de57620001de62000855565b602002602001015182600181518110620001fc57620001fc62000855565b6020026020010151604051620002289291906001600160a01b0392831681529116602082015260400190565b60405180910390a19392505050565b6000816004815181106200024f576200024f62000855565b60200260200101518060200190518101906200026c91906200086b565b631794bb3c60e01b836001815181106200028a576200028a62000855565b6020026020010151806020019051810190620002a791906200086b565b84600081518110620002bd57620002bd62000855565b6020026020010151806020019051810190620002da91906200086b565b85600b81518110620002f057620002f062000855565b60200260200101518060200190518101906200030d919062000896565b6040516001600160a01b039384166024820152929091166044830152606482015260840160408051601f198184030181529181526020820180516001600160e01b03166001600160e01b0319909416939093179092529051620003709062000602565b6200037d92919062000911565b604051809103906000f0801580156200039a573d6000803e3d6000fd5b5092915050565b600081600381518110620003b957620003b962000855565b6020026020010151806020019051810190620003d691906200086b565b6361f6cc8b60e01b83600581518110620003f457620003f462000855565b60200260200101518060200190518101906200041191906200093f565b8460028151811062000427576200042762000855565b60200260200101518060200190518101906200044491906200086b565b86866006815181106200045b576200045b62000855565b6020026020010151806020019051810190620004789190620009bf565b876007815181106200048e576200048e62000855565b6020026020010151806020019051810190620004ab919062000896565b88600881518110620004c157620004c162000855565b6020026020010151806020019051810190620004de919062000896565b89600981518110620004f457620004f462000855565b602002602001015180602001905181019062000511919062000896565b8a600a8151811062000527576200052762000855565b602002602001015180602001905181019062000544919062000896565b8b6001815181106200055a576200055a62000855565b60200260200101518060200190518101906200057791906200086b565b6040516024016200059199989796959493929190620009eb565b60408051601f198184030181529181526020820180516001600160e01b03166001600160e01b0319909416939093179092529051620005d09062000602565b620005dd92919062000911565b604051809103906000f080158015620005fa573d6000803e3d6000fd5b509392505050565b6107b18062000a5a83390190565b6000602082840312156200062357600080fd5b81356001600160e01b0319811681146200063c57600080fd5b9392505050565b600080602083850312156200065757600080fd5b823567ffffffffffffffff808211156200067057600080fd5b818501915085601f8301126200068557600080fd5b8135818111156200069557600080fd5b8660208260051b8501011115620006ab57600080fd5b60209290920196919550909350505050565b6020808252825182820181905260009190848201906040850190845b81811015620007005783516001600160a01b031683529284019291840191600101620006d9565b50909695505050505050565b634e487b7160e01b600052604160045260246000fd5b604051601f8201601f1916810167ffffffffffffffff811182821017156200074e576200074e6200070c565b604052919050565b600067ffffffffffffffff8211156200077357620007736200070c565b50601f01601f191660200190565b600067ffffffffffffffff808411156200079f576200079f6200070c565b8360051b6020620007b281830162000722565b868152918501918181019036841115620007cb57600080fd5b865b848110156200084957803586811115620007e75760008081fd5b880136601f820112620007fa5760008081fd5b8035620008116200080b8262000756565b62000722565b8181523687838501011115620008275760008081fd5b81878401888301376000918101870191909152845250918301918301620007cd565b50979650505050505050565b634e487b7160e01b600052603260045260246000fd5b6000602082840312156200087e57600080fd5b81516001600160a01b03811681146200063c57600080fd5b600060208284031215620008a957600080fd5b5051919050565b60005b83811015620008cd578181015183820152602001620008b3565b83811115620008dd576000848401525b50505050565b60008151808452620008fd816020860160208601620008b0565b601f01601f19169290920160200192915050565b6001600160a01b03831681526040602082018190526000906200093790830184620008e3565b949350505050565b6000602082840312156200095257600080fd5b815167ffffffffffffffff8111156200096a57600080fd5b8201601f810184136200097c57600080fd5b80516200098d6200080b8262000756565b818152856020838501011115620009a357600080fd5b620009b6826020830160208601620008b0565b95945050505050565b600060208284031215620009d257600080fd5b815167ffffffffffffffff811681146200063c57600080fd5b600061012080835262000a018184018d620008e3565b6001600160a01b039b8c166020850152998b166040840152505067ffffffffffffffff969096166060870152608086019490945260a085019290925260c084015260e08301529092166101009092019190915291905056fe60806040526040516107b13803806107b183398101604081905261002291610349565b61004d60017f360894a13ba1a3210667c828492db98dca3e2076cc3735a920a3ca505d382bbd610417565b60008051602061076a833981519152146100695761006961043c565b6100758282600061007c565b50506104a1565b610085836100b2565b6000825111806100925750805b156100ad576100ab83836100f260201b6100291760201c565b505b505050565b6100bb8161011e565b6040516001600160a01b038216907fbc7cd75a20ee27fd9adebab32041f755214dbc6bffa90cc0225b39da2e5c2d3b90600090a250565b6060610117838360405180606001604052806027815260200161078a602791396101de565b9392505050565b610131816102bc60201b6100551760201c565b6101985760405162461bcd60e51b815260206004820152602d60248201527f455243313936373a206e657720696d706c656d656e746174696f6e206973206e60448201526c1bdd08184818dbdb9d1c9858dd609a1b60648201526084015b60405180910390fd5b806101bd60008051602061076a83398151915260001b6102cb60201b6100641760201c565b80546001600160a01b0319166001600160a01b039290921691909117905550565b60606001600160a01b0384163b6102465760405162461bcd60e51b815260206004820152602660248201527f416464726573733a2064656c65676174652063616c6c20746f206e6f6e2d636f6044820152651b9d1c9858dd60d21b606482015260840161018f565b600080856001600160a01b0316856040516102619190610452565b600060405180830381855af49150503d806000811461029c576040519150601f19603f3d011682016040523d82523d6000602084013e6102a1565b606091505b5090925090506102b28282866102ce565b9695505050505050565b6001600160a01b03163b151590565b90565b606083156102dd575081610117565b8251156102ed5782518084602001fd5b8160405162461bcd60e51b815260040161018f919061046e565b634e487b7160e01b600052604160045260246000fd5b60005b83811015610338578181015183820152602001610320565b838111156100ab5750506000910152565b6000806040838503121561035c57600080fd5b82516001600160a01b038116811461037357600080fd5b60208401519092506001600160401b038082111561039057600080fd5b818501915085601f8301126103a457600080fd5b8151818111156103b6576103b6610307565b604051601f8201601f19908116603f011681019083821181831017156103de576103de610307565b816040528281528860208487010111156103f757600080fd5b61040883602083016020880161031d565b80955050505050509250929050565b60008282101561043757634e487b7160e01b600052601160045260246000fd5b500390565b634e487b7160e01b600052600160045260246000fd5b6000825161046481846020870161031d565b9190910192915050565b602081526000825180602084015261048d81604085016020870161031d565b601f01601f19169190910160400192915050565b6102ba806104b06000396000f3fe60806040523661001357610011610017565b005b6100115b610027610022610067565b61009f565b565b606061004e838360405180606001604052806027815260200161025e602791396100c3565b9392505050565b6001600160a01b03163b151590565b90565b600061009a7f360894a13ba1a3210667c828492db98dca3e2076cc3735a920a3ca505d382bbc546001600160a01b031690565b905090565b3660008037600080366000845af43d6000803e8080156100be573d6000f35b3d6000fd5b60606001600160a01b0384163b6101305760405162461bcd60e51b815260206004820152602660248201527f416464726573733a2064656c65676174652063616c6c20746f206e6f6e2d636f6044820152651b9d1c9858dd60d21b60648201526084015b60405180910390fd5b600080856001600160a01b03168560405161014b919061020e565b600060405180830381855af49150503d8060008114610186576040519150601f19603f3d011682016040523d82523d6000602084013e61018b565b606091505b509150915061019b8282866101a5565b9695505050505050565b606083156101b457508161004e565b8251156101c45782518084602001fd5b8160405162461bcd60e51b8152600401610127919061022a565b60005b838110156101f95781810151838201526020016101e1565b83811115610208576000848401525b50505050565b600082516102208184602087016101de565b9190910192915050565b60208152600082518060208401526102498160408501602087016101de565b601f01601f1916919091016040019291505056fe416464726573733a206c6f772d6c6576656c2064656c65676174652063616c6c206661696c6564a2646970667358221220c1396a395593415293023c3bc166734d52c4ee9136c6ff8eaef33568949ec5f064736f6c634300080d0033360894a13ba1a3210667c828492db98dca3e2076cc3735a920a3ca505d382bbc416464726573733a206c6f772d6c6576656c2064656c65676174652063616c6c206661696c6564a2646970667358221220c55ce67ff18577c4488400368377daea660ee3a2ac379f095c944bca3f4b019364736f6c634300080d0033",
  "devdoc": {
    "details": "Governor Factory used to deploy Gov ModulesDeploys Timelock dependecies",
    "kind": "dev",
    "methods": {
      "create(bytes[])": {
        "details": "Creates a Governor module",
        "params": {
          "data": "The array of bytes used to create the module"
        },
        "returns": {
          "_0": "address[] The array of addresses of the created module"
        }
      },
      "supportsInterface(bytes4)": {
        "params": {
          "interfaceId": "An interface ID bytes4 as defined by ERC-165"
        },
        "returns": {
          "_0": "bool Indicates whether the interface is supported"
        }
      }
    },
    "version": 1
  },
  "userdoc": {
    "kind": "user",
    "methods": {
      "supportsInterface(bytes4)": {
        "notice": "Returns whether a given interface ID is supported"
      }
    },
    "version": 1
  },
  "storageLayout": {
    "storage": [],
    "types": null
  }
}