{
  "address": "0x4AD54a9A9479cB0e73313e6c7de9f850D2744A28",
  "abi": [
    {
      "inputs": [],
      "name": "NotAuthorized",
      "type": "error"
    },
    {
      "anonymous": false,
      "inputs": [
        {
          "indexed": false,
          "internalType": "address",
          "name": "previousAdmin",
          "type": "address"
        },
        {
          "indexed": false,
          "internalType": "address",
          "name": "newAdmin",
          "type": "address"
        }
      ],
      "name": "AdminChanged",
      "type": "event"
    },
    {
      "anonymous": false,
      "inputs": [
        {
          "indexed": true,
          "internalType": "address",
          "name": "beacon",
          "type": "address"
        }
      ],
      "name": "BeaconUpgraded",
      "type": "event"
    },
    {
      "anonymous": false,
      "inputs": [
        {
          "indexed": false,
          "internalType": "uint64",
          "name": "oldVoteExtension",
          "type": "uint64"
        },
        {
          "indexed": false,
          "internalType": "uint64",
          "name": "newVoteExtension",
          "type": "uint64"
        }
      ],
      "name": "LateQuorumVoteExtensionSet",
      "type": "event"
    },
    {
      "anonymous": false,
      "inputs": [
        {
          "indexed": false,
          "internalType": "uint256",
          "name": "proposalId",
          "type": "uint256"
        }
      ],
      "name": "ProposalCanceled",
      "type": "event"
    },
    {
      "anonymous": false,
      "inputs": [
        {
          "indexed": false,
          "internalType": "uint256",
          "name": "proposalId",
          "type": "uint256"
        },
        {
          "indexed": false,
          "internalType": "address",
          "name": "proposer",
          "type": "address"
        },
        {
          "indexed": false,
          "internalType": "address[]",
          "name": "targets",
          "type": "address[]"
        },
        {
          "indexed": false,
          "internalType": "uint256[]",
          "name": "values",
          "type": "uint256[]"
        },
        {
          "indexed": false,
          "internalType": "string[]",
          "name": "signatures",
          "type": "string[]"
        },
        {
          "indexed": false,
          "internalType": "bytes[]",
          "name": "calldatas",
          "type": "bytes[]"
        },
        {
          "indexed": false,
          "internalType": "uint256",
          "name": "startBlock",
          "type": "uint256"
        },
        {
          "indexed": false,
          "internalType": "uint256",
          "name": "endBlock",
          "type": "uint256"
        },
        {
          "indexed": false,
          "internalType": "string",
          "name": "description",
          "type": "string"
        }
      ],
      "name": "ProposalCreated",
      "type": "event"
    },
    {
      "anonymous": false,
      "inputs": [
        {
          "indexed": false,
          "internalType": "uint256",
          "name": "proposalId",
          "type": "uint256"
        }
      ],
      "name": "ProposalExecuted",
      "type": "event"
    },
    {
      "anonymous": false,
      "inputs": [
        {
          "indexed": true,
          "internalType": "uint256",
          "name": "proposalId",
          "type": "uint256"
        },
        {
          "indexed": false,
          "internalType": "uint64",
          "name": "extendedDeadline",
          "type": "uint64"
        }
      ],
      "name": "ProposalExtended",
      "type": "event"
    },
    {
      "anonymous": false,
      "inputs": [
        {
          "indexed": false,
          "internalType": "uint256",
          "name": "proposalId",
          "type": "uint256"
        },
        {
          "indexed": false,
          "internalType": "uint256",
          "name": "eta",
          "type": "uint256"
        }
      ],
      "name": "ProposalQueued",
      "type": "event"
    },
    {
      "anonymous": false,
      "inputs": [
        {
          "indexed": false,
          "internalType": "uint256",
          "name": "oldProposalThreshold",
          "type": "uint256"
        },
        {
          "indexed": false,
          "internalType": "uint256",
          "name": "newProposalThreshold",
          "type": "uint256"
        }
      ],
      "name": "ProposalThresholdSet",
      "type": "event"
    },
    {
      "anonymous": false,
      "inputs": [
        {
          "indexed": false,
          "internalType": "uint256",
          "name": "oldQuorumNumerator",
          "type": "uint256"
        },
        {
          "indexed": false,
          "internalType": "uint256",
          "name": "newQuorumNumerator",
          "type": "uint256"
        }
      ],
      "name": "QuorumNumeratorUpdated",
      "type": "event"
    },
    {
      "anonymous": false,
      "inputs": [
        {
          "indexed": false,
          "internalType": "address",
          "name": "oldTimelock",
          "type": "address"
        },
        {
          "indexed": false,
          "internalType": "address",
          "name": "newTimelock",
          "type": "address"
        }
      ],
      "name": "TimelockChange",
      "type": "event"
    },
    {
      "anonymous": false,
      "inputs": [
        {
          "indexed": true,
          "internalType": "address",
          "name": "implementation",
          "type": "address"
        }
      ],
      "name": "Upgraded",
      "type": "event"
    },
    {
      "anonymous": false,
      "inputs": [
        {
          "indexed": true,
          "internalType": "address",
          "name": "voter",
          "type": "address"
        },
        {
          "indexed": false,
          "internalType": "uint256",
          "name": "proposalId",
          "type": "uint256"
        },
        {
          "indexed": false,
          "internalType": "uint8",
          "name": "support",
          "type": "uint8"
        },
        {
          "indexed": false,
          "internalType": "uint256",
          "name": "weight",
          "type": "uint256"
        },
        {
          "indexed": false,
          "internalType": "string",
          "name": "reason",
          "type": "string"
        }
      ],
      "name": "VoteCast",
      "type": "event"
    },
    {
      "anonymous": false,
      "inputs": [
        {
          "indexed": false,
          "internalType": "uint256",
          "name": "oldVotingDelay",
          "type": "uint256"
        },
        {
          "indexed": false,
          "internalType": "uint256",
          "name": "newVotingDelay",
          "type": "uint256"
        }
      ],
      "name": "VotingDelaySet",
      "type": "event"
    },
    {
      "anonymous": false,
      "inputs": [
        {
          "indexed": false,
          "internalType": "uint256",
          "name": "oldVotingPeriod",
          "type": "uint256"
        },
        {
          "indexed": false,
          "internalType": "uint256",
          "name": "newVotingPeriod",
          "type": "uint256"
        }
      ],
      "name": "VotingPeriodSet",
      "type": "event"
    },
    {
      "inputs": [],
      "name": "BALLOT_TYPEHASH",
      "outputs": [
        {
          "internalType": "bytes32",
          "name": "",
          "type": "bytes32"
        }
      ],
      "stateMutability": "view",
      "type": "function"
    },
    {
      "inputs": [],
      "name": "COUNTING_MODE",
      "outputs": [
        {
          "internalType": "string",
          "name": "",
          "type": "string"
        }
      ],
      "stateMutability": "pure",
      "type": "function"
    },
    {
      "inputs": [],
      "name": "accessControl",
      "outputs": [
        {
          "internalType": "contract IAccessControl",
          "name": "",
          "type": "address"
        }
      ],
      "stateMutability": "view",
      "type": "function"
    },
    {
      "inputs": [
        {
          "internalType": "uint256",
          "name": "proposalId",
          "type": "uint256"
        },
        {
          "internalType": "uint8",
          "name": "support",
          "type": "uint8"
        }
      ],
      "name": "castVote",
      "outputs": [
        {
          "internalType": "uint256",
          "name": "",
          "type": "uint256"
        }
      ],
      "stateMutability": "nonpayable",
      "type": "function"
    },
    {
      "inputs": [
        {
          "internalType": "uint256",
          "name": "proposalId",
          "type": "uint256"
        },
        {
          "internalType": "uint8",
          "name": "support",
          "type": "uint8"
        },
        {
          "internalType": "uint8",
          "name": "v",
          "type": "uint8"
        },
        {
          "internalType": "bytes32",
          "name": "r",
          "type": "bytes32"
        },
        {
          "internalType": "bytes32",
          "name": "s",
          "type": "bytes32"
        }
      ],
      "name": "castVoteBySig",
      "outputs": [
        {
          "internalType": "uint256",
          "name": "",
          "type": "uint256"
        }
      ],
      "stateMutability": "nonpayable",
      "type": "function"
    },
    {
      "inputs": [
        {
          "internalType": "uint256",
          "name": "proposalId",
          "type": "uint256"
        },
        {
          "internalType": "uint8",
          "name": "support",
          "type": "uint8"
        },
        {
          "internalType": "string",
          "name": "reason",
          "type": "string"
        }
      ],
      "name": "castVoteWithReason",
      "outputs": [
        {
          "internalType": "uint256",
          "name": "",
          "type": "uint256"
        }
      ],
      "stateMutability": "nonpayable",
      "type": "function"
    },
    {
      "inputs": [
        {
          "internalType": "address[]",
          "name": "targets",
          "type": "address[]"
        },
        {
          "internalType": "uint256[]",
          "name": "values",
          "type": "uint256[]"
        },
        {
          "internalType": "bytes[]",
          "name": "calldatas",
          "type": "bytes[]"
        },
        {
          "internalType": "bytes32",
          "name": "descriptionHash",
          "type": "bytes32"
        }
      ],
      "name": "execute",
      "outputs": [
        {
          "internalType": "uint256",
          "name": "",
          "type": "uint256"
        }
      ],
      "stateMutability": "payable",
      "type": "function"
    },
    {
      "inputs": [
        {
          "internalType": "address",
          "name": "account",
          "type": "address"
        },
        {
          "internalType": "uint256",
          "name": "blockNumber",
          "type": "uint256"
        }
      ],
      "name": "getVotes",
      "outputs": [
        {
          "internalType": "uint256",
          "name": "",
          "type": "uint256"
        }
      ],
      "stateMutability": "view",
      "type": "function"
    },
    {
      "inputs": [
        {
          "internalType": "uint256",
          "name": "proposalId",
          "type": "uint256"
        },
        {
          "internalType": "address",
          "name": "account",
          "type": "address"
        }
      ],
      "name": "hasVoted",
      "outputs": [
        {
          "internalType": "bool",
          "name": "",
          "type": "bool"
        }
      ],
      "stateMutability": "view",
      "type": "function"
    },
    {
      "inputs": [
        {
          "internalType": "address[]",
          "name": "targets",
          "type": "address[]"
        },
        {
          "internalType": "uint256[]",
          "name": "values",
          "type": "uint256[]"
        },
        {
          "internalType": "bytes[]",
          "name": "calldatas",
          "type": "bytes[]"
        },
        {
          "internalType": "bytes32",
          "name": "descriptionHash",
          "type": "bytes32"
        }
      ],
      "name": "hashProposal",
      "outputs": [
        {
          "internalType": "uint256",
          "name": "",
          "type": "uint256"
        }
      ],
      "stateMutability": "pure",
      "type": "function"
    },
    {
      "inputs": [
        {
          "internalType": "string",
          "name": "_name",
          "type": "string"
        },
        {
          "internalType": "contract IVotesUpgradeable",
          "name": "_token",
          "type": "address"
        },
        {
          "internalType": "contract ITimelockUpgradeable",
          "name": "_timelock",
          "type": "address"
        },
        {
          "internalType": "uint64",
          "name": "_initialVoteExtension",
          "type": "uint64"
        },
        {
          "internalType": "uint256",
          "name": "_initialVotingDelay",
          "type": "uint256"
        },
        {
          "internalType": "uint256",
          "name": "_initialVotingPeriod",
          "type": "uint256"
        },
        {
          "internalType": "uint256",
          "name": "_initialProposalThreshold",
          "type": "uint256"
        },
        {
          "internalType": "uint256",
          "name": "_initialQuorumNumeratorValue",
          "type": "uint256"
        },
        {
          "internalType": "address",
          "name": "_accessControl",
          "type": "address"
        }
      ],
      "name": "initialize",
      "outputs": [],
      "stateMutability": "nonpayable",
      "type": "function"
    },
    {
      "inputs": [],
      "name": "lateQuorumVoteExtension",
      "outputs": [
        {
          "internalType": "uint64",
          "name": "",
          "type": "uint64"
        }
      ],
      "stateMutability": "view",
      "type": "function"
    },
    {
      "inputs": [],
      "name": "name",
      "outputs": [
        {
          "internalType": "string",
          "name": "",
          "type": "string"
        }
      ],
      "stateMutability": "view",
      "type": "function"
    },
    {
      "inputs": [
        {
          "internalType": "uint256",
          "name": "proposalId",
          "type": "uint256"
        }
      ],
      "name": "proposalDeadline",
      "outputs": [
        {
          "internalType": "uint256",
          "name": "",
          "type": "uint256"
        }
      ],
      "stateMutability": "view",
      "type": "function"
    },
    {
      "inputs": [
        {
          "internalType": "uint256",
          "name": "proposalId",
          "type": "uint256"
        }
      ],
      "name": "proposalEta",
      "outputs": [
        {
          "internalType": "uint256",
          "name": "",
          "type": "uint256"
        }
      ],
      "stateMutability": "view",
      "type": "function"
    },
    {
      "inputs": [
        {
          "internalType": "uint256",
          "name": "proposalId",
          "type": "uint256"
        }
      ],
      "name": "proposalSnapshot",
      "outputs": [
        {
          "internalType": "uint256",
          "name": "",
          "type": "uint256"
        }
      ],
      "stateMutability": "view",
      "type": "function"
    },
    {
      "inputs": [],
      "name": "proposalThreshold",
      "outputs": [
        {
          "internalType": "uint256",
          "name": "",
          "type": "uint256"
        }
      ],
      "stateMutability": "view",
      "type": "function"
    },
    {
      "inputs": [
        {
          "internalType": "uint256",
          "name": "proposalId",
          "type": "uint256"
        }
      ],
      "name": "proposalVotes",
      "outputs": [
        {
          "internalType": "uint256",
          "name": "againstVotes",
          "type": "uint256"
        },
        {
          "internalType": "uint256",
          "name": "forVotes",
          "type": "uint256"
        },
        {
          "internalType": "uint256",
          "name": "abstainVotes",
          "type": "uint256"
        }
      ],
      "stateMutability": "view",
      "type": "function"
    },
    {
      "inputs": [
        {
          "internalType": "address[]",
          "name": "targets",
          "type": "address[]"
        },
        {
          "internalType": "uint256[]",
          "name": "values",
          "type": "uint256[]"
        },
        {
          "internalType": "bytes[]",
          "name": "calldatas",
          "type": "bytes[]"
        },
        {
          "internalType": "string",
          "name": "description",
          "type": "string"
        }
      ],
      "name": "propose",
      "outputs": [
        {
          "internalType": "uint256",
          "name": "",
          "type": "uint256"
        }
      ],
      "stateMutability": "nonpayable",
      "type": "function"
    },
    {
      "inputs": [],
      "name": "proxiableUUID",
      "outputs": [
        {
          "internalType": "bytes32",
          "name": "",
          "type": "bytes32"
        }
      ],
      "stateMutability": "view",
      "type": "function"
    },
    {
      "inputs": [
        {
          "internalType": "address[]",
          "name": "targets",
          "type": "address[]"
        },
        {
          "internalType": "uint256[]",
          "name": "values",
          "type": "uint256[]"
        },
        {
          "internalType": "bytes[]",
          "name": "calldatas",
          "type": "bytes[]"
        },
        {
          "internalType": "bytes32",
          "name": "descriptionHash",
          "type": "bytes32"
        }
      ],
      "name": "queue",
      "outputs": [
        {
          "internalType": "uint256",
          "name": "",
          "type": "uint256"
        }
      ],
      "stateMutability": "nonpayable",
      "type": "function"
    },
    {
      "inputs": [
        {
          "internalType": "uint256",
          "name": "blockNumber",
          "type": "uint256"
        }
      ],
      "name": "quorum",
      "outputs": [
        {
          "internalType": "uint256",
          "name": "",
          "type": "uint256"
        }
      ],
      "stateMutability": "view",
      "type": "function"
    },
    {
      "inputs": [],
      "name": "quorumDenominator",
      "outputs": [
        {
          "internalType": "uint256",
          "name": "",
          "type": "uint256"
        }
      ],
      "stateMutability": "view",
      "type": "function"
    },
    {
      "inputs": [],
      "name": "quorumNumerator",
      "outputs": [
        {
          "internalType": "uint256",
          "name": "",
          "type": "uint256"
        }
      ],
      "stateMutability": "view",
      "type": "function"
    },
    {
      "inputs": [
        {
          "internalType": "address",
          "name": "target",
          "type": "address"
        },
        {
          "internalType": "uint256",
          "name": "value",
          "type": "uint256"
        },
        {
          "internalType": "bytes",
          "name": "data",
          "type": "bytes"
        }
      ],
      "name": "relay",
      "outputs": [],
      "stateMutability": "nonpayable",
      "type": "function"
    },
    {
      "inputs": [
        {
          "internalType": "uint64",
          "name": "newVoteExtension",
          "type": "uint64"
        }
      ],
      "name": "setLateQuorumVoteExtension",
      "outputs": [],
      "stateMutability": "nonpayable",
      "type": "function"
    },
    {
      "inputs": [
        {
          "internalType": "uint256",
          "name": "newProposalThreshold",
          "type": "uint256"
        }
      ],
      "name": "setProposalThreshold",
      "outputs": [],
      "stateMutability": "nonpayable",
      "type": "function"
    },
    {
      "inputs": [
        {
          "internalType": "uint256",
          "name": "newVotingDelay",
          "type": "uint256"
        }
      ],
      "name": "setVotingDelay",
      "outputs": [],
      "stateMutability": "nonpayable",
      "type": "function"
    },
    {
      "inputs": [
        {
          "internalType": "uint256",
          "name": "newVotingPeriod",
          "type": "uint256"
        }
      ],
      "name": "setVotingPeriod",
      "outputs": [],
      "stateMutability": "nonpayable",
      "type": "function"
    },
    {
      "inputs": [
        {
          "internalType": "uint256",
          "name": "proposalId",
          "type": "uint256"
        }
      ],
      "name": "state",
      "outputs": [
        {
          "internalType": "enum IGovernorUpgradeable.ProposalState",
          "name": "",
          "type": "uint8"
        }
      ],
      "stateMutability": "view",
      "type": "function"
    },
    {
      "inputs": [
        {
          "internalType": "bytes4",
          "name": "interfaceId",
          "type": "bytes4"
        }
      ],
      "name": "supportsInterface",
      "outputs": [
        {
          "internalType": "bool",
          "name": "",
          "type": "bool"
        }
      ],
      "stateMutability": "view",
      "type": "function"
    },
    {
      "inputs": [],
      "name": "timelock",
      "outputs": [
        {
          "internalType": "address",
          "name": "",
          "type": "address"
        }
      ],
      "stateMutability": "view",
      "type": "function"
    },
    {
      "inputs": [],
      "name": "token",
      "outputs": [
        {
          "internalType": "contract IVotesUpgradeable",
          "name": "",
          "type": "address"
        }
      ],
      "stateMutability": "view",
      "type": "function"
    },
    {
      "inputs": [
        {
          "internalType": "uint256",
          "name": "newQuorumNumerator",
          "type": "uint256"
        }
      ],
      "name": "updateQuorumNumerator",
      "outputs": [],
      "stateMutability": "nonpayable",
      "type": "function"
    },
    {
      "inputs": [
        {
          "internalType": "contract ITimelockUpgradeable",
          "name": "newTimelock",
          "type": "address"
        }
      ],
      "name": "updateTimelock",
      "outputs": [],
      "stateMutability": "nonpayable",
      "type": "function"
    },
    {
      "inputs": [
        {
          "internalType": "address",
          "name": "newImplementation",
          "type": "address"
        }
      ],
      "name": "upgradeTo",
      "outputs": [],
      "stateMutability": "nonpayable",
      "type": "function"
    },
    {
      "inputs": [
        {
          "internalType": "address",
          "name": "newImplementation",
          "type": "address"
        },
        {
          "internalType": "bytes",
          "name": "data",
          "type": "bytes"
        }
      ],
      "name": "upgradeToAndCall",
      "outputs": [],
      "stateMutability": "payable",
      "type": "function"
    },
    {
      "inputs": [],
      "name": "version",
      "outputs": [
        {
          "internalType": "string",
          "name": "",
          "type": "string"
        }
      ],
      "stateMutability": "view",
      "type": "function"
    },
    {
      "inputs": [],
      "name": "votingDelay",
      "outputs": [
        {
          "internalType": "uint256",
          "name": "",
          "type": "uint256"
        }
      ],
      "stateMutability": "view",
      "type": "function"
    },
    {
      "inputs": [],
      "name": "votingPeriod",
      "outputs": [
        {
          "internalType": "uint256",
          "name": "",
          "type": "uint256"
        }
      ],
      "stateMutability": "view",
      "type": "function"
    },
    {
      "stateMutability": "payable",
      "type": "receive"
    }
  ],
  "transactionHash": "0x257c0ed91a91ce156d8d3dcf1eb1640fa19e00335fd6b35d1516baa8c8bd8a2c",
  "args": [],
  "numDeployments": 1,
  "solcInputHash": "3ddadc1d7c849ba50fdf1b869807a376",
  "bytecode": "0x60a06040523060805234801561001457600080fd5b50608051613cdd61004c60003960008181610c6101528181610ca101528181610de801528181610e280152610ebb0152613cdd6000f3fe60806040526004361061023f5760003560e01c806370b0f6601161012e578063c59057e4116100ab578063ea0217cf1161006f578063ea0217cf14610773578063eb9019d414610793578063ece40cc1146107b3578063f8ce560a146107d3578063fc0c546a146107f357600080fd5b8063c59057e41461069a578063d07f91e9146106ba578063d33219b4146106da578063dd4e2ba5146106f9578063deaaa7cc1461073f57600080fd5b8063a890c910116100f2578063a890c91014610605578063ab58fb8e14610625578063b58131b014610645578063c01f9e371461065a578063c28bc2fa1461067a57600080fd5b806370b0f6601461057b5780637b3c71d31461059b5780637d5e81e2146105bb57806397c3d334146105db578063a7713a70146105ef57600080fd5b80633932abb1116101bc57806352d1902d1161018057806352d1902d146104a6578063544ffc9c146104bb57806354fd4d5014610511578063567813881461053b57806361f6cc8b1461055b57600080fd5b80633932abb1146103e65780633bccf4fd146103fb5780633e4f49e61461041b57806343859632146104485780634f1ef2861461049357600080fd5b8063160cbed711610203578063160cbed71461033a5780632656227d1461035a5780632d63f6931461036d57806332b8113e1461038d5780633659cfe6146103c657600080fd5b806301ffc9a71461026757806302a251a31461029c57806306f3f9e6146102bf57806306fdde03146102df57806313007d551461030157600080fd5b36610262573061024d610814565b6001600160a01b03161461026057600080fd5b005b600080fd5b34801561027357600080fd5b50610287610282366004612f0a565b61082e565b60405190151581526020015b60405180910390f35b3480156102a857600080fd5b506102b1610859565b604051908152602001610293565b3480156102cb57600080fd5b506102606102da366004612f34565b610865565b3480156102eb57600080fd5b506102f46108b2565b6040516102939190612fa5565b34801561030d57600080fd5b5061028e54610322906001600160a01b031681565b6040516001600160a01b039091168152602001610293565b34801561034657600080fd5b506102b16103553660046131f3565b610944565b6102b16103683660046131f3565b610b48565b34801561037957600080fd5b506102b1610388366004612f34565b610c20565b34801561039957600080fd5b5061028e54600160a01b90046001600160401b03166040516001600160401b039091168152602001610293565b3480156103d257600080fd5b506102606103e1366004613282565b610c57565b3480156103f257600080fd5b506102b1610d33565b34801561040757600080fd5b506102b16104163660046132b5565b610d3f565b34801561042757600080fd5b5061043b610436366004612f34565b610dd3565b6040516102939190613319565b34801561045457600080fd5b50610287610463366004613341565b6000828152610161602090815260408083206001600160a01b038516845260030190915290205460ff1692915050565b6102606104a1366004613371565b610dde565b3480156104b257600080fd5b506102b1610eae565b3480156104c757600080fd5b506104f66104d6366004612f34565b600090815261016160205260409020805460018201546002909201549092565b60408051938452602084019290925290820152606001610293565b34801561051d57600080fd5b506040805180820190915260018152603160f81b60208201526102f4565b34801561054757600080fd5b506102b16105563660046133c0565b610f61565b34801561056757600080fd5b50610260610576366004613403565b610f8a565b34801561058757600080fd5b50610260610596366004612f34565b611095565b3480156105a757600080fd5b506102b16105b63660046134f9565b6110d6565b3480156105c757600080fd5b506102b16105d6366004613552565b611128565b3480156105e757600080fd5b5060646102b1565b3480156105fb57600080fd5b506101c6546102b1565b34801561061157600080fd5b50610260610620366004613282565b61113f565b34801561063157600080fd5b506102b1610640366004612f34565b611180565b34801561065157600080fd5b506102b161121d565b34801561066657600080fd5b506102b1610675366004612f34565b611229565b34801561068657600080fd5b506102606106953660046135fe565b611234565b3480156106a657600080fd5b506102b16106b53660046131f3565b6112b5565b3480156106c657600080fd5b506102606106d5366004613641565b6112ef565b3480156106e657600080fd5b506101f8546001600160a01b0316610322565b34801561070557600080fd5b506040805180820190915260208082527f737570706f72743d627261766f2671756f72756d3d666f722c6162737461696e908201526102f4565b34801561074b57600080fd5b506102b17f150214d74d59b7d1e90c73fc22ef3d991dd0a76b046543d4d80ab92d2a50328f81565b34801561077f57600080fd5b5061026061078e366004612f34565b611330565b34801561079f57600080fd5b506102b16107ae36600461365c565b611371565b3480156107bf57600080fd5b506102606107ce366004612f34565b61137d565b3480156107df57600080fd5b506102b16107ee366004612f34565b6113be565b3480156107ff57600080fd5b5061019354610322906001600160a01b031681565b60006108296101f8546001600160a01b031690565b905090565b60006001600160e01b03198216631fedc7b160e21b14806108535750610853826113c9565b92915050565b60006108296101305490565b61086d610814565b6001600160a01b0316336001600160a01b0316146108a65760405162461bcd60e51b815260040161089d90613688565b60405180910390fd5b6108af816113fe565b50565b606060fd80546108c1906136bf565b80601f01602080910402602001604051908101604052809291908181526020018280546108ed906136bf565b801561093a5780601f1061090f5761010080835404028352916020019161093a565b820191906000526020600020905b81548152906001019060200180831161091d57829003601f168201915b5050505050905090565b600080610953868686866112b5565b9050600461096082610dd3565b600781111561097157610971613303565b1461098e5760405162461bcd60e51b815260040161089d906136f9565b6101f8546040805163793d064960e11b815290516000926001600160a01b03169163f27a0c929160048083019260209291908290030181865afa1580156109d9573d6000803e3d6000fd5b505050506040513d601f19601f820116820180604052508101906109fd919061373a565b6101f85460405163b1c5f42760e01b81529192506001600160a01b03169063b1c5f42790610a38908a908a908a906000908b9060040161381c565b602060405180830381865afa158015610a55573d6000803e3d6000fd5b505050506040513d601f19601f82011682018060405250810190610a79919061373a565b60008381526101f96020526040808220929092556101f85491516308f2a0bb60e41b81526001600160a01b0390921691638f2a0bb091610ac6918b918b918b91908b90899060040161386a565b600060405180830381600087803b158015610ae057600080fd5b505af1158015610af4573d6000803e3d6000fd5b505050507f9a2e42fd6722813d69113e7d0079d3d940171428df7373df9c7f7617cfda2892828242610b2691906138d8565b6040805192835260208301919091520160405180910390a15095945050505050565b600080610b57868686866112b5565b90506000610b6482610dd3565b90506004816007811115610b7a57610b7a613303565b1480610b9757506005816007811115610b9557610b95613303565b145b610bb35760405162461bcd60e51b815260040161089d906136f9565b600082815260fe602052604090819020600201805460ff19166001179055517f712ae1383f79ac853f8d882153778e0260ef8f03b504e2866e0593e04d2b291f90610c019084815260200190565b60405180910390a1610c1682888888886114c7565b5095945050505050565b600081815260fe602090815260408083208151928301909152546001600160401b0316908190525b6001600160401b031692915050565b6001600160a01b037f0000000000000000000000000000000000000000000000000000000000000000163003610c9f5760405162461bcd60e51b815260040161089d906138f0565b7f00000000000000000000000000000000000000000000000000000000000000006001600160a01b0316610ce8600080516020613c38833981519152546001600160a01b031690565b6001600160a01b031614610d0e5760405162461bcd60e51b815260040161089d9061393c565b610d17816114d4565b604080516000808252602082019092526108af91839190611579565b600061082961012f5490565b604080517f150214d74d59b7d1e90c73fc22ef3d991dd0a76b046543d4d80ab92d2a50328f602082015290810186905260ff851660608201526000908190610dab90610da390608001604051602081830303815290604052805190602001206116e9565b868686611737565b9050610dc887828860405180602001604052806000815250611755565b979650505050505050565b600061085382611763565b6001600160a01b037f0000000000000000000000000000000000000000000000000000000000000000163003610e265760405162461bcd60e51b815260040161089d906138f0565b7f00000000000000000000000000000000000000000000000000000000000000006001600160a01b0316610e6f600080516020613c38833981519152546001600160a01b031690565b6001600160a01b031614610e955760405162461bcd60e51b815260040161089d9061393c565b610e9e826114d4565b610eaa82826001611579565b5050565b6000306001600160a01b037f00000000000000000000000000000000000000000000000000000000000000001614610f4e5760405162461bcd60e51b815260206004820152603860248201527f555550535570677261646561626c653a206d757374206e6f742062652063616c60448201527f6c6564207468726f7567682064656c656761746563616c6c0000000000000000606482015260840161089d565b50600080516020613c3883398151915290565b600080339050610f8284828560405180602001604052806000815250611755565b949350505050565b600054610100900460ff16610fa55760005460ff1615610fa9565b303b155b61100c5760405162461bcd60e51b815260206004820152602e60248201527f496e697469616c697a61626c653a20636f6e747261637420697320616c72656160448201526d191e481a5b9a5d1a585b1a5e995960921b606482015260840161089d565b600054610100900460ff1615801561102e576000805461ffff19166101011790555b6110378a6118b0565b611042868686611907565b61104a611939565b61105389611962565b61105c83611992565b611065886119c2565b61106e826119f2565b61107787611a3d565b8015611089576000805461ff00191690555b50505050505050505050565b61109d610814565b6001600160a01b0316336001600160a01b0316146110cd5760405162461bcd60e51b815260040161089d90613688565b6108af81611a6d565b60008033905061111e86828787878080601f01602080910402602001604051908101604052809392919081815260200183838082843760009201919091525061175592505050565b9695505050505050565b600061113685858585611ab0565b95945050505050565b611147610814565b6001600160a01b0316336001600160a01b0316146111775760405162461bcd60e51b815260040161089d90613688565b6108af81611d6a565b6101f85460008281526101f9602052604080822054905163d45c443560e01b81526004810191909152909182916001600160a01b039091169063d45c443590602401602060405180830381865afa1580156111df573d6000803e3d6000fd5b505050506040513d601f19601f82011682018060405250810190611203919061373a565b9050806001146112135780611216565b60005b9392505050565b60006108296101315490565b600061085382611dd5565b61123c610814565b6001600160a01b0316336001600160a01b03161461126c5760405162461bcd60e51b815260040161089d90613688565b6112ae8483838080601f016020809104026020016040519081016040528093929190818152602001838380828437600092019190915250889250611e12915050565b5050505050565b6000848484846040516020016112ce9493929190613988565b60408051601f19818403018152919052805160209091012095945050505050565b6112f7610814565b6001600160a01b0316336001600160a01b0316146113275760405162461bcd60e51b815260040161089d90613688565b6108af81611e38565b611338610814565b6001600160a01b0316336001600160a01b0316146113685760405162461bcd60e51b815260040161089d90613688565b6108af81611eb5565b60006112168383611f58565b611385610814565b6001600160a01b0316336001600160a01b0316146113b55760405162461bcd60e51b815260040161089d90613688565b6108af81611fcf565b600061085382612012565b60006001600160e01b031982166313007d5560e01b148061085357506301ffc9a760e01b6001600160e01b0319831614610853565b60648111156114815760405162461bcd60e51b815260206004820152604360248201527f476f7665726e6f72566f74657351756f72756d4672616374696f6e3a2071756f60448201527f72756d4e756d657261746f72206f7665722071756f72756d44656e6f6d696e616064820152623a37b960e91b608482015260a40161089d565b6101c680549082905560408051828152602081018490527f0553476bf02ef2726e8ce5ced78d63e26e602e4a2257b1f559418e24b4633997910160405180910390a15050565b6112ae858585858561209c565b61028e546040516001623b410b60e21b031981523360048201523060248201526000356001600160e01b03191660448201526001600160a01b039091169063ff12fbd490606401602060405180830381865afa158015611538573d6000803e3d6000fd5b505050506040513d601f19601f8201168201806040525081019061155c91906139d3565b6108af5760405163ea8e4eb560e01b815260040160405180910390fd5b7f4910fdfa16fed3260ed0e7147f7cc6da11a60208b5b9406d12a635614ffd91435460ff16156115b1576115ac83612105565b505050565b826001600160a01b03166352d1902d6040518163ffffffff1660e01b8152600401602060405180830381865afa92505050801561160b575060408051601f3d908101601f191682019092526116089181019061373a565b60015b61166e5760405162461bcd60e51b815260206004820152602e60248201527f45524331393637557067726164653a206e657720696d706c656d656e7461746960448201526d6f6e206973206e6f74205555505360901b606482015260840161089d565b600080516020613c3883398151915281146116dd5760405162461bcd60e51b815260206004820152602960248201527f45524331393637557067726164653a20756e737570706f727465642070726f786044820152681a58589b195555525160ba1b606482015260840161089d565b506115ac8383836121a1565b60006108536116f66121cc565b8360405161190160f01b6020820152602281018390526042810182905260009060620160405160208183030381529060405280519060200120905092915050565b600080600061174887878787612247565b91509150610c1681612334565b6000611136858585856124ea565b60008061176f836125d7565b9050600481600781111561178557611785613303565b146117905792915050565b60008381526101f96020526040902054806117ac575092915050565b6101f854604051632ab0f52960e01b8152600481018390526001600160a01b0390911690632ab0f52990602401602060405180830381865afa1580156117f6573d6000803e3d6000fd5b505050506040513d601f19601f8201168201806040525081019061181a91906139d3565b15611829575060079392505050565b6101f854604051632c258a9f60e11b8152600481018390526001600160a01b039091169063584b153e90602401602060405180830381865afa158015611873573d6000803e3d6000fd5b505050506040513d601f19601f8201168201806040525081019061189791906139d3565b156118a6575060059392505050565b5060029392505050565b600054610100900460ff166118d75760405162461bcd60e51b815260040161089d906139f5565b6118fe816118f96040805180820190915260018152603160f81b602082015290565b6126e7565b6108af81612728565b600054610100900460ff1661192e5760405162461bcd60e51b815260040161089d906139f5565b6115ac838383612762565b600054610100900460ff166119605760405162461bcd60e51b815260040161089d906139f5565b565b600054610100900460ff166119895760405162461bcd60e51b815260040161089d906139f5565b6108af816127a4565b600054610100900460ff166119b95760405162461bcd60e51b815260040161089d906139f5565b6108af816127ee565b600054610100900460ff166119e95760405162461bcd60e51b815260040161089d906139f5565b6108af81612815565b600054610100900460ff16611a195760405162461bcd60e51b815260040161089d906139f5565b61028e80546001600160a01b0319166001600160a01b0383161790556108af611939565b600054610100900460ff16611a645760405162461bcd60e51b815260040161089d906139f5565b6108af8161283c565b61012f5460408051918252602082018390527fc565b045403dc03c2eea82b81a0465edad9e2e7fc4d97e11421c209da93d7a93910160405180910390a161012f55565b6000611aba61121d565b611ac9336107ae600143613a40565b1015611b495760405162461bcd60e51b815260206004820152604360248201527f476f7665726e6f72436f6d7061746962696c697479427261766f3a2070726f7060448201527f6f73657220766f7465732062656c6f772070726f706f73616c207468726573686064820152621bdb1960ea1b608482015260a40161089d565b6000611b5e86868686805190602001206112b5565b90508451865114611b815760405162461bcd60e51b815260040161089d90613a57565b8351865114611ba25760405162461bcd60e51b815260040161089d90613a57565b6000865111611bf35760405162461bcd60e51b815260206004820152601860248201527f476f7665726e6f723a20656d7074792070726f706f73616c0000000000000000604482015260640161089d565b600081815260fe6020908152604091829020825191820190925281546001600160401b03169081905215611c735760405162461bcd60e51b815260206004820152602160248201527f476f7665726e6f723a2070726f706f73616c20616c72656164792065786973746044820152607360f81b606482015260840161089d565b6000611c85611c80610d33565b612863565b611c8e43612863565b611c989190613a98565b90506000611ca7611c80610859565b611cb19083613a98565b9050611cbd83836128cf565b611cca60018401826128cf565b7f7d84a6263ae0d98d3329bd7b46bb4e8d6f98cd35a7adb45c274c8b7fd5ebd5e084338b8b8d516001600160401b03811115611d0857611d08612fb8565b604051908082528060200260200182016040528015611d3b57816020015b6060815260200190600190039081611d265790505b508c88888e604051611d5599989796959493929190613ac3565b60405180910390a15091979650505050505050565b6101f854604080516001600160a01b03928316815291831660208301527f08f74ea46ef7894f65eabfb5e6e695de773a000b47c529ab559178069b226401910160405180910390a16101f880546001600160a01b0319166001600160a01b0392909216919091179055565b6000610853611de3836128ed565b600084815261028f6020908152604091829020825191820190925290546001600160401b03169081905261291c565b6060610f82848484604051806060016040528060298152602001613c5860299139612933565b61028e54604080516001600160401b03600160a01b9093048316815291831660208301527f7ca4ac117ed3cdce75c1161d8207c440389b1a15d69d096831664657c07dafc2910160405180910390a161028e80546001600160401b03909216600160a01b0267ffffffffffffffff60a01b19909216919091179055565b60008111611f155760405162461bcd60e51b815260206004820152602760248201527f476f7665726e6f7253657474696e67733a20766f74696e6720706572696f6420604482015266746f6f206c6f7760c81b606482015260840161089d565b6101305460408051918252602082018390527f7e3f7f0708a84de9203036abaa450dccc85ad5ff52f78c170f3edb55cf5e8828910160405180910390a161013055565b61019354604051630748d63560e31b81526001600160a01b038481166004830152602482018490526000921690633a46b1a890604401602060405180830381865afa158015611fab573d6000803e3d6000fd5b505050506040513d601f19601f82011682018060405250810190611216919061373a565b6101315460408051918252602082018390527fccb45da8d5717e6c4544694297c4ba5cf151d455c9bb0ed4fc7a38411bc05461910160405180910390a161013155565b600060646101c65461019354604051632394e7a360e21b8152600481018690526001600160a01b0390911690638e539e8c90602401602060405180830381865afa158015612064573d6000803e3d6000fd5b505050506040513d601f19601f82011682018060405250810190612088919061373a565b6120929190613bb2565b6108539190613bd1565b6101f85460405163e38335e560e01b81526001600160a01b039091169063e38335e59034906120d890889088908890600090899060040161381c565b6000604051808303818588803b1580156120f157600080fd5b505af1158015611089573d6000803e3d6000fd5b6001600160a01b0381163b6121725760405162461bcd60e51b815260206004820152602d60248201527f455243313936373a206e657720696d706c656d656e746174696f6e206973206e60448201526c1bdd08184818dbdb9d1c9858dd609a1b606482015260840161089d565b600080516020613c3883398151915280546001600160a01b0319166001600160a01b0392909216919091179055565b6121aa83612a59565b6000825111806121b75750805b156115ac576121c68383612a99565b50505050565b60006108297f8b73c3c69bb8fe3d512ecc4cf759cc79239f7b179b0ffacaa9a75d522b39400f6121fb60655490565b6066546040805160208101859052908101839052606081018290524660808201523060a082015260009060c0016040516020818303038152906040528051906020012090509392505050565b6000807f7fffffffffffffffffffffffffffffff5d576e7357a4501ddfe92f46681b20a083111561227e575060009050600361232b565b8460ff16601b1415801561229657508460ff16601c14155b156122a7575060009050600461232b565b6040805160008082526020820180845289905260ff881692820192909252606081018690526080810185905260019060a0016020604051602081039080840390855afa1580156122fb573d6000803e3d6000fd5b5050604051601f1901519150506001600160a01b0381166123245760006001925092505061232b565b9150600090505b94509492505050565b600081600481111561234857612348613303565b036123505750565b600181600481111561236457612364613303565b036123b15760405162461bcd60e51b815260206004820152601860248201527f45434453413a20696e76616c6964207369676e61747572650000000000000000604482015260640161089d565b60028160048111156123c5576123c5613303565b036124125760405162461bcd60e51b815260206004820152601f60248201527f45434453413a20696e76616c6964207369676e6174757265206c656e67746800604482015260640161089d565b600381600481111561242657612426613303565b0361247e5760405162461bcd60e51b815260206004820152602260248201527f45434453413a20696e76616c6964207369676e6174757265202773272076616c604482015261756560f01b606482015260840161089d565b600481600481111561249257612492613303565b036108af5760405162461bcd60e51b815260206004820152602260248201527f45434453413a20696e76616c6964207369676e6174757265202776272076616c604482015261756560f01b606482015260840161089d565b6000806124f986868686612b84565b600087815261028f6020908152604091829020825191820190925281546001600160401b03169081905291925090158015612538575061253887612c8e565b15610c165761028e54600090600160a01b90046001600160401b031661255d43612863565b6125679190613a98565b905061257288611229565b816001600160401b031611156125c1576040516001600160401b038216815288907f541f725fb9f7c98a30cc9c0ff32fbb14358cd7159c847a3aa20a2bdc442ba5119060200160405180910390a25b6125cb82826128cf565b50509050949350505050565b600081815260fe60205260408120600281015460ff16156125fb5750600792915050565b6002810154610100900460ff16156126165750600292915050565b600061262184610c20565b9050806000036126735760405162461bcd60e51b815260206004820152601d60248201527f476f7665726e6f723a20756e6b6e6f776e2070726f706f73616c206964000000604482015260640161089d565b438110612684575060009392505050565b600061268f85611229565b90504381106126a357506001949350505050565b6126ac85612c8e565b80156126cc57506000858152610161602052604090208054600190910154115b156126dc57506004949350505050565b506003949350505050565b600054610100900460ff1661270e5760405162461bcd60e51b815260040161089d906139f5565b815160209283012081519190920120606591909155606655565b600054610100900460ff1661274f5760405162461bcd60e51b815260040161089d906139f5565b8051610eaa9060fd906020840190612e7a565b600054610100900460ff166127895760405162461bcd60e51b815260040161089d906139f5565b61279283611a6d565b61279b82611eb5565b6115ac81611fcf565b600054610100900460ff166127cb5760405162461bcd60e51b815260040161089d906139f5565b61019380546001600160a01b0319166001600160a01b0392909216919091179055565b600054610100900460ff166108a65760405162461bcd60e51b815260040161089d906139f5565b600054610100900460ff166111775760405162461bcd60e51b815260040161089d906139f5565b600054610100900460ff166113275760405162461bcd60e51b815260040161089d906139f5565b60006001600160401b038211156128cb5760405162461bcd60e51b815260206004820152602660248201527f53616665436173743a2076616c756520646f65736e27742066697420696e203660448201526534206269747360d01b606482015260840161089d565b5090565b815467ffffffffffffffff19166001600160401b0391909116179055565b600081815260fe602090815260408083208151928301909152600101546001600160401b031690819052610c48565b60008183101561292c5781611216565b5090919050565b6060824710156129945760405162461bcd60e51b815260206004820152602660248201527f416464726573733a20696e73756666696369656e742062616c616e636520666f6044820152651c8818d85b1b60d21b606482015260840161089d565b6001600160a01b0385163b6129eb5760405162461bcd60e51b815260206004820152601d60248201527f416464726573733a2063616c6c20746f206e6f6e2d636f6e7472616374000000604482015260640161089d565b600080866001600160a01b03168587604051612a079190613bf3565b60006040518083038185875af1925050503d8060008114612a44576040519150601f19603f3d011682016040523d82523d6000602084013e612a49565b606091505b5091509150610dc8828286612cc6565b612a6281612105565b6040516001600160a01b038216907fbc7cd75a20ee27fd9adebab32041f755214dbc6bffa90cc0225b39da2e5c2d3b90600090a250565b60606001600160a01b0383163b612b015760405162461bcd60e51b815260206004820152602660248201527f416464726573733a2064656c65676174652063616c6c20746f206e6f6e2d636f6044820152651b9d1c9858dd60d21b606482015260840161089d565b600080846001600160a01b031684604051612b1c9190613bf3565b600060405180830381855af49150503d8060008114612b57576040519150601f19603f3d011682016040523d82523d6000602084013e612b5c565b606091505b50915091506111368282604051806060016040528060278152602001613c8160279139612cc6565b600084815260fe602052604081206001612b9d87610dd3565b6007811115612bae57612bae613303565b14612c075760405162461bcd60e51b815260206004820152602360248201527f476f7665726e6f723a20766f7465206e6f742063757272656e746c792061637460448201526269766560e81b606482015260840161089d565b604080516020810190915281546001600160401b031690819052600090612c2f908790611371565b9050612c3d87878784612cff565b856001600160a01b03167fb8e138887d0aa13bab447e82de9d5c1777041ecd21ca36ba824ff1e6c07ddda488878488604051612c7c9493929190613c0f565b60405180910390a29695505050505050565b60008181526101616020526040812060028101546001820154612cb191906138d8565b612cbd6107ee85610c20565b11159392505050565b60608315612cd5575081611216565b825115612ce55782518084602001fd5b8160405162461bcd60e51b815260040161089d9190612fa5565b6000848152610161602090815260408083206001600160a01b0387168452600381019092529091205460ff1615612d885760405162461bcd60e51b815260206004820152602760248201527f476f7665726e6f72566f74696e6753696d706c653a20766f746520616c726561604482015266191e4818d85cdd60ca1b606482015260840161089d565b6001600160a01b03841660009081526003820160205260409020805460ff1916600117905560ff8316612dd45781816000016000828254612dc991906138d8565b909155506112ae9050565b60001960ff841601612df45781816001016000828254612dc991906138d8565b60011960ff841601612e145781816002016000828254612dc991906138d8565b60405162461bcd60e51b815260206004820152603560248201527f476f7665726e6f72566f74696e6753696d706c653a20696e76616c69642076616044820152746c756520666f7220656e756d20566f74655479706560581b606482015260840161089d565b828054612e86906136bf565b90600052602060002090601f016020900481019282612ea85760008555612eee565b82601f10612ec157805160ff1916838001178555612eee565b82800160010185558215612eee579182015b82811115612eee578251825591602001919060010190612ed3565b506128cb9291505b808211156128cb5760008155600101612ef6565b600060208284031215612f1c57600080fd5b81356001600160e01b03198116811461121657600080fd5b600060208284031215612f4657600080fd5b5035919050565b60005b83811015612f68578181015183820152602001612f50565b838111156121c65750506000910152565b60008151808452612f91816020860160208601612f4d565b601f01601f19169290920160200192915050565b6020815260006112166020830184612f79565b634e487b7160e01b600052604160045260246000fd5b604051601f8201601f191681016001600160401b0381118282101715612ff657612ff6612fb8565b604052919050565b60006001600160401b0382111561301757613017612fb8565b5060051b60200190565b6001600160a01b03811681146108af57600080fd5b600082601f83011261304757600080fd5b8135602061305c61305783612ffe565b612fce565b82815260059290921b8401810191818101908684111561307b57600080fd5b8286015b8481101561309f57803561309281613021565b835291830191830161307f565b509695505050505050565b600082601f8301126130bb57600080fd5b813560206130cb61305783612ffe565b82815260059290921b840181019181810190868411156130ea57600080fd5b8286015b8481101561309f57803583529183019183016130ee565b600082601f83011261311657600080fd5b81356001600160401b0381111561312f5761312f612fb8565b613142601f8201601f1916602001612fce565b81815284602083860101111561315757600080fd5b816020850160208301376000918101602001919091529392505050565b600082601f83011261318557600080fd5b8135602061319561305783612ffe565b82815260059290921b840181019181810190868411156131b457600080fd5b8286015b8481101561309f5780356001600160401b038111156131d75760008081fd5b6131e58986838b0101613105565b8452509183019183016131b8565b6000806000806080858703121561320957600080fd5b84356001600160401b038082111561322057600080fd5b61322c88838901613036565b9550602087013591508082111561324257600080fd5b61324e888389016130aa565b9450604087013591508082111561326457600080fd5b5061327187828801613174565b949793965093946060013593505050565b60006020828403121561329457600080fd5b813561121681613021565b803560ff811681146132b057600080fd5b919050565b600080600080600060a086880312156132cd57600080fd5b853594506132dd6020870161329f565b93506132eb6040870161329f565b94979396509394606081013594506080013592915050565b634e487b7160e01b600052602160045260246000fd5b602081016008831061333b57634e487b7160e01b600052602160045260246000fd5b91905290565b6000806040838503121561335457600080fd5b82359150602083013561336681613021565b809150509250929050565b6000806040838503121561338457600080fd5b823561338f81613021565b915060208301356001600160401b038111156133aa57600080fd5b6133b685828601613105565b9150509250929050565b600080604083850312156133d357600080fd5b823591506133e36020840161329f565b90509250929050565b80356001600160401b03811681146132b057600080fd5b60008060008060008060008060006101208a8c03121561342257600080fd5b89356001600160401b0381111561343857600080fd5b6134448c828d01613105565b99505060208a013561345581613021565b975060408a013561346581613021565b965061347360608b016133ec565b955060808a0135945060a08a0135935060c08a0135925060e08a013591506101008a01356134a081613021565b809150509295985092959850929598565b60008083601f8401126134c357600080fd5b5081356001600160401b038111156134da57600080fd5b6020830191508360208285010111156134f257600080fd5b9250929050565b6000806000806060858703121561350f57600080fd5b8435935061351f6020860161329f565b925060408501356001600160401b0381111561353a57600080fd5b613546878288016134b1565b95989497509550505050565b6000806000806080858703121561356857600080fd5b84356001600160401b038082111561357f57600080fd5b61358b88838901613036565b955060208701359150808211156135a157600080fd5b6135ad888389016130aa565b945060408701359150808211156135c357600080fd5b6135cf88838901613174565b935060608701359150808211156135e557600080fd5b506135f287828801613105565b91505092959194509250565b6000806000806060858703121561361457600080fd5b843561361f81613021565b93506020850135925060408501356001600160401b0381111561353a57600080fd5b60006020828403121561365357600080fd5b611216826133ec565b6000806040838503121561366f57600080fd5b823561367a81613021565b946020939093013593505050565b60208082526018908201527f476f7665726e6f723a206f6e6c79476f7665726e616e63650000000000000000604082015260600190565b600181811c908216806136d357607f821691505b6020821081036136f357634e487b7160e01b600052602260045260246000fd5b50919050565b60208082526021908201527f476f7665726e6f723a2070726f706f73616c206e6f74207375636365737366756040820152601b60fa1b606082015260800190565b60006020828403121561374c57600080fd5b5051919050565b600081518084526020808501945080840160005b8381101561378c5781516001600160a01b031687529582019590820190600101613767565b509495945050505050565b600081518084526020808501945080840160005b8381101561378c578151875295820195908201906001016137ab565b600081518084526020808501808196508360051b8101915082860160005b8581101561380f5782840389526137fd848351612f79565b988501989350908401906001016137e5565b5091979650505050505050565b60a08152600061382f60a0830188613753565b82810360208401526138418188613797565b9050828103604084015261385581876137c7565b60608401959095525050608001529392505050565b60c08152600061387d60c0830189613753565b828103602084015261388f8189613797565b905082810360408401526138a381886137c7565b60608401969096525050608081019290925260a0909101529392505050565b634e487b7160e01b600052601160045260246000fd5b600082198211156138eb576138eb6138c2565b500190565b6020808252602c908201527f46756e6374696f6e206d7573742062652063616c6c6564207468726f7567682060408201526b19195b1959d85d1958d85b1b60a21b606082015260800190565b6020808252602c908201527f46756e6374696f6e206d7573742062652063616c6c6564207468726f7567682060408201526b6163746976652070726f787960a01b606082015260800190565b60808152600061399b6080830187613753565b82810360208401526139ad8187613797565b905082810360408401526139c181866137c7565b91505082606083015295945050505050565b6000602082840312156139e557600080fd5b8151801515811461121657600080fd5b6020808252602b908201527f496e697469616c697a61626c653a20636f6e7472616374206973206e6f74206960408201526a6e697469616c697a696e6760a81b606082015260800190565b600082821015613a5257613a526138c2565b500390565b60208082526021908201527f476f7665726e6f723a20696e76616c69642070726f706f73616c206c656e67746040820152600d60fb1b606082015260800190565b60006001600160401b03808316818516808303821115613aba57613aba6138c2565b01949350505050565b60006101208b8352602060018060a01b038c1681850152816040850152613aec8285018c613753565b91508382036060850152613b00828b613797565b915083820360808501528189518084528284019150828160051b850101838c0160005b83811015613b5157601f19878403018552613b3f838351612f79565b94860194925090850190600101613b23565b505086810360a0880152613b65818c6137c7565b945050505050613b8060c08401876001600160401b03169052565b6001600160401b03851660e0840152828103610100840152613ba28185612f79565b9c9b505050505050505050505050565b6000816000190483118215151615613bcc57613bcc6138c2565b500290565b600082613bee57634e487b7160e01b600052601260045260246000fd5b500490565b60008251613c05818460208701612f4d565b9190910192915050565b84815260ff8416602082015282604082015260806060820152600061111e6080830184612f7956fe360894a13ba1a3210667c828492db98dca3e2076cc3735a920a3ca505d382bbc416464726573733a206c6f772d6c6576656c2063616c6c20776974682076616c7565206661696c6564416464726573733a206c6f772d6c6576656c2064656c65676174652063616c6c206661696c6564a2646970667358221220df99af904207ab224b8410469fda24c91c4e2440e78fcf0f0968e0823b2aed2d64736f6c634300080d0033",
  "devdoc": {
    "details": "Governor Module used to implement 1 token 1 vote. This acts as an extension of the MVD and permissions are controlled by access control.Gov Module is extended by the timelock contract which creates a lockup period before execution.",
    "kind": "dev",
    "methods": {
      "COUNTING_MODE()": {
        "details": "See {IGovernor-COUNTING_MODE}."
      },
      "castVote(uint256,uint8)": {
        "details": "See {IGovernor-castVote}."
      },
      "castVoteBySig(uint256,uint8,uint8,bytes32,bytes32)": {
        "details": "See {IGovernor-castVoteBySig}."
      },
      "castVoteWithReason(uint256,uint8,string)": {
        "details": "See {IGovernor-castVoteWithReason}."
      },
      "execute(address[],uint256[],bytes[],bytes32)": {
        "details": "See {IGovernor-execute}."
      },
      "getVotes(address,uint256)": {
        "details": "Voting power of an `account` at a specific `blockNumber`. Note: this can be implemented in a number of ways, for example by reading the delegated balance from one (or multiple), {ERC20Votes} tokens.",
        "params": {
          "account": "Voting weight of this Address",
          "blockNumber": "Checkpoint at this blockNumber"
        }
      },
      "hasVoted(uint256,address)": {
        "details": "See {IGovernor-hasVoted}."
      },
      "hashProposal(address[],uint256[],bytes[],bytes32)": {
        "details": "See {IGovernor-hashProposal}. The proposal id is produced by hashing the RLC encoded `targets` array, the `values` array, the `calldatas` array and the descriptionHash (bytes32 which itself is the keccak256 hash of the description string). This proposal id can be produced from the proposal data which is part of the {ProposalCreated} event. It can even be computed in advance, before the proposal is submitted. Note that the chainId and the governor address are not part of the proposal id computation. Consequently, the same proposal (with same operation and same description) will have the same id if submitted on multiple governors accross multiple networks. This also means that in order to execute the same operation twice (on the same governor) the proposer will have to change the description in order to avoid proposal id conflicts."
      },
      "initialize(string,address,address,uint64,uint256,uint256,uint256,uint256,address)": {
        "details": "Configures Gov Module implementationCalled once during deployment atomically",
        "params": {
          "_accessControl": "Address of Access Control",
          "_initialProposalThreshold": "Total tokens required to submit a proposal",
          "_initialQuorumNumeratorValue": "Total votes needed to reach quorum",
          "_initialVoteExtension": "Allow users to vote if quorum attack is preformed",
          "_initialVotingDelay": "Allow users to research proposals before voting period",
          "_initialVotingPeriod": "Length of voting period (blocks)",
          "_name": "Name of the DAO",
          "_timelock": "Timelock vest proposals to allow detractors to exit system",
          "_token": "Voting token uses snapshot feature"
        }
      },
      "lateQuorumVoteExtension()": {
        "details": "Returns the current value of the vote extension parameter: the number of blocks that are required to pass from the time a proposal reaches quorum until its voting period ends."
      },
      "name()": {
        "details": "See {IGovernor-name}."
      },
      "proposalDeadline(uint256)": {
        "details": "Block number at which votes close. Votes close at the end of this block, so it is possible to cast a vote during this block.",
        "params": {
          "proposalId": "keccak256 hash of proposal params"
        }
      },
      "proposalEta(uint256)": {
        "details": "Public accessor to check the eta of a queued proposal",
        "params": {
          "proposalId": "keccak256 hash of proposal params"
        }
      },
      "proposalSnapshot(uint256)": {
        "details": "See {IGovernor-proposalSnapshot}."
      },
      "proposalThreshold()": {
        "details": "Total vote weight required to create a proposal"
      },
      "proposalVotes(uint256)": {
        "details": "Accessor to the internal vote counts."
      },
      "propose(address[],uint256[],bytes[],string)": {
        "details": "Create a new proposal. Vote start {IGovernor-votingDelay} blocks after the proposal is created and ends {IGovernor-votingPeriod} blocks after the voting starts. Emits a {ProposalCreated} event.",
        "params": {
          "calldatas": "Function Sigs w/ Params",
          "description": "Description of proposal",
          "targets": "Contract addresses the DAO will call",
          "values": "Ether values to be sent to the target address"
        }
      },
      "proxiableUUID()": {
        "details": "Implementation of the ERC1822 {proxiableUUID} function. This returns the storage slot used by the implementation. It is used to validate that the this implementation remains valid after an upgrade. IMPORTANT: A proxy pointing at a proxiable contract should not be considered proxiable itself, because this risks bricking a proxy that upgrades to it, by delegating to itself until out of gas. Thus it is critical that this function revert if invoked through a proxy. This is guaranteed by the `notDelegated` modifier."
      },
      "queue(address[],uint256[],bytes[],bytes32)": {
        "details": "Function to queue a proposal to the timelock.",
        "params": {
          "calldatas": "Function Sigs w/ Params ",
          "descriptionHash": "Description of proposal",
          "targets": "Contract addresses the DAO will call",
          "values": "Ether values to be sent to the target address"
        }
      },
      "quorum(uint256)": {
        "details": "Minimum number of cast voted required for a proposal to be successful. Note: The `blockNumber` parameter corresponds to the snaphot used for counting vote. This allows to scale the quroum depending on values such as the totalSupply of a token at this block (see {ERC20Votes}).",
        "params": {
          "blockNumber": "Checkpoint at this blockNumber"
        }
      },
      "quorumDenominator()": {
        "details": "Returns the quorum denominator. Defaults to 100, but may be overridden."
      },
      "quorumNumerator()": {
        "details": "Returns the current quorum numerator. See {quorumDenominator}."
      },
      "relay(address,uint256,bytes)": {
        "details": "Relays a transaction or function call to an arbitrary target. In cases where the governance executor is some contract other than the governor itself, like when using a timelock, this function can be invoked in a governance proposal to recover tokens or Ether that was sent to the governor contract by mistake. Note that if the executor is simply the governor itself, use of `relay` is redundant."
      },
      "setLateQuorumVoteExtension(uint64)": {
        "details": "Changes the {lateQuorumVoteExtension}. This operation can only be performed by the governance executor, generally through a governance proposal. Emits a {LateQuorumVoteExtensionSet} event."
      },
      "setProposalThreshold(uint256)": {
        "details": "Update the proposal threshold. This operation can only be performed through a governance proposal. Emits a {ProposalThresholdSet} event."
      },
      "setVotingDelay(uint256)": {
        "details": "Update the voting delay. This operation can only be performed through a governance proposal. Emits a {VotingDelaySet} event."
      },
      "setVotingPeriod(uint256)": {
        "details": "Update the voting period. This operation can only be performed through a governance proposal. Emits a {VotingPeriodSet} event."
      },
      "state(uint256)": {
        "details": "Overriden version of the {Governor-state} function with added support for the `Queued` status.",
        "params": {
          "proposalId": "keccak256 hash of proposal params"
        }
      },
      "supportsInterface(bytes4)": {
        "details": "See {IERC165-supportsInterface}.",
        "params": {
          "interfaceId": "An interface ID bytes4 as defined by ERC-165"
        },
        "returns": {
          "_0": "bool Indicates whether the interface is supported"
        }
      },
      "timelock()": {
        "details": "Public accessor to check the address of the timelock"
      },
      "updateQuorumNumerator(uint256)": {
        "details": "Changes the quorum numerator. Emits a {QuorumNumeratorUpdated} event. Requirements: - Must be called through a governance proposal. - New numerator must be smaller or equal to the denominator."
      },
      "updateTimelock(address)": {
        "details": "Public endpoint to update the underlying timelock instance. Restricted to the timelock itself, so updates must be proposed, scheduled, and executed through governance proposals. CAUTION: It is not recommended to change the timelock while there are other queued governance proposals.",
        "params": {
          "newTimelock": "Address of new Timelock Address"
        }
      },
      "upgradeTo(address)": {
        "details": "Upgrade the implementation of the proxy to `newImplementation`. Calls {_authorizeUpgrade}. Emits an {Upgraded} event."
      },
      "upgradeToAndCall(address,bytes)": {
        "details": "Upgrade the implementation of the proxy to `newImplementation`, and subsequently execute the function call encoded in `data`. Calls {_authorizeUpgrade}. Emits an {Upgraded} event."
      },
      "version()": {
        "details": "See {IGovernor-version}."
      },
      "votingDelay()": {
        "details": "Delay, in number of block, between the proposal is created and the vote starts. This can be increassed to leave time for users to buy voting power, of delegate it, before the voting of a proposal starts."
      },
      "votingPeriod()": {
        "details": "Delay, in number of blocks, between the vote start and vote ends. NOTE: The {votingDelay} can delay the start of the vote. This must be considered when setting the voting duration compared to the voting delay."
      }
    },
    "version": 1
  },
  "userdoc": {
    "kind": "user",
    "methods": {
      "getVotes(address,uint256)": {
        "notice": "module:reputation"
      },
      "proposalDeadline(uint256)": {
        "notice": "module:core"
      },
      "quorum(uint256)": {
        "notice": "module:user-config"
      },
      "votingDelay()": {
        "notice": "module:user-config"
      },
      "votingPeriod()": {
        "notice": "module:user-config"
      }
    },
    "version": 1
  },
  "storageLayout": {
    "storage": [
      {
        "astId": 2453,
        "contract": "contracts/modules/Governor/GovernorModule.sol:GovernorModule",
        "label": "_initialized",
        "offset": 0,
        "slot": "0",
        "type": "t_bool"
      },
      {
        "astId": 2456,
        "contract": "contracts/modules/Governor/GovernorModule.sol:GovernorModule",
        "label": "_initializing",
        "offset": 1,
        "slot": "0",
        "type": "t_bool"
      },
      {
        "astId": 2940,
        "contract": "contracts/modules/Governor/GovernorModule.sol:GovernorModule",
        "label": "__gap",
        "offset": 0,
        "slot": "1",
        "type": "t_array(t_uint256)50_storage"
      },
      {
        "astId": 4018,
        "contract": "contracts/modules/Governor/GovernorModule.sol:GovernorModule",
        "label": "__gap",
        "offset": 0,
        "slot": "51",
        "type": "t_array(t_uint256)50_storage"
      },
      {
        "astId": 3834,
        "contract": "contracts/modules/Governor/GovernorModule.sol:GovernorModule",
        "label": "_HASHED_NAME",
        "offset": 0,
        "slot": "101",
        "type": "t_bytes32"
      },
      {
        "astId": 3836,
        "contract": "contracts/modules/Governor/GovernorModule.sol:GovernorModule",
        "label": "_HASHED_VERSION",
        "offset": 0,
        "slot": "102",
        "type": "t_bytes32"
      },
      {
        "astId": 3974,
        "contract": "contracts/modules/Governor/GovernorModule.sol:GovernorModule",
        "label": "__gap",
        "offset": 0,
        "slot": "103",
        "type": "t_array(t_uint256)50_storage"
      },
      {
        "astId": 1132,
        "contract": "contracts/modules/Governor/GovernorModule.sol:GovernorModule",
        "label": "__gap",
        "offset": 0,
        "slot": "153",
        "type": "t_array(t_uint256)50_storage"
      },
      {
        "astId": 12413,
        "contract": "contracts/modules/Governor/GovernorModule.sol:GovernorModule",
        "label": "__gap",
        "offset": 0,
        "slot": "203",
        "type": "t_array(t_uint256)50_storage"
      },
      {
        "astId": 46,
        "contract": "contracts/modules/Governor/GovernorModule.sol:GovernorModule",
        "label": "_name",
        "offset": 0,
        "slot": "253",
        "type": "t_string_storage"
      },
      {
        "astId": 51,
        "contract": "contracts/modules/Governor/GovernorModule.sol:GovernorModule",
        "label": "_proposals",
        "offset": 0,
        "slot": "254",
        "type": "t_mapping(t_uint256,t_struct(ProposalCore)44_storage)"
      },
      {
        "astId": 876,
        "contract": "contracts/modules/Governor/GovernorModule.sol:GovernorModule",
        "label": "__gap",
        "offset": 0,
        "slot": "255",
        "type": "t_array(t_uint256)48_storage"
      },
      {
        "astId": 1592,
        "contract": "contracts/modules/Governor/GovernorModule.sol:GovernorModule",
        "label": "_votingDelay",
        "offset": 0,
        "slot": "303",
        "type": "t_uint256"
      },
      {
        "astId": 1594,
        "contract": "contracts/modules/Governor/GovernorModule.sol:GovernorModule",
        "label": "_votingPeriod",
        "offset": 0,
        "slot": "304",
        "type": "t_uint256"
      },
      {
        "astId": 1596,
        "contract": "contracts/modules/Governor/GovernorModule.sol:GovernorModule",
        "label": "_proposalThreshold",
        "offset": 0,
        "slot": "305",
        "type": "t_uint256"
      },
      {
        "astId": 1786,
        "contract": "contracts/modules/Governor/GovernorModule.sol:GovernorModule",
        "label": "__gap",
        "offset": 0,
        "slot": "306",
        "type": "t_array(t_uint256)47_storage"
      },
      {
        "astId": 1174,
        "contract": "contracts/modules/Governor/GovernorModule.sol:GovernorModule",
        "label": "_proposalVotes",
        "offset": 0,
        "slot": "353",
        "type": "t_mapping(t_uint256,t_struct(ProposalVote)1169_storage)"
      },
      {
        "astId": 1376,
        "contract": "contracts/modules/Governor/GovernorModule.sol:GovernorModule",
        "label": "__gap",
        "offset": 0,
        "slot": "354",
        "type": "t_array(t_uint256)49_storage"
      },
      {
        "astId": 1929,
        "contract": "contracts/modules/Governor/GovernorModule.sol:GovernorModule",
        "label": "token",
        "offset": 0,
        "slot": "403",
        "type": "t_contract(IVotesUpgradeable)2057"
      },
      {
        "astId": 1978,
        "contract": "contracts/modules/Governor/GovernorModule.sol:GovernorModule",
        "label": "__gap",
        "offset": 0,
        "slot": "404",
        "type": "t_array(t_uint256)50_storage"
      },
      {
        "astId": 1798,
        "contract": "contracts/modules/Governor/GovernorModule.sol:GovernorModule",
        "label": "_quorumNumerator",
        "offset": 0,
        "slot": "454",
        "type": "t_uint256"
      },
      {
        "astId": 1915,
        "contract": "contracts/modules/Governor/GovernorModule.sol:GovernorModule",
        "label": "__gap",
        "offset": 0,
        "slot": "455",
        "type": "t_array(t_uint256)49_storage"
      },
      {
        "astId": 13158,
        "contract": "contracts/modules/Governor/GovernorModule.sol:GovernorModule",
        "label": "_timelock",
        "offset": 0,
        "slot": "504",
        "type": "t_contract(ITimelockUpgradeable)12791"
      },
      {
        "astId": 13162,
        "contract": "contracts/modules/Governor/GovernorModule.sol:GovernorModule",
        "label": "_timelockIds",
        "offset": 0,
        "slot": "505",
        "type": "t_mapping(t_uint256,t_bytes32)"
      },
      {
        "astId": 13541,
        "contract": "contracts/modules/Governor/GovernorModule.sol:GovernorModule",
        "label": "__gap",
        "offset": 0,
        "slot": "506",
        "type": "t_array(t_uint256)48_storage"
      },
      {
        "astId": 2435,
        "contract": "contracts/modules/Governor/GovernorModule.sol:GovernorModule",
        "label": "__gap",
        "offset": 0,
        "slot": "554",
        "type": "t_array(t_uint256)50_storage"
      },
      {
        "astId": 2655,
        "contract": "contracts/modules/Governor/GovernorModule.sol:GovernorModule",
        "label": "__gap",
        "offset": 0,
        "slot": "604",
        "type": "t_array(t_uint256)50_storage"
      },
      {
        "astId": 11810,
        "contract": "contracts/modules/Governor/GovernorModule.sol:GovernorModule",
        "label": "accessControl",
        "offset": 0,
        "slot": "654",
        "type": "t_contract(IAccessControl)12263"
      },
      {
        "astId": 1396,
        "contract": "contracts/modules/Governor/GovernorModule.sol:GovernorModule",
        "label": "_voteExtension",
        "offset": 20,
        "slot": "654",
        "type": "t_uint64"
      },
      {
        "astId": 1401,
        "contract": "contracts/modules/Governor/GovernorModule.sol:GovernorModule",
        "label": "_extendedDeadlines",
        "offset": 0,
        "slot": "655",
        "type": "t_mapping(t_uint256,t_struct(BlockNumber)3315_storage)"
      },
      {
        "astId": 1580,
        "contract": "contracts/modules/Governor/GovernorModule.sol:GovernorModule",
        "label": "__gap",
        "offset": 0,
        "slot": "656",
        "type": "t_array(t_uint256)48_storage"
      }
    ],
    "types": {
      "t_address": {
        "encoding": "inplace",
        "label": "address",
        "numberOfBytes": "20"
      },
      "t_array(t_uint256)47_storage": {
        "base": "t_uint256",
        "encoding": "inplace",
        "label": "uint256[47]",
        "numberOfBytes": "1504"
      },
      "t_array(t_uint256)48_storage": {
        "base": "t_uint256",
        "encoding": "inplace",
        "label": "uint256[48]",
        "numberOfBytes": "1536"
      },
      "t_array(t_uint256)49_storage": {
        "base": "t_uint256",
        "encoding": "inplace",
        "label": "uint256[49]",
        "numberOfBytes": "1568"
      },
      "t_array(t_uint256)50_storage": {
        "base": "t_uint256",
        "encoding": "inplace",
        "label": "uint256[50]",
        "numberOfBytes": "1600"
      },
      "t_bool": {
        "encoding": "inplace",
        "label": "bool",
        "numberOfBytes": "1"
      },
      "t_bytes32": {
        "encoding": "inplace",
        "label": "bytes32",
        "numberOfBytes": "32"
      },
      "t_contract(IAccessControl)12263": {
        "encoding": "inplace",
        "label": "contract IAccessControl",
        "numberOfBytes": "20"
      },
      "t_contract(ITimelockUpgradeable)12791": {
        "encoding": "inplace",
        "label": "contract ITimelockUpgradeable",
        "numberOfBytes": "20"
      },
      "t_contract(IVotesUpgradeable)2057": {
        "encoding": "inplace",
        "label": "contract IVotesUpgradeable",
        "numberOfBytes": "20"
      },
      "t_mapping(t_address,t_bool)": {
        "encoding": "mapping",
        "key": "t_address",
        "label": "mapping(address => bool)",
        "numberOfBytes": "32",
        "value": "t_bool"
      },
      "t_mapping(t_uint256,t_bytes32)": {
        "encoding": "mapping",
        "key": "t_uint256",
        "label": "mapping(uint256 => bytes32)",
        "numberOfBytes": "32",
        "value": "t_bytes32"
      },
      "t_mapping(t_uint256,t_struct(BlockNumber)3315_storage)": {
        "encoding": "mapping",
        "key": "t_uint256",
        "label": "mapping(uint256 => struct TimersUpgradeable.BlockNumber)",
        "numberOfBytes": "32",
        "value": "t_struct(BlockNumber)3315_storage"
      },
      "t_mapping(t_uint256,t_struct(ProposalCore)44_storage)": {
        "encoding": "mapping",
        "key": "t_uint256",
        "label": "mapping(uint256 => struct GovernorUpgradeable.ProposalCore)",
        "numberOfBytes": "32",
        "value": "t_struct(ProposalCore)44_storage"
      },
      "t_mapping(t_uint256,t_struct(ProposalVote)1169_storage)": {
        "encoding": "mapping",
        "key": "t_uint256",
        "label": "mapping(uint256 => struct GovernorCountingSimpleUpgradeable.ProposalVote)",
        "numberOfBytes": "32",
        "value": "t_struct(ProposalVote)1169_storage"
      },
      "t_string_storage": {
        "encoding": "bytes",
        "label": "string",
        "numberOfBytes": "32"
      },
      "t_struct(BlockNumber)3315_storage": {
        "encoding": "inplace",
        "label": "struct TimersUpgradeable.BlockNumber",
        "members": [
          {
            "astId": 3314,
            "contract": "contracts/modules/Governor/GovernorModule.sol:GovernorModule",
            "label": "_deadline",
            "offset": 0,
            "slot": "0",
            "type": "t_uint64"
          }
        ],
        "numberOfBytes": "32"
      },
      "t_struct(ProposalCore)44_storage": {
        "encoding": "inplace",
        "label": "struct GovernorUpgradeable.ProposalCore",
        "members": [
          {
            "astId": 36,
            "contract": "contracts/modules/Governor/GovernorModule.sol:GovernorModule",
            "label": "voteStart",
            "offset": 0,
            "slot": "0",
            "type": "t_struct(BlockNumber)3315_storage"
          },
          {
            "astId": 39,
            "contract": "contracts/modules/Governor/GovernorModule.sol:GovernorModule",
            "label": "voteEnd",
            "offset": 0,
            "slot": "1",
            "type": "t_struct(BlockNumber)3315_storage"
          },
          {
            "astId": 41,
            "contract": "contracts/modules/Governor/GovernorModule.sol:GovernorModule",
            "label": "executed",
            "offset": 0,
            "slot": "2",
            "type": "t_bool"
          },
          {
            "astId": 43,
            "contract": "contracts/modules/Governor/GovernorModule.sol:GovernorModule",
            "label": "canceled",
            "offset": 1,
            "slot": "2",
            "type": "t_bool"
          }
        ],
        "numberOfBytes": "96"
      },
      "t_struct(ProposalVote)1169_storage": {
        "encoding": "inplace",
        "label": "struct GovernorCountingSimpleUpgradeable.ProposalVote",
        "members": [
          {
            "astId": 1160,
            "contract": "contracts/modules/Governor/GovernorModule.sol:GovernorModule",
            "label": "againstVotes",
            "offset": 0,
            "slot": "0",
            "type": "t_uint256"
          },
          {
            "astId": 1162,
            "contract": "contracts/modules/Governor/GovernorModule.sol:GovernorModule",
            "label": "forVotes",
            "offset": 0,
            "slot": "1",
            "type": "t_uint256"
          },
          {
            "astId": 1164,
            "contract": "contracts/modules/Governor/GovernorModule.sol:GovernorModule",
            "label": "abstainVotes",
            "offset": 0,
            "slot": "2",
            "type": "t_uint256"
          },
          {
            "astId": 1168,
            "contract": "contracts/modules/Governor/GovernorModule.sol:GovernorModule",
            "label": "hasVoted",
            "offset": 0,
            "slot": "3",
            "type": "t_mapping(t_address,t_bool)"
          }
        ],
        "numberOfBytes": "128"
      },
      "t_uint256": {
        "encoding": "inplace",
        "label": "uint256",
        "numberOfBytes": "32"
      },
      "t_uint64": {
        "encoding": "inplace",
        "label": "uint64",
        "numberOfBytes": "8"
      }
    }
  }
}